{
	"data": {
		"bytecode": {
			"linkReferences": {},
			"object": "608060405234801561001057600080fd5b506122fc806100206000396000f3fe608060405234801561001057600080fd5b50600436106100365760003560e01c80636996ee661461003b5780638eff89541461006b575b600080fd5b61005560048036038101906100509190611c89565b61009b565b6040516100629190611d0d565b60405180910390f35b61008560048036038101906100809190611dd9565b610160565b6040516100929190611d0d565b60405180910390f35b600080600467ffffffffffffffff8111156100b9576100b86119c0565b5b6040519080825280602002602001820160405280156100e75781602001602082028036833780820191505090505b50905060005b60048110156101405783816004811061010957610108611e42565b5b602002015182828151811061012157610120611e42565b5b602002602001018181525050808061013890611ea0565b9150506100ed565b5061015586868684610150610225565b610791565b915050949350505050565b600080600367ffffffffffffffff81111561017e5761017d6119c0565b5b6040519080825280602002602001820160405280156101ac5781602001602082028036833780820191505090505b50905060005b6003811015610205578381600381106101ce576101cd611e42565b5b60200201518282815181106101e6576101e5611e42565b5b60200260200101818152505080806101fd90611ea0565b9150506101b2565b5061021a86868684610215610966565b610791565b915050949350505050565b61022d611859565b60405180604001604052807f21f5797f5879e80718b00be8eb08ca5994fdb277d2bb8c2c1b486b70d2681b7c81526020017f2aa6a48f4f887a483debcd0309b025d297b1d6877399584c81cf411b4afd416a8152508160000181905250604051806040016040528060405180604001604052807f2253fdfd6cc75b49699be4d69bf52aa20c781f574953c4666f650467b0da4b9a81526020017f25d70af7e590b28fce67eb2439b2469813c0cc14ff9cc7e58a3f7f5ed821c6b5815250815260200160405180604001604052807f03bb0866957f88f1433fefab392ce569b813ec6730d9415018a39e18c680fcf081526020017f06a304626e6ecc69c9b30e14a2cf7edf2bef8cdcb025b03a8a25d31d43c16b138152508152508160200181905250604051806040016040528060405180604001604052807f198e9393920d483a7260bfb731fb5d25f1aa493335a9e71297e485b7aef312c281526020017f1800deef121f1e76426a00665e5c4479674322d4f75edadd46debd5cd992f6ed815250815260200160405180604001604052807f090689d0585ff075ec9e99ad690c3395bc4b313370b38ef355acdadcd122975b81526020017f12c85ea5db8c6deb4aab71808dcb408fe3d1e7690c43d37b4ce6cc0166fa7daa8152508152508160400181905250604051806040016040528060405180604001604052807f2ebba34f8571d0922bec5ba875f2976478f3fcfb29abc2140309e0373cc18ef181526020017f14e5c15f174b3e1537bced00767b0eb0eb652b774c441032c89aee9459e0eab9815250815260200160405180604001604052807f1b8122281402c70e5e0ce3c58f0c3f9e99564c821e4dd1bcf5302789694fcc7381526020017f20da94195cd7236db0d3362e2a7b890e3b5dc58cd214a623d36aab7f56f4f8188152508152508160600181905250600567ffffffffffffffff8111156104f4576104f36119c0565b5b60405190808252806020026020018201604052801561052d57816020015b61051a6118a0565b8152602001906001900390816105125790505b50816080018190525060405180604001604052807f0e42cb5a56459de96736ff9b9cfdb5281f4866b8eb0effd14557e1581c83dadf81526020017f0a4dcce5d7041bcdcc632d54b91a79372a99b61ec54b2f1b6c85084373946c6981525081608001516000815181106105a3576105a2611e42565b5b602002602001018190525060405180604001604052807f03057a56fb5c5e390ce74006803e49e0d7886c8d78c3deeeaad94ed9bf8640cd81526020017f03ed7b8020c4642bd77c23012bea0409c981ee8a13708125a8bb9dffb40c1431815250816080015160018151811061061b5761061a611e42565b5b602002602001018190525060405180604001604052807f23e9517b30931c91c1cdf032e21ce83b715afa1034ddc74991ad926cc6c7310a81526020017f1e4c60f32ca8a934082c19145c73708c8b277b78b854bd1158ead98b768d27be815250816080015160028151811061069357610692611e42565b5b602002602001018190525060405180604001604052807f128234cfe3b6c72a7c4d473cd73552b5f8329783fd49cf972eee1b16a896c70d81526020017f252443e347b48b6727ef60da6006203dbafdc03dfe094e71b021463eb42b51eb815250816080015160038151811061070b5761070a611e42565b5b602002602001018190525060405180604001604052807f2e87e9cf61222ae8c99c185b6a0403ed54141c77648e4a586aba2de4f19b999d81526020017f23e4a1479ac5d91f565eb36177f87978664aacd064ca527fcaf5930463506fcb815250816080015160048151811061078357610782611e42565b5b602002602001018190525090565b600061079b6118ba565b6040518060400160405280886000600281106107ba576107b9611e42565b5b60200201518152602001886001600281106107d8576107d7611e42565b5b60200201518152508160000181905250604051806040016040528060405180604001604052808960006002811061081257610811611e42565b5b602002015160006002811061082a57610829611e42565b5b602002015181526020018960006002811061084857610847611e42565b5b60200201516001600281106108605761085f611e42565b5b6020020151815250815260200160405180604001604052808960016002811061088c5761088b611e42565b5b60200201516000600281106108a4576108a3611e42565b5b60200201518152602001896001600281106108c2576108c1611e42565b5b60200201516001600281106108da576108d9611e42565b5b6020020151815250815250816020018190525060405180604001604052808660006002811061090c5761090b611e42565b5b602002015181526020018660016002811061092a57610929611e42565b5b602002015181525081604001819052506000610947858386610e5a565b141561095757600191505061095d565b60009150505b95945050505050565b61096e611859565b60405180604001604052807f20957fc3962e7b252bf2f69d922297d900debc309ffda4c934945fd9372d59a281526020017f226a51d30c2e38a67e56c346eb00fdf5e7eba783e941ed8ea3542063f0af09188152508160000181905250604051806040016040528060405180604001604052807f25f2a3da1c2d9e851c5671b01ccaee74279821ed113b6933e61357800438cfc581526020017f09b2cb0340d953379a26f716da7f4b5d1c5505f1d442547d860fcfedf6488502815250815260200160405180604001604052807f2fe41ced47ad7e9ce1bccb888b499da318bd1bcb1d7826c91c4e75601cf844ab81526020017f0bf3c52e7f3c0f3f82ddd07335de8bcfae7a3c89a4d63d97ff48209aad6de9478152508152508160200181905250604051806040016040528060405180604001604052807f198e9393920d483a7260bfb731fb5d25f1aa493335a9e71297e485b7aef312c281526020017f1800deef121f1e76426a00665e5c4479674322d4f75edadd46debd5cd992f6ed815250815260200160405180604001604052807f090689d0585ff075ec9e99ad690c3395bc4b313370b38ef355acdadcd122975b81526020017f12c85ea5db8c6deb4aab71808dcb408fe3d1e7690c43d37b4ce6cc0166fa7daa8152508152508160400181905250604051806040016040528060405180604001604052807f2082dc7b3cc3c71639d3ba5ac45c20d92cf9ec107aa97e9142a519532e121bfd81526020017f2bc5891b81eb8e1b0f811792a1d6f2641523eb3db7c981ae3eb32556dea330e5815250815260200160405180604001604052807f1493e044fa2b0fe124acaaa22e5523f56807926c98ec4a85e48c5193b0c907e381526020017f2a113fbd289739bb8ec1f9947390a20ab4965e4cbad150330db90e94da7e98d08152508152508160600181905250600467ffffffffffffffff811115610c3557610c346119c0565b5b604051908082528060200260200182016040528015610c6e57816020015b610c5b6118a0565b815260200190600190039081610c535790505b50816080018190525060405180604001604052807f2ef8e39975480d0bd7a2d905a60c00501f76bd8b5d976e042edca261c332c81481526020017f07cbfc1a34e7ceb36f296c5eab744cda9ef2c913a4061b9fbe91587a4198cac28152508160800151600081518110610ce457610ce3611e42565b5b602002602001018190525060405180604001604052807f2c150e53378ad000d88b869c107239e3afd833383ef59620732aa42d71bd15e481526020017f1d66bb4dec51764956c9b11c93004d7f1b3b4070a850faef970db190b2328f4c8152508160800151600181518110610d5c57610d5b611e42565b5b602002602001018190525060405180604001604052807f302e1597bac6a2203828dcac7db62be243c33d52ad94cfa8a0244da4175b673681526020017f15a437e1e7207018ff8c82f97796b0d72a0b6f6fdc41ca46f91f2857f965da4e8152508160800151600281518110610dd457610dd3611e42565b5b602002602001018190525060405180604001604052807f05ef75c92f7f28e6ce5e233a2edb20dc25c958392b3c0049b1b894c9c404bdb781526020017f08e6fc9a2b2b800a9e474c6ca8cf0f2d543a90e6a501a9fa0a2ffa37f989096e8152508160800151600381518110610e4c57610e4b611e42565b5b602002602001018190525090565b6000807f30644e72e131a029b85045b68181585d2833e84879b9709143e1f593f0000001905082608001515160018651610e949190611ee9565b14610ed4576040517f08c379a0000000000000000000000000000000000000000000000000000000008152600401610ecb90611f9c565b60405180910390fd5b60006040518060400160405280600081526020016000815250905060005b8651811015610fc35782878281518110610f0f57610f0e611e42565b5b602002602001015110610f57576040517f08c379a0000000000000000000000000000000000000000000000000000000008152600401610f4e90612008565b60405180910390fd5b610fae82610fa98760800151600185610f709190611ee9565b81518110610f8157610f80611e42565b5b60200260200101518a8581518110610f9c57610f9b611e42565b5b6020026020010151611040565b61111d565b91508080610fbb90611ea0565b915050610ef2565b50610fed818560800151600081518110610fe057610fdf611e42565b5b602002602001015161111d565b9050611023610fff8660000151611220565b8660200151866000015187602001518589604001518b604001518b606001516112c5565b61103257600192505050611039565b6000925050505b9392505050565b6110486118a0565b6110506118ed565b83600001518160006003811061106957611068611e42565b5b60200201818152505083602001518160016003811061108b5761108a611e42565b5b60200201818152505082816002600381106110a9576110a8611e42565b5b602002018181525050600060608360808460076107d05a03fa905080600081146110d2576110d4565bfe5b5080611115576040517f08c379a000000000000000000000000000000000000000000000000000000000815260040161110c90612074565b60405180910390fd5b505092915050565b6111256118a0565b61112d61190f565b83600001518160006004811061114657611145611e42565b5b60200201818152505083602001518160016004811061116857611167611e42565b5b60200201818152505082600001518160026004811061118a57611189611e42565b5b6020020181815250508260200151816003600481106111ac576111ab611e42565b5b602002018181525050600060608360c08460066107d05a03fa905080600081146111d5576111d7565bfe5b5080611218576040517f08c379a000000000000000000000000000000000000000000000000000000000815260040161120f906120e0565b60405180910390fd5b505092915050565b6112286118a0565b60007f30644e72e131a029b85045b68181585d97816a916871ca8d3c208c16d87cfd47905060008360000151148015611265575060008360200151145b156112895760405180604001604052806000815260200160008152509150506112c0565b6040518060400160405280846000015181526020018285602001516112ae919061212f565b836112b99190612160565b8152509150505b919050565b600080600467ffffffffffffffff8111156112e3576112e26119c0565b5b60405190808252806020026020018201604052801561131c57816020015b6113096118a0565b8152602001906001900390816113015790505b5090506000600467ffffffffffffffff81111561133c5761133b6119c0565b5b60405190808252806020026020018201604052801561137557816020015b611362611931565b81526020019060019003908161135a5790505b5090508a8260008151811061138d5761138c611e42565b5b602002602001018190525088826001815181106113ad576113ac611e42565b5b602002602001018190525086826002815181106113cd576113cc611e42565b5b602002602001018190525084826003815181106113ed576113ec611e42565b5b6020026020010181905250898160008151811061140d5761140c611e42565b5b6020026020010181905250878160018151811061142d5761142c611e42565b5b6020026020010181905250858160028151811061144d5761144c611e42565b5b6020026020010181905250838160038151811061146d5761146c611e42565b5b60200260200101819052506114828282611492565b9250505098975050505050505050565b600081518351146114d8576040517f08c379a00000000000000000000000000000000000000000000000000000000081526004016114cf906121e0565b60405180910390fd5b60008351905060006006826114ed9190612200565b905060008167ffffffffffffffff81111561150b5761150a6119c0565b5b6040519080825280602002602001820160405280156115395781602001602082028036833780820191505090505b50905060005b838110156117be5786818151811061155a57611559611e42565b5b6020026020010151600001518260006006846115769190612200565b6115809190611ee9565b8151811061159157611590611e42565b5b6020026020010181815250508681815181106115b0576115af611e42565b5b6020026020010151602001518260016006846115cc9190612200565b6115d69190611ee9565b815181106115e7576115e6611e42565b5b60200260200101818152505085818151811061160657611605611e42565b5b60200260200101516000015160006002811061162557611624611e42565b5b602002015182600260068461163a9190612200565b6116449190611ee9565b8151811061165557611654611e42565b5b60200260200101818152505085818151811061167457611673611e42565b5b60200260200101516000015160016002811061169357611692611e42565b5b60200201518260036006846116a89190612200565b6116b29190611ee9565b815181106116c3576116c2611e42565b5b6020026020010181815250508581815181106116e2576116e1611e42565b5b60200260200101516020015160006002811061170157611700611e42565b5b60200201518260046006846117169190612200565b6117209190611ee9565b8151811061173157611730611e42565b5b6020026020010181815250508581815181106117505761174f611e42565b5b60200260200101516020015160016002811061176f5761176e611e42565b5b60200201518260056006846117849190612200565b61178e9190611ee9565b8151811061179f5761179e611e42565b5b60200260200101818152505080806117b690611ea0565b91505061153f565b506117c7611957565b6000602082602086026020860160086107d05a03fa905080600081146117ec576117ee565bfe5b508061182f576040517f08c379a0000000000000000000000000000000000000000000000000000000008152600401611826906122a6565b60405180910390fd5b60008260006001811061184557611844611e42565b5b602002015114159550505050505092915050565b6040518060a0016040528061186c6118a0565b8152602001611879611931565b8152602001611886611931565b8152602001611893611931565b8152602001606081525090565b604051806040016040528060008152602001600081525090565b60405180606001604052806118cd6118a0565b81526020016118da611931565b81526020016118e76118a0565b81525090565b6040518060600160405280600390602082028036833780820191505090505090565b6040518060800160405280600490602082028036833780820191505090505090565b6040518060400160405280611944611979565b8152602001611951611979565b81525090565b6040518060200160405280600190602082028036833780820191505090505090565b6040518060400160405280600290602082028036833780820191505090505090565b6000604051905090565b600080fd5b600080fd5b6000601f19601f8301169050919050565b7f4e487b7100000000000000000000000000000000000000000000000000000000600052604160045260246000fd5b6119f8826119af565b810181811067ffffffffffffffff82111715611a1757611a166119c0565b5b80604052505050565b6000611a2a61199b565b9050611a3682826119ef565b919050565b600067ffffffffffffffff821115611a5657611a556119c0565b5b602082029050919050565b600080fd5b6000819050919050565b611a7981611a66565b8114611a8457600080fd5b50565b600081359050611a9681611a70565b92915050565b6000611aaf611aaa84611a3b565b611a20565b90508060208402830185811115611ac957611ac8611a61565b5b835b81811015611af25780611ade8882611a87565b845260208401935050602081019050611acb565b5050509392505050565b600082601f830112611b1157611b106119aa565b5b6002611b1e848285611a9c565b91505092915050565b600067ffffffffffffffff821115611b4257611b416119c0565b5b602082029050919050565b6000611b60611b5b84611b27565b611a20565b90508060408402830185811115611b7a57611b79611a61565b5b835b81811015611ba35780611b8f8882611afc565b845260208401935050604081019050611b7c565b5050509392505050565b600082601f830112611bc257611bc16119aa565b5b6002611bcf848285611b4d565b91505092915050565b600067ffffffffffffffff821115611bf357611bf26119c0565b5b602082029050919050565b6000611c11611c0c84611bd8565b611a20565b90508060208402830185811115611c2b57611c2a611a61565b5b835b81811015611c545780611c408882611a87565b845260208401935050602081019050611c2d565b5050509392505050565b600082601f830112611c7357611c726119aa565b5b6004611c80848285611bfe565b91505092915050565b6000806000806101808587031215611ca457611ca36119a5565b5b6000611cb287828801611afc565b9450506040611cc387828801611bad565b93505060c0611cd487828801611afc565b925050610100611ce687828801611c5e565b91505092959194509250565b60008115159050919050565b611d0781611cf2565b82525050565b6000602082019050611d226000830184611cfe565b92915050565b600067ffffffffffffffff821115611d4357611d426119c0565b5b602082029050919050565b6000611d61611d5c84611d28565b611a20565b90508060208402830185811115611d7b57611d7a611a61565b5b835b81811015611da45780611d908882611a87565b845260208401935050602081019050611d7d565b5050509392505050565b600082601f830112611dc357611dc26119aa565b5b6003611dd0848285611d4e565b91505092915050565b6000806000806101608587031215611df457611df36119a5565b5b6000611e0287828801611afc565b9450506040611e1387828801611bad565b93505060c0611e2487828801611afc565b925050610100611e3687828801611dae565b91505092959194509250565b7f4e487b7100000000000000000000000000000000000000000000000000000000600052603260045260246000fd5b7f4e487b7100000000000000000000000000000000000000000000000000000000600052601160045260246000fd5b6000611eab82611a66565b91507fffffffffffffffffffffffffffffffffffffffffffffffffffffffffffffffff821415611ede57611edd611e71565b5b600182019050919050565b6000611ef482611a66565b9150611eff83611a66565b9250827fffffffffffffffffffffffffffffffffffffffffffffffffffffffffffffffff03821115611f3457611f33611e71565b5b828201905092915050565b600082825260208201905092915050565b7f76657269666965722d6261642d696e7075740000000000000000000000000000600082015250565b6000611f86601283611f3f565b9150611f9182611f50565b602082019050919050565b60006020820190508181036000830152611fb581611f79565b9050919050565b7f76657269666965722d6774652d736e61726b2d7363616c61722d6669656c6400600082015250565b6000611ff2601f83611f3f565b9150611ffd82611fbc565b602082019050919050565b6000602082019050818103600083015261202181611fe5565b9050919050565b7f70616972696e672d6d756c2d6661696c65640000000000000000000000000000600082015250565b600061205e601283611f3f565b915061206982612028565b602082019050919050565b6000602082019050818103600083015261208d81612051565b9050919050565b7f70616972696e672d6164642d6661696c65640000000000000000000000000000600082015250565b60006120ca601283611f3f565b91506120d582612094565b602082019050919050565b600060208201905081810360008301526120f9816120bd565b9050919050565b7f4e487b7100000000000000000000000000000000000000000000000000000000600052601260045260246000fd5b600061213a82611a66565b915061214583611a66565b92508261215557612154612100565b5b828206905092915050565b600061216b82611a66565b915061217683611a66565b92508282101561218957612188611e71565b5b828203905092915050565b7f70616972696e672d6c656e677468732d6661696c656400000000000000000000600082015250565b60006121ca601683611f3f565b91506121d582612194565b602082019050919050565b600060208201905081810360008301526121f9816121bd565b9050919050565b600061220b82611a66565b915061221683611a66565b9250817fffffffffffffffffffffffffffffffffffffffffffffffffffffffffffffffff048311821515161561224f5761224e611e71565b5b828202905092915050565b7f70616972696e672d6f70636f64652d6661696c65640000000000000000000000600082015250565b6000612290601583611f3f565b915061229b8261225a565b602082019050919050565b600060208201905081810360008301526122bf81612283565b905091905056fea26469706673582212209ab714088aef4333f25e1120b5ccbb3aab52f21fc02842d0cb4c145e7568d8a864736f6c634300080a0033",
			"opcodes": "PUSH1 0x80 PUSH1 0x40 MSTORE CALLVALUE DUP1 ISZERO PUSH2 0x10 JUMPI PUSH1 0x0 DUP1 REVERT JUMPDEST POP PUSH2 0x22FC DUP1 PUSH2 0x20 PUSH1 0x0 CODECOPY PUSH1 0x0 RETURN INVALID PUSH1 0x80 PUSH1 0x40 MSTORE CALLVALUE DUP1 ISZERO PUSH2 0x10 JUMPI PUSH1 0x0 DUP1 REVERT JUMPDEST POP PUSH1 0x4 CALLDATASIZE LT PUSH2 0x36 JUMPI PUSH1 0x0 CALLDATALOAD PUSH1 0xE0 SHR DUP1 PUSH4 0x6996EE66 EQ PUSH2 0x3B JUMPI DUP1 PUSH4 0x8EFF8954 EQ PUSH2 0x6B JUMPI JUMPDEST PUSH1 0x0 DUP1 REVERT JUMPDEST PUSH2 0x55 PUSH1 0x4 DUP1 CALLDATASIZE SUB DUP2 ADD SWAP1 PUSH2 0x50 SWAP2 SWAP1 PUSH2 0x1C89 JUMP JUMPDEST PUSH2 0x9B JUMP JUMPDEST PUSH1 0x40 MLOAD PUSH2 0x62 SWAP2 SWAP1 PUSH2 0x1D0D JUMP JUMPDEST PUSH1 0x40 MLOAD DUP1 SWAP2 SUB SWAP1 RETURN JUMPDEST PUSH2 0x85 PUSH1 0x4 DUP1 CALLDATASIZE SUB DUP2 ADD SWAP1 PUSH2 0x80 SWAP2 SWAP1 PUSH2 0x1DD9 JUMP JUMPDEST PUSH2 0x160 JUMP JUMPDEST PUSH1 0x40 MLOAD PUSH2 0x92 SWAP2 SWAP1 PUSH2 0x1D0D JUMP JUMPDEST PUSH1 0x40 MLOAD DUP1 SWAP2 SUB SWAP1 RETURN JUMPDEST PUSH1 0x0 DUP1 PUSH1 0x4 PUSH8 0xFFFFFFFFFFFFFFFF DUP2 GT ISZERO PUSH2 0xB9 JUMPI PUSH2 0xB8 PUSH2 0x19C0 JUMP JUMPDEST JUMPDEST PUSH1 0x40 MLOAD SWAP1 DUP1 DUP3 MSTORE DUP1 PUSH1 0x20 MUL PUSH1 0x20 ADD DUP3 ADD PUSH1 0x40 MSTORE DUP1 ISZERO PUSH2 0xE7 JUMPI DUP2 PUSH1 0x20 ADD PUSH1 0x20 DUP3 MUL DUP1 CALLDATASIZE DUP4 CALLDATACOPY DUP1 DUP3 ADD SWAP2 POP POP SWAP1 POP JUMPDEST POP SWAP1 POP PUSH1 0x0 JUMPDEST PUSH1 0x4 DUP2 LT ISZERO PUSH2 0x140 JUMPI DUP4 DUP2 PUSH1 0x4 DUP2 LT PUSH2 0x109 JUMPI PUSH2 0x108 PUSH2 0x1E42 JUMP JUMPDEST JUMPDEST PUSH1 0x20 MUL ADD MLOAD DUP3 DUP3 DUP2 MLOAD DUP2 LT PUSH2 0x121 JUMPI PUSH2 0x120 PUSH2 0x1E42 JUMP JUMPDEST JUMPDEST PUSH1 0x20 MUL PUSH1 0x20 ADD ADD DUP2 DUP2 MSTORE POP POP DUP1 DUP1 PUSH2 0x138 SWAP1 PUSH2 0x1EA0 JUMP JUMPDEST SWAP2 POP POP PUSH2 0xED JUMP JUMPDEST POP PUSH2 0x155 DUP7 DUP7 DUP7 DUP5 PUSH2 0x150 PUSH2 0x225 JUMP JUMPDEST PUSH2 0x791 JUMP JUMPDEST SWAP2 POP POP SWAP5 SWAP4 POP POP POP POP JUMP JUMPDEST PUSH1 0x0 DUP1 PUSH1 0x3 PUSH8 0xFFFFFFFFFFFFFFFF DUP2 GT ISZERO PUSH2 0x17E JUMPI PUSH2 0x17D PUSH2 0x19C0 JUMP JUMPDEST JUMPDEST PUSH1 0x40 MLOAD SWAP1 DUP1 DUP3 MSTORE DUP1 PUSH1 0x20 MUL PUSH1 0x20 ADD DUP3 ADD PUSH1 0x40 MSTORE DUP1 ISZERO PUSH2 0x1AC JUMPI DUP2 PUSH1 0x20 ADD PUSH1 0x20 DUP3 MUL DUP1 CALLDATASIZE DUP4 CALLDATACOPY DUP1 DUP3 ADD SWAP2 POP POP SWAP1 POP JUMPDEST POP SWAP1 POP PUSH1 0x0 JUMPDEST PUSH1 0x3 DUP2 LT ISZERO PUSH2 0x205 JUMPI DUP4 DUP2 PUSH1 0x3 DUP2 LT PUSH2 0x1CE JUMPI PUSH2 0x1CD PUSH2 0x1E42 JUMP JUMPDEST JUMPDEST PUSH1 0x20 MUL ADD MLOAD DUP3 DUP3 DUP2 MLOAD DUP2 LT PUSH2 0x1E6 JUMPI PUSH2 0x1E5 PUSH2 0x1E42 JUMP JUMPDEST JUMPDEST PUSH1 0x20 MUL PUSH1 0x20 ADD ADD DUP2 DUP2 MSTORE POP POP DUP1 DUP1 PUSH2 0x1FD SWAP1 PUSH2 0x1EA0 JUMP JUMPDEST SWAP2 POP POP PUSH2 0x1B2 JUMP JUMPDEST POP PUSH2 0x21A DUP7 DUP7 DUP7 DUP5 PUSH2 0x215 PUSH2 0x966 JUMP JUMPDEST PUSH2 0x791 JUMP JUMPDEST SWAP2 POP POP SWAP5 SWAP4 POP POP POP POP JUMP JUMPDEST PUSH2 0x22D PUSH2 0x1859 JUMP JUMPDEST PUSH1 0x40 MLOAD DUP1 PUSH1 0x40 ADD PUSH1 0x40 MSTORE DUP1 PUSH32 0x21F5797F5879E80718B00BE8EB08CA5994FDB277D2BB8C2C1B486B70D2681B7C DUP2 MSTORE PUSH1 0x20 ADD PUSH32 0x2AA6A48F4F887A483DEBCD0309B025D297B1D6877399584C81CF411B4AFD416A DUP2 MSTORE POP DUP2 PUSH1 0x0 ADD DUP2 SWAP1 MSTORE POP PUSH1 0x40 MLOAD DUP1 PUSH1 0x40 ADD PUSH1 0x40 MSTORE DUP1 PUSH1 0x40 MLOAD DUP1 PUSH1 0x40 ADD PUSH1 0x40 MSTORE DUP1 PUSH32 0x2253FDFD6CC75B49699BE4D69BF52AA20C781F574953C4666F650467B0DA4B9A DUP2 MSTORE PUSH1 0x20 ADD PUSH32 0x25D70AF7E590B28FCE67EB2439B2469813C0CC14FF9CC7E58A3F7F5ED821C6B5 DUP2 MSTORE POP DUP2 MSTORE PUSH1 0x20 ADD PUSH1 0x40 MLOAD DUP1 PUSH1 0x40 ADD PUSH1 0x40 MSTORE DUP1 PUSH32 0x3BB0866957F88F1433FEFAB392CE569B813EC6730D9415018A39E18C680FCF0 DUP2 MSTORE PUSH1 0x20 ADD PUSH32 0x6A304626E6ECC69C9B30E14A2CF7EDF2BEF8CDCB025B03A8A25D31D43C16B13 DUP2 MSTORE POP DUP2 MSTORE POP DUP2 PUSH1 0x20 ADD DUP2 SWAP1 MSTORE POP PUSH1 0x40 MLOAD DUP1 PUSH1 0x40 ADD PUSH1 0x40 MSTORE DUP1 PUSH1 0x40 MLOAD DUP1 PUSH1 0x40 ADD PUSH1 0x40 MSTORE DUP1 PUSH32 0x198E9393920D483A7260BFB731FB5D25F1AA493335A9E71297E485B7AEF312C2 DUP2 MSTORE PUSH1 0x20 ADD PUSH32 0x1800DEEF121F1E76426A00665E5C4479674322D4F75EDADD46DEBD5CD992F6ED DUP2 MSTORE POP DUP2 MSTORE PUSH1 0x20 ADD PUSH1 0x40 MLOAD DUP1 PUSH1 0x40 ADD PUSH1 0x40 MSTORE DUP1 PUSH32 0x90689D0585FF075EC9E99AD690C3395BC4B313370B38EF355ACDADCD122975B DUP2 MSTORE PUSH1 0x20 ADD PUSH32 0x12C85EA5DB8C6DEB4AAB71808DCB408FE3D1E7690C43D37B4CE6CC0166FA7DAA DUP2 MSTORE POP DUP2 MSTORE POP DUP2 PUSH1 0x40 ADD DUP2 SWAP1 MSTORE POP PUSH1 0x40 MLOAD DUP1 PUSH1 0x40 ADD PUSH1 0x40 MSTORE DUP1 PUSH1 0x40 MLOAD DUP1 PUSH1 0x40 ADD PUSH1 0x40 MSTORE DUP1 PUSH32 0x2EBBA34F8571D0922BEC5BA875F2976478F3FCFB29ABC2140309E0373CC18EF1 DUP2 MSTORE PUSH1 0x20 ADD PUSH32 0x14E5C15F174B3E1537BCED00767B0EB0EB652B774C441032C89AEE9459E0EAB9 DUP2 MSTORE POP DUP2 MSTORE PUSH1 0x20 ADD PUSH1 0x40 MLOAD DUP1 PUSH1 0x40 ADD PUSH1 0x40 MSTORE DUP1 PUSH32 0x1B8122281402C70E5E0CE3C58F0C3F9E99564C821E4DD1BCF5302789694FCC73 DUP2 MSTORE PUSH1 0x20 ADD PUSH32 0x20DA94195CD7236DB0D3362E2A7B890E3B5DC58CD214A623D36AAB7F56F4F818 DUP2 MSTORE POP DUP2 MSTORE POP DUP2 PUSH1 0x60 ADD DUP2 SWAP1 MSTORE POP PUSH1 0x5 PUSH8 0xFFFFFFFFFFFFFFFF DUP2 GT ISZERO PUSH2 0x4F4 JUMPI PUSH2 0x4F3 PUSH2 0x19C0 JUMP JUMPDEST JUMPDEST PUSH1 0x40 MLOAD SWAP1 DUP1 DUP3 MSTORE DUP1 PUSH1 0x20 MUL PUSH1 0x20 ADD DUP3 ADD PUSH1 0x40 MSTORE DUP1 ISZERO PUSH2 0x52D JUMPI DUP2 PUSH1 0x20 ADD JUMPDEST PUSH2 0x51A PUSH2 0x18A0 JUMP JUMPDEST DUP2 MSTORE PUSH1 0x20 ADD SWAP1 PUSH1 0x1 SWAP1 SUB SWAP1 DUP2 PUSH2 0x512 JUMPI SWAP1 POP JUMPDEST POP DUP2 PUSH1 0x80 ADD DUP2 SWAP1 MSTORE POP PUSH1 0x40 MLOAD DUP1 PUSH1 0x40 ADD PUSH1 0x40 MSTORE DUP1 PUSH32 0xE42CB5A56459DE96736FF9B9CFDB5281F4866B8EB0EFFD14557E1581C83DADF DUP2 MSTORE PUSH1 0x20 ADD PUSH32 0xA4DCCE5D7041BCDCC632D54B91A79372A99B61EC54B2F1B6C85084373946C69 DUP2 MSTORE POP DUP2 PUSH1 0x80 ADD MLOAD PUSH1 0x0 DUP2 MLOAD DUP2 LT PUSH2 0x5A3 JUMPI PUSH2 0x5A2 PUSH2 0x1E42 JUMP JUMPDEST JUMPDEST PUSH1 0x20 MUL PUSH1 0x20 ADD ADD DUP2 SWAP1 MSTORE POP PUSH1 0x40 MLOAD DUP1 PUSH1 0x40 ADD PUSH1 0x40 MSTORE DUP1 PUSH32 0x3057A56FB5C5E390CE74006803E49E0D7886C8D78C3DEEEAAD94ED9BF8640CD DUP2 MSTORE PUSH1 0x20 ADD PUSH32 0x3ED7B8020C4642BD77C23012BEA0409C981EE8A13708125A8BB9DFFB40C1431 DUP2 MSTORE POP DUP2 PUSH1 0x80 ADD MLOAD PUSH1 0x1 DUP2 MLOAD DUP2 LT PUSH2 0x61B JUMPI PUSH2 0x61A PUSH2 0x1E42 JUMP JUMPDEST JUMPDEST PUSH1 0x20 MUL PUSH1 0x20 ADD ADD DUP2 SWAP1 MSTORE POP PUSH1 0x40 MLOAD DUP1 PUSH1 0x40 ADD PUSH1 0x40 MSTORE DUP1 PUSH32 0x23E9517B30931C91C1CDF032E21CE83B715AFA1034DDC74991AD926CC6C7310A DUP2 MSTORE PUSH1 0x20 ADD PUSH32 0x1E4C60F32CA8A934082C19145C73708C8B277B78B854BD1158EAD98B768D27BE DUP2 MSTORE POP DUP2 PUSH1 0x80 ADD MLOAD PUSH1 0x2 DUP2 MLOAD DUP2 LT PUSH2 0x693 JUMPI PUSH2 0x692 PUSH2 0x1E42 JUMP JUMPDEST JUMPDEST PUSH1 0x20 MUL PUSH1 0x20 ADD ADD DUP2 SWAP1 MSTORE POP PUSH1 0x40 MLOAD DUP1 PUSH1 0x40 ADD PUSH1 0x40 MSTORE DUP1 PUSH32 0x128234CFE3B6C72A7C4D473CD73552B5F8329783FD49CF972EEE1B16A896C70D DUP2 MSTORE PUSH1 0x20 ADD PUSH32 0x252443E347B48B6727EF60DA6006203DBAFDC03DFE094E71B021463EB42B51EB DUP2 MSTORE POP DUP2 PUSH1 0x80 ADD MLOAD PUSH1 0x3 DUP2 MLOAD DUP2 LT PUSH2 0x70B JUMPI PUSH2 0x70A PUSH2 0x1E42 JUMP JUMPDEST JUMPDEST PUSH1 0x20 MUL PUSH1 0x20 ADD ADD DUP2 SWAP1 MSTORE POP PUSH1 0x40 MLOAD DUP1 PUSH1 0x40 ADD PUSH1 0x40 MSTORE DUP1 PUSH32 0x2E87E9CF61222AE8C99C185B6A0403ED54141C77648E4A586ABA2DE4F19B999D DUP2 MSTORE PUSH1 0x20 ADD PUSH32 0x23E4A1479AC5D91F565EB36177F87978664AACD064CA527FCAF5930463506FCB DUP2 MSTORE POP DUP2 PUSH1 0x80 ADD MLOAD PUSH1 0x4 DUP2 MLOAD DUP2 LT PUSH2 0x783 JUMPI PUSH2 0x782 PUSH2 0x1E42 JUMP JUMPDEST JUMPDEST PUSH1 0x20 MUL PUSH1 0x20 ADD ADD DUP2 SWAP1 MSTORE POP SWAP1 JUMP JUMPDEST PUSH1 0x0 PUSH2 0x79B PUSH2 0x18BA JUMP JUMPDEST PUSH1 0x40 MLOAD DUP1 PUSH1 0x40 ADD PUSH1 0x40 MSTORE DUP1 DUP9 PUSH1 0x0 PUSH1 0x2 DUP2 LT PUSH2 0x7BA JUMPI PUSH2 0x7B9 PUSH2 0x1E42 JUMP JUMPDEST JUMPDEST PUSH1 0x20 MUL ADD MLOAD DUP2 MSTORE PUSH1 0x20 ADD DUP9 PUSH1 0x1 PUSH1 0x2 DUP2 LT PUSH2 0x7D8 JUMPI PUSH2 0x7D7 PUSH2 0x1E42 JUMP JUMPDEST JUMPDEST PUSH1 0x20 MUL ADD MLOAD DUP2 MSTORE POP DUP2 PUSH1 0x0 ADD DUP2 SWAP1 MSTORE POP PUSH1 0x40 MLOAD DUP1 PUSH1 0x40 ADD PUSH1 0x40 MSTORE DUP1 PUSH1 0x40 MLOAD DUP1 PUSH1 0x40 ADD PUSH1 0x40 MSTORE DUP1 DUP10 PUSH1 0x0 PUSH1 0x2 DUP2 LT PUSH2 0x812 JUMPI PUSH2 0x811 PUSH2 0x1E42 JUMP JUMPDEST JUMPDEST PUSH1 0x20 MUL ADD MLOAD PUSH1 0x0 PUSH1 0x2 DUP2 LT PUSH2 0x82A JUMPI PUSH2 0x829 PUSH2 0x1E42 JUMP JUMPDEST JUMPDEST PUSH1 0x20 MUL ADD MLOAD DUP2 MSTORE PUSH1 0x20 ADD DUP10 PUSH1 0x0 PUSH1 0x2 DUP2 LT PUSH2 0x848 JUMPI PUSH2 0x847 PUSH2 0x1E42 JUMP JUMPDEST JUMPDEST PUSH1 0x20 MUL ADD MLOAD PUSH1 0x1 PUSH1 0x2 DUP2 LT PUSH2 0x860 JUMPI PUSH2 0x85F PUSH2 0x1E42 JUMP JUMPDEST JUMPDEST PUSH1 0x20 MUL ADD MLOAD DUP2 MSTORE POP DUP2 MSTORE PUSH1 0x20 ADD PUSH1 0x40 MLOAD DUP1 PUSH1 0x40 ADD PUSH1 0x40 MSTORE DUP1 DUP10 PUSH1 0x1 PUSH1 0x2 DUP2 LT PUSH2 0x88C JUMPI PUSH2 0x88B PUSH2 0x1E42 JUMP JUMPDEST JUMPDEST PUSH1 0x20 MUL ADD MLOAD PUSH1 0x0 PUSH1 0x2 DUP2 LT PUSH2 0x8A4 JUMPI PUSH2 0x8A3 PUSH2 0x1E42 JUMP JUMPDEST JUMPDEST PUSH1 0x20 MUL ADD MLOAD DUP2 MSTORE PUSH1 0x20 ADD DUP10 PUSH1 0x1 PUSH1 0x2 DUP2 LT PUSH2 0x8C2 JUMPI PUSH2 0x8C1 PUSH2 0x1E42 JUMP JUMPDEST JUMPDEST PUSH1 0x20 MUL ADD MLOAD PUSH1 0x1 PUSH1 0x2 DUP2 LT PUSH2 0x8DA JUMPI PUSH2 0x8D9 PUSH2 0x1E42 JUMP JUMPDEST JUMPDEST PUSH1 0x20 MUL ADD MLOAD DUP2 MSTORE POP DUP2 MSTORE POP DUP2 PUSH1 0x20 ADD DUP2 SWAP1 MSTORE POP PUSH1 0x40 MLOAD DUP1 PUSH1 0x40 ADD PUSH1 0x40 MSTORE DUP1 DUP7 PUSH1 0x0 PUSH1 0x2 DUP2 LT PUSH2 0x90C JUMPI PUSH2 0x90B PUSH2 0x1E42 JUMP JUMPDEST JUMPDEST PUSH1 0x20 MUL ADD MLOAD DUP2 MSTORE PUSH1 0x20 ADD DUP7 PUSH1 0x1 PUSH1 0x2 DUP2 LT PUSH2 0x92A JUMPI PUSH2 0x929 PUSH2 0x1E42 JUMP JUMPDEST JUMPDEST PUSH1 0x20 MUL ADD MLOAD DUP2 MSTORE POP DUP2 PUSH1 0x40 ADD DUP2 SWAP1 MSTORE POP PUSH1 0x0 PUSH2 0x947 DUP6 DUP4 DUP7 PUSH2 0xE5A JUMP JUMPDEST EQ ISZERO PUSH2 0x957 JUMPI PUSH1 0x1 SWAP2 POP POP PUSH2 0x95D JUMP JUMPDEST PUSH1 0x0 SWAP2 POP POP JUMPDEST SWAP6 SWAP5 POP POP POP POP POP JUMP JUMPDEST PUSH2 0x96E PUSH2 0x1859 JUMP JUMPDEST PUSH1 0x40 MLOAD DUP1 PUSH1 0x40 ADD PUSH1 0x40 MSTORE DUP1 PUSH32 0x20957FC3962E7B252BF2F69D922297D900DEBC309FFDA4C934945FD9372D59A2 DUP2 MSTORE PUSH1 0x20 ADD PUSH32 0x226A51D30C2E38A67E56C346EB00FDF5E7EBA783E941ED8EA3542063F0AF0918 DUP2 MSTORE POP DUP2 PUSH1 0x0 ADD DUP2 SWAP1 MSTORE POP PUSH1 0x40 MLOAD DUP1 PUSH1 0x40 ADD PUSH1 0x40 MSTORE DUP1 PUSH1 0x40 MLOAD DUP1 PUSH1 0x40 ADD PUSH1 0x40 MSTORE DUP1 PUSH32 0x25F2A3DA1C2D9E851C5671B01CCAEE74279821ED113B6933E61357800438CFC5 DUP2 MSTORE PUSH1 0x20 ADD PUSH32 0x9B2CB0340D953379A26F716DA7F4B5D1C5505F1D442547D860FCFEDF6488502 DUP2 MSTORE POP DUP2 MSTORE PUSH1 0x20 ADD PUSH1 0x40 MLOAD DUP1 PUSH1 0x40 ADD PUSH1 0x40 MSTORE DUP1 PUSH32 0x2FE41CED47AD7E9CE1BCCB888B499DA318BD1BCB1D7826C91C4E75601CF844AB DUP2 MSTORE PUSH1 0x20 ADD PUSH32 0xBF3C52E7F3C0F3F82DDD07335DE8BCFAE7A3C89A4D63D97FF48209AAD6DE947 DUP2 MSTORE POP DUP2 MSTORE POP DUP2 PUSH1 0x20 ADD DUP2 SWAP1 MSTORE POP PUSH1 0x40 MLOAD DUP1 PUSH1 0x40 ADD PUSH1 0x40 MSTORE DUP1 PUSH1 0x40 MLOAD DUP1 PUSH1 0x40 ADD PUSH1 0x40 MSTORE DUP1 PUSH32 0x198E9393920D483A7260BFB731FB5D25F1AA493335A9E71297E485B7AEF312C2 DUP2 MSTORE PUSH1 0x20 ADD PUSH32 0x1800DEEF121F1E76426A00665E5C4479674322D4F75EDADD46DEBD5CD992F6ED DUP2 MSTORE POP DUP2 MSTORE PUSH1 0x20 ADD PUSH1 0x40 MLOAD DUP1 PUSH1 0x40 ADD PUSH1 0x40 MSTORE DUP1 PUSH32 0x90689D0585FF075EC9E99AD690C3395BC4B313370B38EF355ACDADCD122975B DUP2 MSTORE PUSH1 0x20 ADD PUSH32 0x12C85EA5DB8C6DEB4AAB71808DCB408FE3D1E7690C43D37B4CE6CC0166FA7DAA DUP2 MSTORE POP DUP2 MSTORE POP DUP2 PUSH1 0x40 ADD DUP2 SWAP1 MSTORE POP PUSH1 0x40 MLOAD DUP1 PUSH1 0x40 ADD PUSH1 0x40 MSTORE DUP1 PUSH1 0x40 MLOAD DUP1 PUSH1 0x40 ADD PUSH1 0x40 MSTORE DUP1 PUSH32 0x2082DC7B3CC3C71639D3BA5AC45C20D92CF9EC107AA97E9142A519532E121BFD DUP2 MSTORE PUSH1 0x20 ADD PUSH32 0x2BC5891B81EB8E1B0F811792A1D6F2641523EB3DB7C981AE3EB32556DEA330E5 DUP2 MSTORE POP DUP2 MSTORE PUSH1 0x20 ADD PUSH1 0x40 MLOAD DUP1 PUSH1 0x40 ADD PUSH1 0x40 MSTORE DUP1 PUSH32 0x1493E044FA2B0FE124ACAAA22E5523F56807926C98EC4A85E48C5193B0C907E3 DUP2 MSTORE PUSH1 0x20 ADD PUSH32 0x2A113FBD289739BB8EC1F9947390A20AB4965E4CBAD150330DB90E94DA7E98D0 DUP2 MSTORE POP DUP2 MSTORE POP DUP2 PUSH1 0x60 ADD DUP2 SWAP1 MSTORE POP PUSH1 0x4 PUSH8 0xFFFFFFFFFFFFFFFF DUP2 GT ISZERO PUSH2 0xC35 JUMPI PUSH2 0xC34 PUSH2 0x19C0 JUMP JUMPDEST JUMPDEST PUSH1 0x40 MLOAD SWAP1 DUP1 DUP3 MSTORE DUP1 PUSH1 0x20 MUL PUSH1 0x20 ADD DUP3 ADD PUSH1 0x40 MSTORE DUP1 ISZERO PUSH2 0xC6E JUMPI DUP2 PUSH1 0x20 ADD JUMPDEST PUSH2 0xC5B PUSH2 0x18A0 JUMP JUMPDEST DUP2 MSTORE PUSH1 0x20 ADD SWAP1 PUSH1 0x1 SWAP1 SUB SWAP1 DUP2 PUSH2 0xC53 JUMPI SWAP1 POP JUMPDEST POP DUP2 PUSH1 0x80 ADD DUP2 SWAP1 MSTORE POP PUSH1 0x40 MLOAD DUP1 PUSH1 0x40 ADD PUSH1 0x40 MSTORE DUP1 PUSH32 0x2EF8E39975480D0BD7A2D905A60C00501F76BD8B5D976E042EDCA261C332C814 DUP2 MSTORE PUSH1 0x20 ADD PUSH32 0x7CBFC1A34E7CEB36F296C5EAB744CDA9EF2C913A4061B9FBE91587A4198CAC2 DUP2 MSTORE POP DUP2 PUSH1 0x80 ADD MLOAD PUSH1 0x0 DUP2 MLOAD DUP2 LT PUSH2 0xCE4 JUMPI PUSH2 0xCE3 PUSH2 0x1E42 JUMP JUMPDEST JUMPDEST PUSH1 0x20 MUL PUSH1 0x20 ADD ADD DUP2 SWAP1 MSTORE POP PUSH1 0x40 MLOAD DUP1 PUSH1 0x40 ADD PUSH1 0x40 MSTORE DUP1 PUSH32 0x2C150E53378AD000D88B869C107239E3AFD833383EF59620732AA42D71BD15E4 DUP2 MSTORE PUSH1 0x20 ADD PUSH32 0x1D66BB4DEC51764956C9B11C93004D7F1B3B4070A850FAEF970DB190B2328F4C DUP2 MSTORE POP DUP2 PUSH1 0x80 ADD MLOAD PUSH1 0x1 DUP2 MLOAD DUP2 LT PUSH2 0xD5C JUMPI PUSH2 0xD5B PUSH2 0x1E42 JUMP JUMPDEST JUMPDEST PUSH1 0x20 MUL PUSH1 0x20 ADD ADD DUP2 SWAP1 MSTORE POP PUSH1 0x40 MLOAD DUP1 PUSH1 0x40 ADD PUSH1 0x40 MSTORE DUP1 PUSH32 0x302E1597BAC6A2203828DCAC7DB62BE243C33D52AD94CFA8A0244DA4175B6736 DUP2 MSTORE PUSH1 0x20 ADD PUSH32 0x15A437E1E7207018FF8C82F97796B0D72A0B6F6FDC41CA46F91F2857F965DA4E DUP2 MSTORE POP DUP2 PUSH1 0x80 ADD MLOAD PUSH1 0x2 DUP2 MLOAD DUP2 LT PUSH2 0xDD4 JUMPI PUSH2 0xDD3 PUSH2 0x1E42 JUMP JUMPDEST JUMPDEST PUSH1 0x20 MUL PUSH1 0x20 ADD ADD DUP2 SWAP1 MSTORE POP PUSH1 0x40 MLOAD DUP1 PUSH1 0x40 ADD PUSH1 0x40 MSTORE DUP1 PUSH32 0x5EF75C92F7F28E6CE5E233A2EDB20DC25C958392B3C0049B1B894C9C404BDB7 DUP2 MSTORE PUSH1 0x20 ADD PUSH32 0x8E6FC9A2B2B800A9E474C6CA8CF0F2D543A90E6A501A9FA0A2FFA37F989096E DUP2 MSTORE POP DUP2 PUSH1 0x80 ADD MLOAD PUSH1 0x3 DUP2 MLOAD DUP2 LT PUSH2 0xE4C JUMPI PUSH2 0xE4B PUSH2 0x1E42 JUMP JUMPDEST JUMPDEST PUSH1 0x20 MUL PUSH1 0x20 ADD ADD DUP2 SWAP1 MSTORE POP SWAP1 JUMP JUMPDEST PUSH1 0x0 DUP1 PUSH32 0x30644E72E131A029B85045B68181585D2833E84879B9709143E1F593F0000001 SWAP1 POP DUP3 PUSH1 0x80 ADD MLOAD MLOAD PUSH1 0x1 DUP7 MLOAD PUSH2 0xE94 SWAP2 SWAP1 PUSH2 0x1EE9 JUMP JUMPDEST EQ PUSH2 0xED4 JUMPI PUSH1 0x40 MLOAD PUSH32 0x8C379A000000000000000000000000000000000000000000000000000000000 DUP2 MSTORE PUSH1 0x4 ADD PUSH2 0xECB SWAP1 PUSH2 0x1F9C JUMP JUMPDEST PUSH1 0x40 MLOAD DUP1 SWAP2 SUB SWAP1 REVERT JUMPDEST PUSH1 0x0 PUSH1 0x40 MLOAD DUP1 PUSH1 0x40 ADD PUSH1 0x40 MSTORE DUP1 PUSH1 0x0 DUP2 MSTORE PUSH1 0x20 ADD PUSH1 0x0 DUP2 MSTORE POP SWAP1 POP PUSH1 0x0 JUMPDEST DUP7 MLOAD DUP2 LT ISZERO PUSH2 0xFC3 JUMPI DUP3 DUP8 DUP3 DUP2 MLOAD DUP2 LT PUSH2 0xF0F JUMPI PUSH2 0xF0E PUSH2 0x1E42 JUMP JUMPDEST JUMPDEST PUSH1 0x20 MUL PUSH1 0x20 ADD ADD MLOAD LT PUSH2 0xF57 JUMPI PUSH1 0x40 MLOAD PUSH32 0x8C379A000000000000000000000000000000000000000000000000000000000 DUP2 MSTORE PUSH1 0x4 ADD PUSH2 0xF4E SWAP1 PUSH2 0x2008 JUMP JUMPDEST PUSH1 0x40 MLOAD DUP1 SWAP2 SUB SWAP1 REVERT JUMPDEST PUSH2 0xFAE DUP3 PUSH2 0xFA9 DUP8 PUSH1 0x80 ADD MLOAD PUSH1 0x1 DUP6 PUSH2 0xF70 SWAP2 SWAP1 PUSH2 0x1EE9 JUMP JUMPDEST DUP2 MLOAD DUP2 LT PUSH2 0xF81 JUMPI PUSH2 0xF80 PUSH2 0x1E42 JUMP JUMPDEST JUMPDEST PUSH1 0x20 MUL PUSH1 0x20 ADD ADD MLOAD DUP11 DUP6 DUP2 MLOAD DUP2 LT PUSH2 0xF9C JUMPI PUSH2 0xF9B PUSH2 0x1E42 JUMP JUMPDEST JUMPDEST PUSH1 0x20 MUL PUSH1 0x20 ADD ADD MLOAD PUSH2 0x1040 JUMP JUMPDEST PUSH2 0x111D JUMP JUMPDEST SWAP2 POP DUP1 DUP1 PUSH2 0xFBB SWAP1 PUSH2 0x1EA0 JUMP JUMPDEST SWAP2 POP POP PUSH2 0xEF2 JUMP JUMPDEST POP PUSH2 0xFED DUP2 DUP6 PUSH1 0x80 ADD MLOAD PUSH1 0x0 DUP2 MLOAD DUP2 LT PUSH2 0xFE0 JUMPI PUSH2 0xFDF PUSH2 0x1E42 JUMP JUMPDEST JUMPDEST PUSH1 0x20 MUL PUSH1 0x20 ADD ADD MLOAD PUSH2 0x111D JUMP JUMPDEST SWAP1 POP PUSH2 0x1023 PUSH2 0xFFF DUP7 PUSH1 0x0 ADD MLOAD PUSH2 0x1220 JUMP JUMPDEST DUP7 PUSH1 0x20 ADD MLOAD DUP7 PUSH1 0x0 ADD MLOAD DUP8 PUSH1 0x20 ADD MLOAD DUP6 DUP10 PUSH1 0x40 ADD MLOAD DUP12 PUSH1 0x40 ADD MLOAD DUP12 PUSH1 0x60 ADD MLOAD PUSH2 0x12C5 JUMP JUMPDEST PUSH2 0x1032 JUMPI PUSH1 0x1 SWAP3 POP POP POP PUSH2 0x1039 JUMP JUMPDEST PUSH1 0x0 SWAP3 POP POP POP JUMPDEST SWAP4 SWAP3 POP POP POP JUMP JUMPDEST PUSH2 0x1048 PUSH2 0x18A0 JUMP JUMPDEST PUSH2 0x1050 PUSH2 0x18ED JUMP JUMPDEST DUP4 PUSH1 0x0 ADD MLOAD DUP2 PUSH1 0x0 PUSH1 0x3 DUP2 LT PUSH2 0x1069 JUMPI PUSH2 0x1068 PUSH2 0x1E42 JUMP JUMPDEST JUMPDEST PUSH1 0x20 MUL ADD DUP2 DUP2 MSTORE POP POP DUP4 PUSH1 0x20 ADD MLOAD DUP2 PUSH1 0x1 PUSH1 0x3 DUP2 LT PUSH2 0x108B JUMPI PUSH2 0x108A PUSH2 0x1E42 JUMP JUMPDEST JUMPDEST PUSH1 0x20 MUL ADD DUP2 DUP2 MSTORE POP POP DUP3 DUP2 PUSH1 0x2 PUSH1 0x3 DUP2 LT PUSH2 0x10A9 JUMPI PUSH2 0x10A8 PUSH2 0x1E42 JUMP JUMPDEST JUMPDEST PUSH1 0x20 MUL ADD DUP2 DUP2 MSTORE POP POP PUSH1 0x0 PUSH1 0x60 DUP4 PUSH1 0x80 DUP5 PUSH1 0x7 PUSH2 0x7D0 GAS SUB STATICCALL SWAP1 POP DUP1 PUSH1 0x0 DUP2 EQ PUSH2 0x10D2 JUMPI PUSH2 0x10D4 JUMP JUMPDEST INVALID JUMPDEST POP DUP1 PUSH2 0x1115 JUMPI PUSH1 0x40 MLOAD PUSH32 0x8C379A000000000000000000000000000000000000000000000000000000000 DUP2 MSTORE PUSH1 0x4 ADD PUSH2 0x110C SWAP1 PUSH2 0x2074 JUMP JUMPDEST PUSH1 0x40 MLOAD DUP1 SWAP2 SUB SWAP1 REVERT JUMPDEST POP POP SWAP3 SWAP2 POP POP JUMP JUMPDEST PUSH2 0x1125 PUSH2 0x18A0 JUMP JUMPDEST PUSH2 0x112D PUSH2 0x190F JUMP JUMPDEST DUP4 PUSH1 0x0 ADD MLOAD DUP2 PUSH1 0x0 PUSH1 0x4 DUP2 LT PUSH2 0x1146 JUMPI PUSH2 0x1145 PUSH2 0x1E42 JUMP JUMPDEST JUMPDEST PUSH1 0x20 MUL ADD DUP2 DUP2 MSTORE POP POP DUP4 PUSH1 0x20 ADD MLOAD DUP2 PUSH1 0x1 PUSH1 0x4 DUP2 LT PUSH2 0x1168 JUMPI PUSH2 0x1167 PUSH2 0x1E42 JUMP JUMPDEST JUMPDEST PUSH1 0x20 MUL ADD DUP2 DUP2 MSTORE POP POP DUP3 PUSH1 0x0 ADD MLOAD DUP2 PUSH1 0x2 PUSH1 0x4 DUP2 LT PUSH2 0x118A JUMPI PUSH2 0x1189 PUSH2 0x1E42 JUMP JUMPDEST JUMPDEST PUSH1 0x20 MUL ADD DUP2 DUP2 MSTORE POP POP DUP3 PUSH1 0x20 ADD MLOAD DUP2 PUSH1 0x3 PUSH1 0x4 DUP2 LT PUSH2 0x11AC JUMPI PUSH2 0x11AB PUSH2 0x1E42 JUMP JUMPDEST JUMPDEST PUSH1 0x20 MUL ADD DUP2 DUP2 MSTORE POP POP PUSH1 0x0 PUSH1 0x60 DUP4 PUSH1 0xC0 DUP5 PUSH1 0x6 PUSH2 0x7D0 GAS SUB STATICCALL SWAP1 POP DUP1 PUSH1 0x0 DUP2 EQ PUSH2 0x11D5 JUMPI PUSH2 0x11D7 JUMP JUMPDEST INVALID JUMPDEST POP DUP1 PUSH2 0x1218 JUMPI PUSH1 0x40 MLOAD PUSH32 0x8C379A000000000000000000000000000000000000000000000000000000000 DUP2 MSTORE PUSH1 0x4 ADD PUSH2 0x120F SWAP1 PUSH2 0x20E0 JUMP JUMPDEST PUSH1 0x40 MLOAD DUP1 SWAP2 SUB SWAP1 REVERT JUMPDEST POP POP SWAP3 SWAP2 POP POP JUMP JUMPDEST PUSH2 0x1228 PUSH2 0x18A0 JUMP JUMPDEST PUSH1 0x0 PUSH32 0x30644E72E131A029B85045B68181585D97816A916871CA8D3C208C16D87CFD47 SWAP1 POP PUSH1 0x0 DUP4 PUSH1 0x0 ADD MLOAD EQ DUP1 ISZERO PUSH2 0x1265 JUMPI POP PUSH1 0x0 DUP4 PUSH1 0x20 ADD MLOAD EQ JUMPDEST ISZERO PUSH2 0x1289 JUMPI PUSH1 0x40 MLOAD DUP1 PUSH1 0x40 ADD PUSH1 0x40 MSTORE DUP1 PUSH1 0x0 DUP2 MSTORE PUSH1 0x20 ADD PUSH1 0x0 DUP2 MSTORE POP SWAP2 POP POP PUSH2 0x12C0 JUMP JUMPDEST PUSH1 0x40 MLOAD DUP1 PUSH1 0x40 ADD PUSH1 0x40 MSTORE DUP1 DUP5 PUSH1 0x0 ADD MLOAD DUP2 MSTORE PUSH1 0x20 ADD DUP3 DUP6 PUSH1 0x20 ADD MLOAD PUSH2 0x12AE SWAP2 SWAP1 PUSH2 0x212F JUMP JUMPDEST DUP4 PUSH2 0x12B9 SWAP2 SWAP1 PUSH2 0x2160 JUMP JUMPDEST DUP2 MSTORE POP SWAP2 POP POP JUMPDEST SWAP2 SWAP1 POP JUMP JUMPDEST PUSH1 0x0 DUP1 PUSH1 0x4 PUSH8 0xFFFFFFFFFFFFFFFF DUP2 GT ISZERO PUSH2 0x12E3 JUMPI PUSH2 0x12E2 PUSH2 0x19C0 JUMP JUMPDEST JUMPDEST PUSH1 0x40 MLOAD SWAP1 DUP1 DUP3 MSTORE DUP1 PUSH1 0x20 MUL PUSH1 0x20 ADD DUP3 ADD PUSH1 0x40 MSTORE DUP1 ISZERO PUSH2 0x131C JUMPI DUP2 PUSH1 0x20 ADD JUMPDEST PUSH2 0x1309 PUSH2 0x18A0 JUMP JUMPDEST DUP2 MSTORE PUSH1 0x20 ADD SWAP1 PUSH1 0x1 SWAP1 SUB SWAP1 DUP2 PUSH2 0x1301 JUMPI SWAP1 POP JUMPDEST POP SWAP1 POP PUSH1 0x0 PUSH1 0x4 PUSH8 0xFFFFFFFFFFFFFFFF DUP2 GT ISZERO PUSH2 0x133C JUMPI PUSH2 0x133B PUSH2 0x19C0 JUMP JUMPDEST JUMPDEST PUSH1 0x40 MLOAD SWAP1 DUP1 DUP3 MSTORE DUP1 PUSH1 0x20 MUL PUSH1 0x20 ADD DUP3 ADD PUSH1 0x40 MSTORE DUP1 ISZERO PUSH2 0x1375 JUMPI DUP2 PUSH1 0x20 ADD JUMPDEST PUSH2 0x1362 PUSH2 0x1931 JUMP JUMPDEST DUP2 MSTORE PUSH1 0x20 ADD SWAP1 PUSH1 0x1 SWAP1 SUB SWAP1 DUP2 PUSH2 0x135A JUMPI SWAP1 POP JUMPDEST POP SWAP1 POP DUP11 DUP3 PUSH1 0x0 DUP2 MLOAD DUP2 LT PUSH2 0x138D JUMPI PUSH2 0x138C PUSH2 0x1E42 JUMP JUMPDEST JUMPDEST PUSH1 0x20 MUL PUSH1 0x20 ADD ADD DUP2 SWAP1 MSTORE POP DUP9 DUP3 PUSH1 0x1 DUP2 MLOAD DUP2 LT PUSH2 0x13AD JUMPI PUSH2 0x13AC PUSH2 0x1E42 JUMP JUMPDEST JUMPDEST PUSH1 0x20 MUL PUSH1 0x20 ADD ADD DUP2 SWAP1 MSTORE POP DUP7 DUP3 PUSH1 0x2 DUP2 MLOAD DUP2 LT PUSH2 0x13CD JUMPI PUSH2 0x13CC PUSH2 0x1E42 JUMP JUMPDEST JUMPDEST PUSH1 0x20 MUL PUSH1 0x20 ADD ADD DUP2 SWAP1 MSTORE POP DUP5 DUP3 PUSH1 0x3 DUP2 MLOAD DUP2 LT PUSH2 0x13ED JUMPI PUSH2 0x13EC PUSH2 0x1E42 JUMP JUMPDEST JUMPDEST PUSH1 0x20 MUL PUSH1 0x20 ADD ADD DUP2 SWAP1 MSTORE POP DUP10 DUP2 PUSH1 0x0 DUP2 MLOAD DUP2 LT PUSH2 0x140D JUMPI PUSH2 0x140C PUSH2 0x1E42 JUMP JUMPDEST JUMPDEST PUSH1 0x20 MUL PUSH1 0x20 ADD ADD DUP2 SWAP1 MSTORE POP DUP8 DUP2 PUSH1 0x1 DUP2 MLOAD DUP2 LT PUSH2 0x142D JUMPI PUSH2 0x142C PUSH2 0x1E42 JUMP JUMPDEST JUMPDEST PUSH1 0x20 MUL PUSH1 0x20 ADD ADD DUP2 SWAP1 MSTORE POP DUP6 DUP2 PUSH1 0x2 DUP2 MLOAD DUP2 LT PUSH2 0x144D JUMPI PUSH2 0x144C PUSH2 0x1E42 JUMP JUMPDEST JUMPDEST PUSH1 0x20 MUL PUSH1 0x20 ADD ADD DUP2 SWAP1 MSTORE POP DUP4 DUP2 PUSH1 0x3 DUP2 MLOAD DUP2 LT PUSH2 0x146D JUMPI PUSH2 0x146C PUSH2 0x1E42 JUMP JUMPDEST JUMPDEST PUSH1 0x20 MUL PUSH1 0x20 ADD ADD DUP2 SWAP1 MSTORE POP PUSH2 0x1482 DUP3 DUP3 PUSH2 0x1492 JUMP JUMPDEST SWAP3 POP POP POP SWAP9 SWAP8 POP POP POP POP POP POP POP POP JUMP JUMPDEST PUSH1 0x0 DUP2 MLOAD DUP4 MLOAD EQ PUSH2 0x14D8 JUMPI PUSH1 0x40 MLOAD PUSH32 0x8C379A000000000000000000000000000000000000000000000000000000000 DUP2 MSTORE PUSH1 0x4 ADD PUSH2 0x14CF SWAP1 PUSH2 0x21E0 JUMP JUMPDEST PUSH1 0x40 MLOAD DUP1 SWAP2 SUB SWAP1 REVERT JUMPDEST PUSH1 0x0 DUP4 MLOAD SWAP1 POP PUSH1 0x0 PUSH1 0x6 DUP3 PUSH2 0x14ED SWAP2 SWAP1 PUSH2 0x2200 JUMP JUMPDEST SWAP1 POP PUSH1 0x0 DUP2 PUSH8 0xFFFFFFFFFFFFFFFF DUP2 GT ISZERO PUSH2 0x150B JUMPI PUSH2 0x150A PUSH2 0x19C0 JUMP JUMPDEST JUMPDEST PUSH1 0x40 MLOAD SWAP1 DUP1 DUP3 MSTORE DUP1 PUSH1 0x20 MUL PUSH1 0x20 ADD DUP3 ADD PUSH1 0x40 MSTORE DUP1 ISZERO PUSH2 0x1539 JUMPI DUP2 PUSH1 0x20 ADD PUSH1 0x20 DUP3 MUL DUP1 CALLDATASIZE DUP4 CALLDATACOPY DUP1 DUP3 ADD SWAP2 POP POP SWAP1 POP JUMPDEST POP SWAP1 POP PUSH1 0x0 JUMPDEST DUP4 DUP2 LT ISZERO PUSH2 0x17BE JUMPI DUP7 DUP2 DUP2 MLOAD DUP2 LT PUSH2 0x155A JUMPI PUSH2 0x1559 PUSH2 0x1E42 JUMP JUMPDEST JUMPDEST PUSH1 0x20 MUL PUSH1 0x20 ADD ADD MLOAD PUSH1 0x0 ADD MLOAD DUP3 PUSH1 0x0 PUSH1 0x6 DUP5 PUSH2 0x1576 SWAP2 SWAP1 PUSH2 0x2200 JUMP JUMPDEST PUSH2 0x1580 SWAP2 SWAP1 PUSH2 0x1EE9 JUMP JUMPDEST DUP2 MLOAD DUP2 LT PUSH2 0x1591 JUMPI PUSH2 0x1590 PUSH2 0x1E42 JUMP JUMPDEST JUMPDEST PUSH1 0x20 MUL PUSH1 0x20 ADD ADD DUP2 DUP2 MSTORE POP POP DUP7 DUP2 DUP2 MLOAD DUP2 LT PUSH2 0x15B0 JUMPI PUSH2 0x15AF PUSH2 0x1E42 JUMP JUMPDEST JUMPDEST PUSH1 0x20 MUL PUSH1 0x20 ADD ADD MLOAD PUSH1 0x20 ADD MLOAD DUP3 PUSH1 0x1 PUSH1 0x6 DUP5 PUSH2 0x15CC SWAP2 SWAP1 PUSH2 0x2200 JUMP JUMPDEST PUSH2 0x15D6 SWAP2 SWAP1 PUSH2 0x1EE9 JUMP JUMPDEST DUP2 MLOAD DUP2 LT PUSH2 0x15E7 JUMPI PUSH2 0x15E6 PUSH2 0x1E42 JUMP JUMPDEST JUMPDEST PUSH1 0x20 MUL PUSH1 0x20 ADD ADD DUP2 DUP2 MSTORE POP POP DUP6 DUP2 DUP2 MLOAD DUP2 LT PUSH2 0x1606 JUMPI PUSH2 0x1605 PUSH2 0x1E42 JUMP JUMPDEST JUMPDEST PUSH1 0x20 MUL PUSH1 0x20 ADD ADD MLOAD PUSH1 0x0 ADD MLOAD PUSH1 0x0 PUSH1 0x2 DUP2 LT PUSH2 0x1625 JUMPI PUSH2 0x1624 PUSH2 0x1E42 JUMP JUMPDEST JUMPDEST PUSH1 0x20 MUL ADD MLOAD DUP3 PUSH1 0x2 PUSH1 0x6 DUP5 PUSH2 0x163A SWAP2 SWAP1 PUSH2 0x2200 JUMP JUMPDEST PUSH2 0x1644 SWAP2 SWAP1 PUSH2 0x1EE9 JUMP JUMPDEST DUP2 MLOAD DUP2 LT PUSH2 0x1655 JUMPI PUSH2 0x1654 PUSH2 0x1E42 JUMP JUMPDEST JUMPDEST PUSH1 0x20 MUL PUSH1 0x20 ADD ADD DUP2 DUP2 MSTORE POP POP DUP6 DUP2 DUP2 MLOAD DUP2 LT PUSH2 0x1674 JUMPI PUSH2 0x1673 PUSH2 0x1E42 JUMP JUMPDEST JUMPDEST PUSH1 0x20 MUL PUSH1 0x20 ADD ADD MLOAD PUSH1 0x0 ADD MLOAD PUSH1 0x1 PUSH1 0x2 DUP2 LT PUSH2 0x1693 JUMPI PUSH2 0x1692 PUSH2 0x1E42 JUMP JUMPDEST JUMPDEST PUSH1 0x20 MUL ADD MLOAD DUP3 PUSH1 0x3 PUSH1 0x6 DUP5 PUSH2 0x16A8 SWAP2 SWAP1 PUSH2 0x2200 JUMP JUMPDEST PUSH2 0x16B2 SWAP2 SWAP1 PUSH2 0x1EE9 JUMP JUMPDEST DUP2 MLOAD DUP2 LT PUSH2 0x16C3 JUMPI PUSH2 0x16C2 PUSH2 0x1E42 JUMP JUMPDEST JUMPDEST PUSH1 0x20 MUL PUSH1 0x20 ADD ADD DUP2 DUP2 MSTORE POP POP DUP6 DUP2 DUP2 MLOAD DUP2 LT PUSH2 0x16E2 JUMPI PUSH2 0x16E1 PUSH2 0x1E42 JUMP JUMPDEST JUMPDEST PUSH1 0x20 MUL PUSH1 0x20 ADD ADD MLOAD PUSH1 0x20 ADD MLOAD PUSH1 0x0 PUSH1 0x2 DUP2 LT PUSH2 0x1701 JUMPI PUSH2 0x1700 PUSH2 0x1E42 JUMP JUMPDEST JUMPDEST PUSH1 0x20 MUL ADD MLOAD DUP3 PUSH1 0x4 PUSH1 0x6 DUP5 PUSH2 0x1716 SWAP2 SWAP1 PUSH2 0x2200 JUMP JUMPDEST PUSH2 0x1720 SWAP2 SWAP1 PUSH2 0x1EE9 JUMP JUMPDEST DUP2 MLOAD DUP2 LT PUSH2 0x1731 JUMPI PUSH2 0x1730 PUSH2 0x1E42 JUMP JUMPDEST JUMPDEST PUSH1 0x20 MUL PUSH1 0x20 ADD ADD DUP2 DUP2 MSTORE POP POP DUP6 DUP2 DUP2 MLOAD DUP2 LT PUSH2 0x1750 JUMPI PUSH2 0x174F PUSH2 0x1E42 JUMP JUMPDEST JUMPDEST PUSH1 0x20 MUL PUSH1 0x20 ADD ADD MLOAD PUSH1 0x20 ADD MLOAD PUSH1 0x1 PUSH1 0x2 DUP2 LT PUSH2 0x176F JUMPI PUSH2 0x176E PUSH2 0x1E42 JUMP JUMPDEST JUMPDEST PUSH1 0x20 MUL ADD MLOAD DUP3 PUSH1 0x5 PUSH1 0x6 DUP5 PUSH2 0x1784 SWAP2 SWAP1 PUSH2 0x2200 JUMP JUMPDEST PUSH2 0x178E SWAP2 SWAP1 PUSH2 0x1EE9 JUMP JUMPDEST DUP2 MLOAD DUP2 LT PUSH2 0x179F JUMPI PUSH2 0x179E PUSH2 0x1E42 JUMP JUMPDEST JUMPDEST PUSH1 0x20 MUL PUSH1 0x20 ADD ADD DUP2 DUP2 MSTORE POP POP DUP1 DUP1 PUSH2 0x17B6 SWAP1 PUSH2 0x1EA0 JUMP JUMPDEST SWAP2 POP POP PUSH2 0x153F JUMP JUMPDEST POP PUSH2 0x17C7 PUSH2 0x1957 JUMP JUMPDEST PUSH1 0x0 PUSH1 0x20 DUP3 PUSH1 0x20 DUP7 MUL PUSH1 0x20 DUP7 ADD PUSH1 0x8 PUSH2 0x7D0 GAS SUB STATICCALL SWAP1 POP DUP1 PUSH1 0x0 DUP2 EQ PUSH2 0x17EC JUMPI PUSH2 0x17EE JUMP JUMPDEST INVALID JUMPDEST POP DUP1 PUSH2 0x182F JUMPI PUSH1 0x40 MLOAD PUSH32 0x8C379A000000000000000000000000000000000000000000000000000000000 DUP2 MSTORE PUSH1 0x4 ADD PUSH2 0x1826 SWAP1 PUSH2 0x22A6 JUMP JUMPDEST PUSH1 0x40 MLOAD DUP1 SWAP2 SUB SWAP1 REVERT JUMPDEST PUSH1 0x0 DUP3 PUSH1 0x0 PUSH1 0x1 DUP2 LT PUSH2 0x1845 JUMPI PUSH2 0x1844 PUSH2 0x1E42 JUMP JUMPDEST JUMPDEST PUSH1 0x20 MUL ADD MLOAD EQ ISZERO SWAP6 POP POP POP POP POP POP SWAP3 SWAP2 POP POP JUMP JUMPDEST PUSH1 0x40 MLOAD DUP1 PUSH1 0xA0 ADD PUSH1 0x40 MSTORE DUP1 PUSH2 0x186C PUSH2 0x18A0 JUMP JUMPDEST DUP2 MSTORE PUSH1 0x20 ADD PUSH2 0x1879 PUSH2 0x1931 JUMP JUMPDEST DUP2 MSTORE PUSH1 0x20 ADD PUSH2 0x1886 PUSH2 0x1931 JUMP JUMPDEST DUP2 MSTORE PUSH1 0x20 ADD PUSH2 0x1893 PUSH2 0x1931 JUMP JUMPDEST DUP2 MSTORE PUSH1 0x20 ADD PUSH1 0x60 DUP2 MSTORE POP SWAP1 JUMP JUMPDEST PUSH1 0x40 MLOAD DUP1 PUSH1 0x40 ADD PUSH1 0x40 MSTORE DUP1 PUSH1 0x0 DUP2 MSTORE PUSH1 0x20 ADD PUSH1 0x0 DUP2 MSTORE POP SWAP1 JUMP JUMPDEST PUSH1 0x40 MLOAD DUP1 PUSH1 0x60 ADD PUSH1 0x40 MSTORE DUP1 PUSH2 0x18CD PUSH2 0x18A0 JUMP JUMPDEST DUP2 MSTORE PUSH1 0x20 ADD PUSH2 0x18DA PUSH2 0x1931 JUMP JUMPDEST DUP2 MSTORE PUSH1 0x20 ADD PUSH2 0x18E7 PUSH2 0x18A0 JUMP JUMPDEST DUP2 MSTORE POP SWAP1 JUMP JUMPDEST PUSH1 0x40 MLOAD DUP1 PUSH1 0x60 ADD PUSH1 0x40 MSTORE DUP1 PUSH1 0x3 SWAP1 PUSH1 0x20 DUP3 MUL DUP1 CALLDATASIZE DUP4 CALLDATACOPY DUP1 DUP3 ADD SWAP2 POP POP SWAP1 POP POP SWAP1 JUMP JUMPDEST PUSH1 0x40 MLOAD DUP1 PUSH1 0x80 ADD PUSH1 0x40 MSTORE DUP1 PUSH1 0x4 SWAP1 PUSH1 0x20 DUP3 MUL DUP1 CALLDATASIZE DUP4 CALLDATACOPY DUP1 DUP3 ADD SWAP2 POP POP SWAP1 POP POP SWAP1 JUMP JUMPDEST PUSH1 0x40 MLOAD DUP1 PUSH1 0x40 ADD PUSH1 0x40 MSTORE DUP1 PUSH2 0x1944 PUSH2 0x1979 JUMP JUMPDEST DUP2 MSTORE PUSH1 0x20 ADD PUSH2 0x1951 PUSH2 0x1979 JUMP JUMPDEST DUP2 MSTORE POP SWAP1 JUMP JUMPDEST PUSH1 0x40 MLOAD DUP1 PUSH1 0x20 ADD PUSH1 0x40 MSTORE DUP1 PUSH1 0x1 SWAP1 PUSH1 0x20 DUP3 MUL DUP1 CALLDATASIZE DUP4 CALLDATACOPY DUP1 DUP3 ADD SWAP2 POP POP SWAP1 POP POP SWAP1 JUMP JUMPDEST PUSH1 0x40 MLOAD DUP1 PUSH1 0x40 ADD PUSH1 0x40 MSTORE DUP1 PUSH1 0x2 SWAP1 PUSH1 0x20 DUP3 MUL DUP1 CALLDATASIZE DUP4 CALLDATACOPY DUP1 DUP3 ADD SWAP2 POP POP SWAP1 POP POP SWAP1 JUMP JUMPDEST PUSH1 0x0 PUSH1 0x40 MLOAD SWAP1 POP SWAP1 JUMP JUMPDEST PUSH1 0x0 DUP1 REVERT JUMPDEST PUSH1 0x0 DUP1 REVERT JUMPDEST PUSH1 0x0 PUSH1 0x1F NOT PUSH1 0x1F DUP4 ADD AND SWAP1 POP SWAP2 SWAP1 POP JUMP JUMPDEST PUSH32 0x4E487B7100000000000000000000000000000000000000000000000000000000 PUSH1 0x0 MSTORE PUSH1 0x41 PUSH1 0x4 MSTORE PUSH1 0x24 PUSH1 0x0 REVERT JUMPDEST PUSH2 0x19F8 DUP3 PUSH2 0x19AF JUMP JUMPDEST DUP2 ADD DUP2 DUP2 LT PUSH8 0xFFFFFFFFFFFFFFFF DUP3 GT OR ISZERO PUSH2 0x1A17 JUMPI PUSH2 0x1A16 PUSH2 0x19C0 JUMP JUMPDEST JUMPDEST DUP1 PUSH1 0x40 MSTORE POP POP POP JUMP JUMPDEST PUSH1 0x0 PUSH2 0x1A2A PUSH2 0x199B JUMP JUMPDEST SWAP1 POP PUSH2 0x1A36 DUP3 DUP3 PUSH2 0x19EF JUMP JUMPDEST SWAP2 SWAP1 POP JUMP JUMPDEST PUSH1 0x0 PUSH8 0xFFFFFFFFFFFFFFFF DUP3 GT ISZERO PUSH2 0x1A56 JUMPI PUSH2 0x1A55 PUSH2 0x19C0 JUMP JUMPDEST JUMPDEST PUSH1 0x20 DUP3 MUL SWAP1 POP SWAP2 SWAP1 POP JUMP JUMPDEST PUSH1 0x0 DUP1 REVERT JUMPDEST PUSH1 0x0 DUP2 SWAP1 POP SWAP2 SWAP1 POP JUMP JUMPDEST PUSH2 0x1A79 DUP2 PUSH2 0x1A66 JUMP JUMPDEST DUP2 EQ PUSH2 0x1A84 JUMPI PUSH1 0x0 DUP1 REVERT JUMPDEST POP JUMP JUMPDEST PUSH1 0x0 DUP2 CALLDATALOAD SWAP1 POP PUSH2 0x1A96 DUP2 PUSH2 0x1A70 JUMP JUMPDEST SWAP3 SWAP2 POP POP JUMP JUMPDEST PUSH1 0x0 PUSH2 0x1AAF PUSH2 0x1AAA DUP5 PUSH2 0x1A3B JUMP JUMPDEST PUSH2 0x1A20 JUMP JUMPDEST SWAP1 POP DUP1 PUSH1 0x20 DUP5 MUL DUP4 ADD DUP6 DUP2 GT ISZERO PUSH2 0x1AC9 JUMPI PUSH2 0x1AC8 PUSH2 0x1A61 JUMP JUMPDEST JUMPDEST DUP4 JUMPDEST DUP2 DUP2 LT ISZERO PUSH2 0x1AF2 JUMPI DUP1 PUSH2 0x1ADE DUP9 DUP3 PUSH2 0x1A87 JUMP JUMPDEST DUP5 MSTORE PUSH1 0x20 DUP5 ADD SWAP4 POP POP PUSH1 0x20 DUP2 ADD SWAP1 POP PUSH2 0x1ACB JUMP JUMPDEST POP POP POP SWAP4 SWAP3 POP POP POP JUMP JUMPDEST PUSH1 0x0 DUP3 PUSH1 0x1F DUP4 ADD SLT PUSH2 0x1B11 JUMPI PUSH2 0x1B10 PUSH2 0x19AA JUMP JUMPDEST JUMPDEST PUSH1 0x2 PUSH2 0x1B1E DUP5 DUP3 DUP6 PUSH2 0x1A9C JUMP JUMPDEST SWAP2 POP POP SWAP3 SWAP2 POP POP JUMP JUMPDEST PUSH1 0x0 PUSH8 0xFFFFFFFFFFFFFFFF DUP3 GT ISZERO PUSH2 0x1B42 JUMPI PUSH2 0x1B41 PUSH2 0x19C0 JUMP JUMPDEST JUMPDEST PUSH1 0x20 DUP3 MUL SWAP1 POP SWAP2 SWAP1 POP JUMP JUMPDEST PUSH1 0x0 PUSH2 0x1B60 PUSH2 0x1B5B DUP5 PUSH2 0x1B27 JUMP JUMPDEST PUSH2 0x1A20 JUMP JUMPDEST SWAP1 POP DUP1 PUSH1 0x40 DUP5 MUL DUP4 ADD DUP6 DUP2 GT ISZERO PUSH2 0x1B7A JUMPI PUSH2 0x1B79 PUSH2 0x1A61 JUMP JUMPDEST JUMPDEST DUP4 JUMPDEST DUP2 DUP2 LT ISZERO PUSH2 0x1BA3 JUMPI DUP1 PUSH2 0x1B8F DUP9 DUP3 PUSH2 0x1AFC JUMP JUMPDEST DUP5 MSTORE PUSH1 0x20 DUP5 ADD SWAP4 POP POP PUSH1 0x40 DUP2 ADD SWAP1 POP PUSH2 0x1B7C JUMP JUMPDEST POP POP POP SWAP4 SWAP3 POP POP POP JUMP JUMPDEST PUSH1 0x0 DUP3 PUSH1 0x1F DUP4 ADD SLT PUSH2 0x1BC2 JUMPI PUSH2 0x1BC1 PUSH2 0x19AA JUMP JUMPDEST JUMPDEST PUSH1 0x2 PUSH2 0x1BCF DUP5 DUP3 DUP6 PUSH2 0x1B4D JUMP JUMPDEST SWAP2 POP POP SWAP3 SWAP2 POP POP JUMP JUMPDEST PUSH1 0x0 PUSH8 0xFFFFFFFFFFFFFFFF DUP3 GT ISZERO PUSH2 0x1BF3 JUMPI PUSH2 0x1BF2 PUSH2 0x19C0 JUMP JUMPDEST JUMPDEST PUSH1 0x20 DUP3 MUL SWAP1 POP SWAP2 SWAP1 POP JUMP JUMPDEST PUSH1 0x0 PUSH2 0x1C11 PUSH2 0x1C0C DUP5 PUSH2 0x1BD8 JUMP JUMPDEST PUSH2 0x1A20 JUMP JUMPDEST SWAP1 POP DUP1 PUSH1 0x20 DUP5 MUL DUP4 ADD DUP6 DUP2 GT ISZERO PUSH2 0x1C2B JUMPI PUSH2 0x1C2A PUSH2 0x1A61 JUMP JUMPDEST JUMPDEST DUP4 JUMPDEST DUP2 DUP2 LT ISZERO PUSH2 0x1C54 JUMPI DUP1 PUSH2 0x1C40 DUP9 DUP3 PUSH2 0x1A87 JUMP JUMPDEST DUP5 MSTORE PUSH1 0x20 DUP5 ADD SWAP4 POP POP PUSH1 0x20 DUP2 ADD SWAP1 POP PUSH2 0x1C2D JUMP JUMPDEST POP POP POP SWAP4 SWAP3 POP POP POP JUMP JUMPDEST PUSH1 0x0 DUP3 PUSH1 0x1F DUP4 ADD SLT PUSH2 0x1C73 JUMPI PUSH2 0x1C72 PUSH2 0x19AA JUMP JUMPDEST JUMPDEST PUSH1 0x4 PUSH2 0x1C80 DUP5 DUP3 DUP6 PUSH2 0x1BFE JUMP JUMPDEST SWAP2 POP POP SWAP3 SWAP2 POP POP JUMP JUMPDEST PUSH1 0x0 DUP1 PUSH1 0x0 DUP1 PUSH2 0x180 DUP6 DUP8 SUB SLT ISZERO PUSH2 0x1CA4 JUMPI PUSH2 0x1CA3 PUSH2 0x19A5 JUMP JUMPDEST JUMPDEST PUSH1 0x0 PUSH2 0x1CB2 DUP8 DUP3 DUP9 ADD PUSH2 0x1AFC JUMP JUMPDEST SWAP5 POP POP PUSH1 0x40 PUSH2 0x1CC3 DUP8 DUP3 DUP9 ADD PUSH2 0x1BAD JUMP JUMPDEST SWAP4 POP POP PUSH1 0xC0 PUSH2 0x1CD4 DUP8 DUP3 DUP9 ADD PUSH2 0x1AFC JUMP JUMPDEST SWAP3 POP POP PUSH2 0x100 PUSH2 0x1CE6 DUP8 DUP3 DUP9 ADD PUSH2 0x1C5E JUMP JUMPDEST SWAP2 POP POP SWAP3 SWAP6 SWAP2 SWAP5 POP SWAP3 POP JUMP JUMPDEST PUSH1 0x0 DUP2 ISZERO ISZERO SWAP1 POP SWAP2 SWAP1 POP JUMP JUMPDEST PUSH2 0x1D07 DUP2 PUSH2 0x1CF2 JUMP JUMPDEST DUP3 MSTORE POP POP JUMP JUMPDEST PUSH1 0x0 PUSH1 0x20 DUP3 ADD SWAP1 POP PUSH2 0x1D22 PUSH1 0x0 DUP4 ADD DUP5 PUSH2 0x1CFE JUMP JUMPDEST SWAP3 SWAP2 POP POP JUMP JUMPDEST PUSH1 0x0 PUSH8 0xFFFFFFFFFFFFFFFF DUP3 GT ISZERO PUSH2 0x1D43 JUMPI PUSH2 0x1D42 PUSH2 0x19C0 JUMP JUMPDEST JUMPDEST PUSH1 0x20 DUP3 MUL SWAP1 POP SWAP2 SWAP1 POP JUMP JUMPDEST PUSH1 0x0 PUSH2 0x1D61 PUSH2 0x1D5C DUP5 PUSH2 0x1D28 JUMP JUMPDEST PUSH2 0x1A20 JUMP JUMPDEST SWAP1 POP DUP1 PUSH1 0x20 DUP5 MUL DUP4 ADD DUP6 DUP2 GT ISZERO PUSH2 0x1D7B JUMPI PUSH2 0x1D7A PUSH2 0x1A61 JUMP JUMPDEST JUMPDEST DUP4 JUMPDEST DUP2 DUP2 LT ISZERO PUSH2 0x1DA4 JUMPI DUP1 PUSH2 0x1D90 DUP9 DUP3 PUSH2 0x1A87 JUMP JUMPDEST DUP5 MSTORE PUSH1 0x20 DUP5 ADD SWAP4 POP POP PUSH1 0x20 DUP2 ADD SWAP1 POP PUSH2 0x1D7D JUMP JUMPDEST POP POP POP SWAP4 SWAP3 POP POP POP JUMP JUMPDEST PUSH1 0x0 DUP3 PUSH1 0x1F DUP4 ADD SLT PUSH2 0x1DC3 JUMPI PUSH2 0x1DC2 PUSH2 0x19AA JUMP JUMPDEST JUMPDEST PUSH1 0x3 PUSH2 0x1DD0 DUP5 DUP3 DUP6 PUSH2 0x1D4E JUMP JUMPDEST SWAP2 POP POP SWAP3 SWAP2 POP POP JUMP JUMPDEST PUSH1 0x0 DUP1 PUSH1 0x0 DUP1 PUSH2 0x160 DUP6 DUP8 SUB SLT ISZERO PUSH2 0x1DF4 JUMPI PUSH2 0x1DF3 PUSH2 0x19A5 JUMP JUMPDEST JUMPDEST PUSH1 0x0 PUSH2 0x1E02 DUP8 DUP3 DUP9 ADD PUSH2 0x1AFC JUMP JUMPDEST SWAP5 POP POP PUSH1 0x40 PUSH2 0x1E13 DUP8 DUP3 DUP9 ADD PUSH2 0x1BAD JUMP JUMPDEST SWAP4 POP POP PUSH1 0xC0 PUSH2 0x1E24 DUP8 DUP3 DUP9 ADD PUSH2 0x1AFC JUMP JUMPDEST SWAP3 POP POP PUSH2 0x100 PUSH2 0x1E36 DUP8 DUP3 DUP9 ADD PUSH2 0x1DAE JUMP JUMPDEST SWAP2 POP POP SWAP3 SWAP6 SWAP2 SWAP5 POP SWAP3 POP JUMP JUMPDEST PUSH32 0x4E487B7100000000000000000000000000000000000000000000000000000000 PUSH1 0x0 MSTORE PUSH1 0x32 PUSH1 0x4 MSTORE PUSH1 0x24 PUSH1 0x0 REVERT JUMPDEST PUSH32 0x4E487B7100000000000000000000000000000000000000000000000000000000 PUSH1 0x0 MSTORE PUSH1 0x11 PUSH1 0x4 MSTORE PUSH1 0x24 PUSH1 0x0 REVERT JUMPDEST PUSH1 0x0 PUSH2 0x1EAB DUP3 PUSH2 0x1A66 JUMP JUMPDEST SWAP2 POP PUSH32 0xFFFFFFFFFFFFFFFFFFFFFFFFFFFFFFFFFFFFFFFFFFFFFFFFFFFFFFFFFFFFFFFF DUP3 EQ ISZERO PUSH2 0x1EDE JUMPI PUSH2 0x1EDD PUSH2 0x1E71 JUMP JUMPDEST JUMPDEST PUSH1 0x1 DUP3 ADD SWAP1 POP SWAP2 SWAP1 POP JUMP JUMPDEST PUSH1 0x0 PUSH2 0x1EF4 DUP3 PUSH2 0x1A66 JUMP JUMPDEST SWAP2 POP PUSH2 0x1EFF DUP4 PUSH2 0x1A66 JUMP JUMPDEST SWAP3 POP DUP3 PUSH32 0xFFFFFFFFFFFFFFFFFFFFFFFFFFFFFFFFFFFFFFFFFFFFFFFFFFFFFFFFFFFFFFFF SUB DUP3 GT ISZERO PUSH2 0x1F34 JUMPI PUSH2 0x1F33 PUSH2 0x1E71 JUMP JUMPDEST JUMPDEST DUP3 DUP3 ADD SWAP1 POP SWAP3 SWAP2 POP POP JUMP JUMPDEST PUSH1 0x0 DUP3 DUP3 MSTORE PUSH1 0x20 DUP3 ADD SWAP1 POP SWAP3 SWAP2 POP POP JUMP JUMPDEST PUSH32 0x76657269666965722D6261642D696E7075740000000000000000000000000000 PUSH1 0x0 DUP3 ADD MSTORE POP JUMP JUMPDEST PUSH1 0x0 PUSH2 0x1F86 PUSH1 0x12 DUP4 PUSH2 0x1F3F JUMP JUMPDEST SWAP2 POP PUSH2 0x1F91 DUP3 PUSH2 0x1F50 JUMP JUMPDEST PUSH1 0x20 DUP3 ADD SWAP1 POP SWAP2 SWAP1 POP JUMP JUMPDEST PUSH1 0x0 PUSH1 0x20 DUP3 ADD SWAP1 POP DUP2 DUP2 SUB PUSH1 0x0 DUP4 ADD MSTORE PUSH2 0x1FB5 DUP2 PUSH2 0x1F79 JUMP JUMPDEST SWAP1 POP SWAP2 SWAP1 POP JUMP JUMPDEST PUSH32 0x76657269666965722D6774652D736E61726B2D7363616C61722D6669656C6400 PUSH1 0x0 DUP3 ADD MSTORE POP JUMP JUMPDEST PUSH1 0x0 PUSH2 0x1FF2 PUSH1 0x1F DUP4 PUSH2 0x1F3F JUMP JUMPDEST SWAP2 POP PUSH2 0x1FFD DUP3 PUSH2 0x1FBC JUMP JUMPDEST PUSH1 0x20 DUP3 ADD SWAP1 POP SWAP2 SWAP1 POP JUMP JUMPDEST PUSH1 0x0 PUSH1 0x20 DUP3 ADD SWAP1 POP DUP2 DUP2 SUB PUSH1 0x0 DUP4 ADD MSTORE PUSH2 0x2021 DUP2 PUSH2 0x1FE5 JUMP JUMPDEST SWAP1 POP SWAP2 SWAP1 POP JUMP JUMPDEST PUSH32 0x70616972696E672D6D756C2D6661696C65640000000000000000000000000000 PUSH1 0x0 DUP3 ADD MSTORE POP JUMP JUMPDEST PUSH1 0x0 PUSH2 0x205E PUSH1 0x12 DUP4 PUSH2 0x1F3F JUMP JUMPDEST SWAP2 POP PUSH2 0x2069 DUP3 PUSH2 0x2028 JUMP JUMPDEST PUSH1 0x20 DUP3 ADD SWAP1 POP SWAP2 SWAP1 POP JUMP JUMPDEST PUSH1 0x0 PUSH1 0x20 DUP3 ADD SWAP1 POP DUP2 DUP2 SUB PUSH1 0x0 DUP4 ADD MSTORE PUSH2 0x208D DUP2 PUSH2 0x2051 JUMP JUMPDEST SWAP1 POP SWAP2 SWAP1 POP JUMP JUMPDEST PUSH32 0x70616972696E672D6164642D6661696C65640000000000000000000000000000 PUSH1 0x0 DUP3 ADD MSTORE POP JUMP JUMPDEST PUSH1 0x0 PUSH2 0x20CA PUSH1 0x12 DUP4 PUSH2 0x1F3F JUMP JUMPDEST SWAP2 POP PUSH2 0x20D5 DUP3 PUSH2 0x2094 JUMP JUMPDEST PUSH1 0x20 DUP3 ADD SWAP1 POP SWAP2 SWAP1 POP JUMP JUMPDEST PUSH1 0x0 PUSH1 0x20 DUP3 ADD SWAP1 POP DUP2 DUP2 SUB PUSH1 0x0 DUP4 ADD MSTORE PUSH2 0x20F9 DUP2 PUSH2 0x20BD JUMP JUMPDEST SWAP1 POP SWAP2 SWAP1 POP JUMP JUMPDEST PUSH32 0x4E487B7100000000000000000000000000000000000000000000000000000000 PUSH1 0x0 MSTORE PUSH1 0x12 PUSH1 0x4 MSTORE PUSH1 0x24 PUSH1 0x0 REVERT JUMPDEST PUSH1 0x0 PUSH2 0x213A DUP3 PUSH2 0x1A66 JUMP JUMPDEST SWAP2 POP PUSH2 0x2145 DUP4 PUSH2 0x1A66 JUMP JUMPDEST SWAP3 POP DUP3 PUSH2 0x2155 JUMPI PUSH2 0x2154 PUSH2 0x2100 JUMP JUMPDEST JUMPDEST DUP3 DUP3 MOD SWAP1 POP SWAP3 SWAP2 POP POP JUMP JUMPDEST PUSH1 0x0 PUSH2 0x216B DUP3 PUSH2 0x1A66 JUMP JUMPDEST SWAP2 POP PUSH2 0x2176 DUP4 PUSH2 0x1A66 JUMP JUMPDEST SWAP3 POP DUP3 DUP3 LT ISZERO PUSH2 0x2189 JUMPI PUSH2 0x2188 PUSH2 0x1E71 JUMP JUMPDEST JUMPDEST DUP3 DUP3 SUB SWAP1 POP SWAP3 SWAP2 POP POP JUMP JUMPDEST PUSH32 0x70616972696E672D6C656E677468732D6661696C656400000000000000000000 PUSH1 0x0 DUP3 ADD MSTORE POP JUMP JUMPDEST PUSH1 0x0 PUSH2 0x21CA PUSH1 0x16 DUP4 PUSH2 0x1F3F JUMP JUMPDEST SWAP2 POP PUSH2 0x21D5 DUP3 PUSH2 0x2194 JUMP JUMPDEST PUSH1 0x20 DUP3 ADD SWAP1 POP SWAP2 SWAP1 POP JUMP JUMPDEST PUSH1 0x0 PUSH1 0x20 DUP3 ADD SWAP1 POP DUP2 DUP2 SUB PUSH1 0x0 DUP4 ADD MSTORE PUSH2 0x21F9 DUP2 PUSH2 0x21BD JUMP JUMPDEST SWAP1 POP SWAP2 SWAP1 POP JUMP JUMPDEST PUSH1 0x0 PUSH2 0x220B DUP3 PUSH2 0x1A66 JUMP JUMPDEST SWAP2 POP PUSH2 0x2216 DUP4 PUSH2 0x1A66 JUMP JUMPDEST SWAP3 POP DUP2 PUSH32 0xFFFFFFFFFFFFFFFFFFFFFFFFFFFFFFFFFFFFFFFFFFFFFFFFFFFFFFFFFFFFFFFF DIV DUP4 GT DUP3 ISZERO ISZERO AND ISZERO PUSH2 0x224F JUMPI PUSH2 0x224E PUSH2 0x1E71 JUMP JUMPDEST JUMPDEST DUP3 DUP3 MUL SWAP1 POP SWAP3 SWAP2 POP POP JUMP JUMPDEST PUSH32 0x70616972696E672D6F70636F64652D6661696C65640000000000000000000000 PUSH1 0x0 DUP3 ADD MSTORE POP JUMP JUMPDEST PUSH1 0x0 PUSH2 0x2290 PUSH1 0x15 DUP4 PUSH2 0x1F3F JUMP JUMPDEST SWAP2 POP PUSH2 0x229B DUP3 PUSH2 0x225A JUMP JUMPDEST PUSH1 0x20 DUP3 ADD SWAP1 POP SWAP2 SWAP1 POP JUMP JUMPDEST PUSH1 0x0 PUSH1 0x20 DUP3 ADD SWAP1 POP DUP2 DUP2 SUB PUSH1 0x0 DUP4 ADD MSTORE PUSH2 0x22BF DUP2 PUSH2 0x2283 JUMP JUMPDEST SWAP1 POP SWAP2 SWAP1 POP JUMP INVALID LOG2 PUSH5 0x6970667358 0x22 SLT KECCAK256 SWAP11 0xB7 EQ ADDMOD DUP11 0xEF NUMBER CALLER CALLCODE 0x5E GT KECCAK256 0xB5 0xCC 0xBB GASPRICE 0xAB MSTORE CALLCODE 0x1F 0xC0 0x28 TIMESTAMP 0xD0 0xCB 0x4C EQ 0x5E PUSH22 0x68D8A864736F6C634300080A00330000000000000000 "
		},
		"gasEstimates": {
			"creation": {
				"codeDepositCost": "1791200",
				"executionCost": "1884",
				"totalCost": "1793084"
			},
			"external": {
				"verifyInitProof(uint256[2],uint256[2][2],uint256[2],uint256[3])": "infinite",
				"verifyMoveProof(uint256[2],uint256[2][2],uint256[2],uint256[4])": "infinite"
			},
			"internal": {
				"initVerifyingKey()": "infinite",
				"moveVerifyingKey()": "infinite",
				"verify(uint256[] memory,struct Verifier.Proof memory,struct Verifier.VerifyingKey memory)": "infinite",
				"verifyProof(uint256[2] memory,uint256[2] memory[2] memory,uint256[2] memory,uint256[] memory,struct Verifier.VerifyingKey memory)": "infinite"
			}
		},
		"methodIdentifiers": {
			"verifyInitProof(uint256[2],uint256[2][2],uint256[2],uint256[3])": "8eff8954",
			"verifyMoveProof(uint256[2],uint256[2][2],uint256[2],uint256[4])": "6996ee66"
		}
	},
	"abi": [
		{
			"inputs": [
				{
					"internalType": "uint256[2]",
					"name": "a",
					"type": "uint256[2]"
				},
				{
					"internalType": "uint256[2][2]",
					"name": "b",
					"type": "uint256[2][2]"
				},
				{
					"internalType": "uint256[2]",
					"name": "c",
					"type": "uint256[2]"
				},
				{
					"internalType": "uint256[3]",
					"name": "input",
					"type": "uint256[3]"
				}
			],
			"name": "verifyInitProof",
			"outputs": [
				{
					"internalType": "bool",
					"name": "",
					"type": "bool"
				}
			],
			"stateMutability": "view",
			"type": "function"
		},
		{
			"inputs": [
				{
					"internalType": "uint256[2]",
					"name": "a",
					"type": "uint256[2]"
				},
				{
					"internalType": "uint256[2][2]",
					"name": "b",
					"type": "uint256[2][2]"
				},
				{
					"internalType": "uint256[2]",
					"name": "c",
					"type": "uint256[2]"
				},
				{
					"internalType": "uint256[4]",
					"name": "input",
					"type": "uint256[4]"
				}
			],
			"name": "verifyMoveProof",
			"outputs": [
				{
					"internalType": "bool",
					"name": "",
					"type": "bool"
				}
			],
			"stateMutability": "view",
			"type": "function"
		}
	]
}