{
  "contractName": "DarkBush",
  "abi": [
    {
      "inputs": [
        {
          "internalType": "address",
          "name": "_verifier",
          "type": "address"
        }
      ],
      "stateMutability": "nonpayable",
      "type": "constructor"
    },
    {
      "anonymous": false,
      "inputs": [
        {
          "indexed": false,
          "internalType": "address",
          "name": "player",
          "type": "address"
        },
        {
          "indexed": false,
          "internalType": "uint256",
          "name": "hash",
          "type": "uint256"
        }
      ],
      "name": "Spawned",
      "type": "event"
    },
    {
      "inputs": [
        {
          "internalType": "address",
          "name": "",
          "type": "address"
        }
      ],
      "name": "addressToPlanetId",
      "outputs": [
        {
          "internalType": "uint256",
          "name": "",
          "type": "uint256"
        }
      ],
      "stateMutability": "view",
      "type": "function",
      "constant": true
    },
    {
      "inputs": [
        {
          "internalType": "uint256",
          "name": "",
          "type": "uint256"
        }
      ],
      "name": "planetIds",
      "outputs": [
        {
          "internalType": "uint256",
          "name": "",
          "type": "uint256"
        }
      ],
      "stateMutability": "view",
      "type": "function",
      "constant": true
    },
    {
      "inputs": [
        {
          "internalType": "uint256",
          "name": "",
          "type": "uint256"
        }
      ],
      "name": "planets",
      "outputs": [
        {
          "internalType": "address",
          "name": "owner",
          "type": "address"
        },
        {
          "internalType": "uint256",
          "name": "last_spawn",
          "type": "uint256"
        },
        {
          "internalType": "bool",
          "name": "occupied",
          "type": "bool"
        }
      ],
      "stateMutability": "view",
      "type": "function",
      "constant": true
    },
    {
      "inputs": [
        {
          "internalType": "uint256[2]",
          "name": "_a",
          "type": "uint256[2]"
        },
        {
          "internalType": "uint256[2][2]",
          "name": "_b",
          "type": "uint256[2][2]"
        },
        {
          "internalType": "uint256[2]",
          "name": "_c",
          "type": "uint256[2]"
        },
        {
          "internalType": "uint256[1]",
          "name": "_input",
          "type": "uint256[1]"
        }
      ],
      "name": "spawn",
      "outputs": [
        {
          "internalType": "bool",
          "name": "",
          "type": "bool"
        }
      ],
      "stateMutability": "nonpayable",
      "type": "function"
    },
    {
      "inputs": [],
      "name": "getPlanetId",
      "outputs": [
        {
          "internalType": "uint256",
          "name": "",
          "type": "uint256"
        }
      ],
      "stateMutability": "view",
      "type": "function",
      "constant": true
    },
    {
      "inputs": [],
      "name": "getPlanetIds",
      "outputs": [
        {
          "internalType": "uint256[]",
          "name": "",
          "type": "uint256[]"
        }
      ],
      "stateMutability": "view",
      "type": "function",
      "constant": true
    }
  ],
  "bytecode": "0x60806040523480156200001157600080fd5b5060405162001197380380620011978339818101604052810190620000379190620000e8565b806000806101000a81548173ffffffffffffffffffffffffffffffffffffffff021916908373ffffffffffffffffffffffffffffffffffffffff160217905550506200011a565b600080fd5b600073ffffffffffffffffffffffffffffffffffffffff82169050919050565b6000620000b08262000083565b9050919050565b620000c281620000a3565b8114620000ce57600080fd5b50565b600081519050620000e281620000b7565b92915050565b6000602082840312156200010157620001006200007e565b5b60006200011184828501620000d1565b91505092915050565b61106d806200012a6000396000f3fe608060405234801561001057600080fd5b50600436106100625760003560e01c806326c1e750146100675780635e1768f614610099578063ad489091146100b7578063c713c44a146100e7578063d269a43114610105578063f1f102c414610135575b600080fd5b610081600480360381019061007c919061060b565b610165565b604051610090939291906106a3565b60405180910390f35b6100a16101bc565b6040516100ae91906106da565b60405180910390f35b6100d160048036038101906100cc919061060b565b61024f565b6040516100de91906106da565b60405180910390f35b6100ef610273565b6040516100fc91906107b3565b60405180910390f35b61011f600480360381019061011a9190610a7e565b6102cb565b60405161012c9190610ae7565b60405180910390f35b61014f600480360381019061014a9190610b2e565b6105ae565b60405161015c91906106da565b60405180910390f35b60016020528060005260406000206000915090508060000160009054906101000a900473ffffffffffffffffffffffffffffffffffffffff16908060010154908060020160009054906101000a900460ff16905083565b600080600260003373ffffffffffffffffffffffffffffffffffffffff1673ffffffffffffffffffffffffffffffffffffffff16815260200190815260200160002054141561020a57600080fd5b600260003373ffffffffffffffffffffffffffffffffffffffff1673ffffffffffffffffffffffffffffffffffffffff16815260200190815260200160002054905090565b6003818154811061025f57600080fd5b906000526020600020016000915090505481565b606060038054806020026020016040519081016040528092919081815260200182805480156102c157602002820191906000526020600020905b8154815260200190600101908083116102ad575b5050505050905090565b60008060008054906101000a900473ffffffffffffffffffffffffffffffffffffffff1673ffffffffffffffffffffffffffffffffffffffff166343753b4d878787876040518563ffffffff1660e01b815260040161032d9493929190610d61565b6020604051808303816000875af115801561034c573d6000803e3d6000fd5b505050506040513d601f19601f820116820180604052508101906103709190610dd4565b9050806103b2576040517f08c379a00000000000000000000000000000000000000000000000000000000081526004016103a990610e5e565b60405180910390fd5b600060016000856000600181106103cc576103cb610e7e565b5b60200201518152602001908152602001600020905061012c426103ef9190610edc565b816001015410610434576040517f08c379a000000000000000000000000000000000000000000000000000000000815260040161042b90610f82565b60405180910390fd5b600015158160020160009054906101000a900460ff1615151461048c576040517f08c379a000000000000000000000000000000000000000000000000000000000815260040161048390610fee565b60405180910390fd5b42816001018190555060018160020160006101000a81548160ff021916908315150217905550836000600181106104c6576104c5610e7e565b5b6020020151600260003373ffffffffffffffffffffffffffffffffffffffff1673ffffffffffffffffffffffffffffffffffffffff1681526020019081526020016000208190555060038460006001811061052457610523610e7e565b5b602002015190806001815401808255809150506001900390600052602060002001600090919091909150557f977ae7c7aa24ad0d5170dba549fcbe1d23cc10f12f5dcd5de2eadc25f546ba78338560006001811061058557610584610e7e565b5b602002015160405161059892919061100e565b60405180910390a1600192505050949350505050565b60026020528060005260406000206000915090505481565b6000604051905090565b600080fd5b6000819050919050565b6105e8816105d5565b81146105f357600080fd5b50565b600081359050610605816105df565b92915050565b600060208284031215610621576106206105d0565b5b600061062f848285016105f6565b91505092915050565b600073ffffffffffffffffffffffffffffffffffffffff82169050919050565b600061066382610638565b9050919050565b61067381610658565b82525050565b610682816105d5565b82525050565b60008115159050919050565b61069d81610688565b82525050565b60006060820190506106b8600083018661066a565b6106c56020830185610679565b6106d26040830184610694565b949350505050565b60006020820190506106ef6000830184610679565b92915050565b600081519050919050565b600082825260208201905092915050565b6000819050602082019050919050565b61072a816105d5565b82525050565b600061073c8383610721565b60208301905092915050565b6000602082019050919050565b6000610760826106f5565b61076a8185610700565b935061077583610711565b8060005b838110156107a657815161078d8882610730565b975061079883610748565b925050600181019050610779565b5085935050505092915050565b600060208201905081810360008301526107cd8184610755565b905092915050565b600080fd5b6000601f19601f8301169050919050565b7f4e487b7100000000000000000000000000000000000000000000000000000000600052604160045260246000fd5b610823826107da565b810181811067ffffffffffffffff82111715610842576108416107eb565b5b80604052505050565b60006108556105c6565b9050610861828261081a565b919050565b600067ffffffffffffffff821115610881576108806107eb565b5b602082029050919050565b600080fd5b60006108a461089f84610866565b61084b565b905080602084028301858111156108be576108bd61088c565b5b835b818110156108e757806108d388826105f6565b8452602084019350506020810190506108c0565b5050509392505050565b600082601f830112610906576109056107d5565b5b6002610913848285610891565b91505092915050565b600067ffffffffffffffff821115610937576109366107eb565b5b602082029050919050565b60006109556109508461091c565b61084b565b9050806040840283018581111561096f5761096e61088c565b5b835b81811015610998578061098488826108f1565b845260208401935050604081019050610971565b5050509392505050565b600082601f8301126109b7576109b66107d5565b5b60026109c4848285610942565b91505092915050565b600067ffffffffffffffff8211156109e8576109e76107eb565b5b602082029050919050565b6000610a06610a01846109cd565b61084b565b90508060208402830185811115610a2057610a1f61088c565b5b835b81811015610a495780610a3588826105f6565b845260208401935050602081019050610a22565b5050509392505050565b600082601f830112610a6857610a676107d5565b5b6001610a758482856109f3565b91505092915050565b6000806000806101208587031215610a9957610a986105d0565b5b6000610aa7878288016108f1565b9450506040610ab8878288016109a2565b93505060c0610ac9878288016108f1565b925050610100610adb87828801610a53565b91505092959194509250565b6000602082019050610afc6000830184610694565b92915050565b610b0b81610658565b8114610b1657600080fd5b50565b600081359050610b2881610b02565b92915050565b600060208284031215610b4457610b436105d0565b5b6000610b5284828501610b19565b91505092915050565b600060029050919050565b600081905092915050565b6000819050919050565b6000602082019050919050565b610b9181610b5b565b610b9b8184610b66565b9250610ba682610b71565b8060005b83811015610bd7578151610bbe8782610730565b9650610bc983610b7b565b925050600181019050610baa565b505050505050565b600060029050919050565b600081905092915050565b6000819050919050565b600081905092915050565b610c1381610b5b565b610c1d8184610bff565b9250610c2882610b71565b8060005b83811015610c59578151610c408782610730565b9650610c4b83610b7b565b925050600181019050610c2c565b505050505050565b6000610c6d8383610c0a565b60408301905092915050565b6000602082019050919050565b610c8f81610bdf565b610c998184610bea565b9250610ca482610bf5565b8060005b83811015610cd5578151610cbc8782610c61565b9650610cc783610c79565b925050600181019050610ca8565b505050505050565b600060019050919050565b600081905092915050565b6000819050919050565b6000602082019050919050565b610d1381610cdd565b610d1d8184610ce8565b9250610d2882610cf3565b8060005b83811015610d59578151610d408782610730565b9650610d4b83610cfd565b925050600181019050610d2c565b505050505050565b600061012082019050610d776000830187610b88565b610d846040830186610c86565b610d9160c0830185610b88565b610d9f610100830184610d0a565b95945050505050565b610db181610688565b8114610dbc57600080fd5b50565b600081519050610dce81610da8565b92915050565b600060208284031215610dea57610de96105d0565b5b6000610df884828501610dbf565b91505092915050565b600082825260208201905092915050565b7f696e76616c69642070726f6f6600000000000000000000000000000000000000600082015250565b6000610e48600d83610e01565b9150610e5382610e12565b602082019050919050565b60006020820190508181036000830152610e7781610e3b565b9050919050565b7f4e487b7100000000000000000000000000000000000000000000000000000000600052603260045260246000fd5b7f4e487b7100000000000000000000000000000000000000000000000000000000600052601160045260246000fd5b6000610ee7826105d5565b9150610ef2836105d5565b925082821015610f0557610f04610ead565b5b828203905092915050565b7f416e6f7468657220706c617965722068617320737061776e656420686572652060008201527f726563656e746c79000000000000000000000000000000000000000000000000602082015250565b6000610f6c602883610e01565b9150610f7782610f10565b604082019050919050565b60006020820190508181036000830152610f9b81610f5f565b9050919050565b7f506c616e657420616c7265616479206f63637570696564000000000000000000600082015250565b6000610fd8601783610e01565b9150610fe382610fa2565b602082019050919050565b6000602082019050818103600083015261100781610fcb565b9050919050565b6000604082019050611023600083018561066a565b6110306020830184610679565b939250505056fea2646970667358221220b82330a22fe387c0360ddafb8d73d612119eb505f098b3dd9fa0306e9ea8ff8f64736f6c634300080a0033",
  "immutableReferences": {},
  "source": "// SPDX-License-Identifier: UNLICENCED\npragma solidity >=0.4.22 <0.9.0;\n\n//import \"./MerkleTree.sol\";\n\ninterface ProofVerifier {\n    function verifyProof(\n            uint[2] memory a,\n            uint[2][2] memory b,\n            uint[2] memory c,\n            uint[1] memory input\n        ) external returns (bool r);\n}\n\ncontract DarkBush {\n\n    struct Planet {\n        address owner;\n        uint256 last_spawn;\n        bool occupied;\n    }\n\n    ProofVerifier verifier;\n    //MerkleTree tree;\n\n    //hashed position to planet\n    mapping(uint256 => Planet) public planets;\n\n    mapping(address => uint256) public addressToPlanetId;\n    uint[] public planetIds;\n\n    event Spawned(address player, uint hash);\n\n\n\n    constructor (address _verifier) public {\n        verifier = ProofVerifier(_verifier);   \n    }\n\n    function spawn(\n            uint[2] memory _a,\n            uint[2][2] memory _b,\n            uint[2] memory _c,\n            uint[1] memory _input\n        ) public returns (bool) {\n        bool valid = verifier.verifyProof(_a, _b, _c, _input);\n        require(valid, \"invalid proof\");\n\n        Planet storage planet = planets[_input[0]];\n        require(planet.last_spawn < block.timestamp - 5 minutes , \"Another player has spawned here recently\");\n        require(planet.occupied == false, \"Planet already occupied\");\n\n        planet.last_spawn = block.timestamp;\n        planet.occupied = true;\n\n        addressToPlanetId[msg.sender] = _input[0];\n        planetIds.push(_input[0]);\n        emit Spawned(msg.sender, _input[0]);\n        return true;\n    }\n\n    function getPlanetId() external view returns (uint) {\n        require(addressToPlanetId[msg.sender] != 0);\n        return addressToPlanetId[msg.sender];\n    }\n\n    function getPlanetIds() external view returns (uint[] memory) {\n        return planetIds;\n    }\n }",
  "sourcePath": "/home/zekiel/assignment1/contracts/State.sol",
  "compiler": {
    "name": "solc",
    "version": "0.8.10+commit.fc410830.Emscripten.clang"
  },
  "schemaVersion": "3.4.4",
  "updatedAt": "2022-01-06T18:29:47.756Z",
  "networkType": "ethereum",
  "devdoc": {
    "kind": "dev",
    "methods": {},
    "version": 1
  },
  "userdoc": {
    "kind": "user",
    "methods": {},
    "version": 1
  }
}