{
  "contractName": "DarkBush",
  "abi": [
    {
      "inputs": [
        {
          "internalType": "address",
          "name": "_verifier",
          "type": "address"
        }
      ],
      "stateMutability": "nonpayable",
      "type": "constructor"
    },
    {
      "anonymous": false,
      "inputs": [
        {
          "indexed": false,
          "internalType": "uint256",
          "name": "location",
          "type": "uint256"
        }
      ],
      "name": "Colection",
      "type": "event"
    },
    {
      "anonymous": false,
      "inputs": [
        {
          "indexed": false,
          "internalType": "address",
          "name": "player",
          "type": "address"
        },
        {
          "indexed": false,
          "internalType": "uint256",
          "name": "initialPosition",
          "type": "uint256"
        },
        {
          "indexed": false,
          "internalType": "uint256",
          "name": "finalPosition",
          "type": "uint256"
        }
      ],
      "name": "Move",
      "type": "event"
    },
    {
      "anonymous": false,
      "inputs": [
        {
          "indexed": false,
          "internalType": "address",
          "name": "player",
          "type": "address"
        },
        {
          "indexed": false,
          "internalType": "uint256",
          "name": "hash",
          "type": "uint256"
        }
      ],
      "name": "Spawned",
      "type": "event"
    },
    {
      "inputs": [
        {
          "internalType": "uint256",
          "name": "",
          "type": "uint256"
        }
      ],
      "name": "planets",
      "outputs": [
        {
          "internalType": "address",
          "name": "owner",
          "type": "address"
        },
        {
          "internalType": "uint256",
          "name": "last_spawn",
          "type": "uint256"
        },
        {
          "internalType": "bool",
          "name": "occupied",
          "type": "bool"
        },
        {
          "internalType": "uint256",
          "name": "max_collection",
          "type": "uint256"
        },
        {
          "internalType": "bool",
          "name": "init",
          "type": "bool"
        }
      ],
      "stateMutability": "view",
      "type": "function",
      "constant": true
    },
    {
      "inputs": [
        {
          "internalType": "address",
          "name": "",
          "type": "address"
        }
      ],
      "name": "players",
      "outputs": [
        {
          "internalType": "uint256",
          "name": "location",
          "type": "uint256"
        },
        {
          "internalType": "uint256",
          "name": "resources",
          "type": "uint256"
        },
        {
          "internalType": "uint256",
          "name": "pending_resources",
          "type": "uint256"
        },
        {
          "internalType": "uint256",
          "name": "lastMoved",
          "type": "uint256"
        }
      ],
      "stateMutability": "view",
      "type": "function",
      "constant": true
    },
    {
      "inputs": [
        {
          "internalType": "uint256",
          "name": "",
          "type": "uint256"
        }
      ],
      "name": "spawnLocations",
      "outputs": [
        {
          "internalType": "uint256",
          "name": "",
          "type": "uint256"
        }
      ],
      "stateMutability": "view",
      "type": "function",
      "constant": true
    },
    {
      "inputs": [
        {
          "internalType": "uint256[2]",
          "name": "_a",
          "type": "uint256[2]"
        },
        {
          "internalType": "uint256[2][2]",
          "name": "_b",
          "type": "uint256[2][2]"
        },
        {
          "internalType": "uint256[2]",
          "name": "_c",
          "type": "uint256[2]"
        },
        {
          "internalType": "uint256[3]",
          "name": "_input",
          "type": "uint256[3]"
        }
      ],
      "name": "spawn",
      "outputs": [
        {
          "internalType": "bool",
          "name": "",
          "type": "bool"
        }
      ],
      "stateMutability": "nonpayable",
      "type": "function"
    },
    {
      "inputs": [
        {
          "internalType": "uint256",
          "name": "hash",
          "type": "uint256"
        }
      ],
      "name": "R",
      "outputs": [
        {
          "internalType": "uint256",
          "name": "",
          "type": "uint256"
        }
      ],
      "stateMutability": "nonpayable",
      "type": "function"
    },
    {
      "inputs": [
        {
          "internalType": "uint256[2]",
          "name": "_a",
          "type": "uint256[2]"
        },
        {
          "internalType": "uint256[2][2]",
          "name": "_b",
          "type": "uint256[2][2]"
        },
        {
          "internalType": "uint256[2]",
          "name": "_c",
          "type": "uint256[2]"
        },
        {
          "internalType": "uint256[4]",
          "name": "_input",
          "type": "uint256[4]"
        }
      ],
      "name": "move",
      "outputs": [
        {
          "internalType": "bool",
          "name": "",
          "type": "bool"
        }
      ],
      "stateMutability": "nonpayable",
      "type": "function"
    },
    {
      "inputs": [
        {
          "internalType": "uint256",
          "name": "_amount",
          "type": "uint256"
        }
      ],
      "name": "collect",
      "outputs": [
        {
          "internalType": "uint256",
          "name": "pending_resources",
          "type": "uint256"
        }
      ],
      "stateMutability": "nonpayable",
      "type": "function"
    },
    {
      "inputs": [],
      "name": "getLocationHash",
      "outputs": [
        {
          "internalType": "uint256",
          "name": "",
          "type": "uint256"
        }
      ],
      "stateMutability": "view",
      "type": "function",
      "constant": true
    },
    {
      "inputs": [],
      "name": "getLocationMaxResources",
      "outputs": [
        {
          "internalType": "uint256",
          "name": "",
          "type": "uint256"
        }
      ],
      "stateMutability": "nonpayable",
      "type": "function"
    },
    {
      "inputs": [],
      "name": "playerExists",
      "outputs": [
        {
          "internalType": "bool",
          "name": "",
          "type": "bool"
        }
      ],
      "stateMutability": "view",
      "type": "function",
      "constant": true
    },
    {
      "inputs": [],
      "name": "getSpawnedLocations",
      "outputs": [
        {
          "internalType": "uint256[]",
          "name": "",
          "type": "uint256[]"
        }
      ],
      "stateMutability": "view",
      "type": "function",
      "constant": true
    }
  ],
  "bytecode": "0x60806040523480156200001157600080fd5b50604051620026ac380380620026ac8339818101604052810190620000379190620000e8565b806000806101000a81548173ffffffffffffffffffffffffffffffffffffffff021916908373ffffffffffffffffffffffffffffffffffffffff160217905550506200011a565b600080fd5b600073ffffffffffffffffffffffffffffffffffffffff82169050919050565b6000620000b08262000083565b9050919050565b620000c281620000a3565b8114620000ce57600080fd5b50565b600081519050620000e281620000b7565b92915050565b6000602082840312156200010157620001006200007e565b5b60006200011184828501620000d1565b91505092915050565b612582806200012a6000396000f3fe608060405234801561001057600080fd5b50600436106100a95760003560e01c80637ee11357116100715780637ee113571461017e5780639ddbeb78146101ae578063c1f14e7b146101cc578063ce3f865f146101ea578063e2eb41ff1461021a578063e5cfd8491461024d576100a9565b806317ce0f12146100ae57806326c1e750146100de57806347d024ac1461011257806354efa35114610130578063650edd5a1461014e575b600080fd5b6100c860048036038101906100c3919061181c565b61027d565b6040516100d591906118a0565b60405180910390f35b6100f860048036038101906100f391906118bb565b61072a565b604051610109959493929190611938565b60405180910390f35b61011a61079a565b6040516101279190611a49565b60405180910390f35b6101386107f2565b60405161014591906118a0565b60405180910390f35b610168600480360381019061016391906118bb565b61084e565b6040516101759190611a6b565b60405180910390f35b61019860048036038101906101939190611b37565b610872565b6040516101a591906118a0565b60405180910390f35b6101b66111b2565b6040516101c39190611a6b565b60405180910390f35b6101d461124b565b6040516101e19190611a6b565b60405180910390f35b61020460048036038101906101ff91906118bb565b611322565b6040516102119190611a6b565b60405180910390f35b610234600480360381019061022f9190611bcc565b6114e8565b6040516102449493929190611bf9565b60405180910390f35b610267600480360381019061026291906118bb565b611518565b6040516102749190611a6b565b60405180910390f35b600080600260003373ffffffffffffffffffffffffffffffffffffffff1673ffffffffffffffffffffffffffffffffffffffff1681526020019081526020016000206000015414610303576040517f08c379a00000000000000000000000000000000000000000000000000000000081526004016102fa90611cc1565b60405180910390fd5b60008060009054906101000a900473ffffffffffffffffffffffffffffffffffffffff1673ffffffffffffffffffffffffffffffffffffffff16638eff8954878787876040518563ffffffff1660e01b81526004016103659493929190611ee7565b602060405180830381865afa158015610382573d6000803e3d6000fd5b505050506040513d601f19601f820116820180604052508101906103a69190611f5a565b9050806103e8576040517f08c379a00000000000000000000000000000000000000000000000000000000081526004016103df90611fd3565b60405180910390fd5b6000600160008560006003811061040257610401611ff3565b5b60200201518152602001908152602001600020905061012c426104259190612051565b81600101541061046a576040517f08c379a0000000000000000000000000000000000000000000000000000000008152600401610461906120f7565b60405180910390fd5b600015158160020160009054906101000a900460ff161515146104c2576040517f08c379a00000000000000000000000000000000000000000000000000000000081526004016104b990612163565b60405180910390fd5b42816001018190555060018160020160006101000a81548160ff021916908315150217905550610509846000600381106104ff576104fe611ff3565b5b6020020151611518565b8160030181905550338160000160006101000a81548173ffffffffffffffffffffffffffffffffffffffff021916908373ffffffffffffffffffffffffffffffffffffffff160217905550338160040160006006811061056c5761056b611ff3565b5b0160006101000a81548173ffffffffffffffffffffffffffffffffffffffff021916908373ffffffffffffffffffffffffffffffffffffffff160217905550600181600b0160006101000a81548160ff02191690831515021790555060405180602001604052804281525081600a0160003373ffffffffffffffffffffffffffffffffffffffff1673ffffffffffffffffffffffffffffffffffffffff168152602001908152602001600020600082015181600001559050506000600260003373ffffffffffffffffffffffffffffffffffffffff1673ffffffffffffffffffffffffffffffffffffffff16815260200190815260200160002090508460006003811061067c5761067b611ff3565b5b6020020151816000018190555060038560006003811061069f5761069e611ff3565b5b602002015190806001815401808255809150506001900390600052602060002001600090919091909150557f977ae7c7aa24ad0d5170dba549fcbe1d23cc10f12f5dcd5de2eadc25f546ba783386600060038110610700576106ff611ff3565b5b6020020151604051610713929190612183565b60405180910390a160019350505050949350505050565b60016020528060005260406000206000915090508060000160009054906101000a900473ffffffffffffffffffffffffffffffffffffffff16908060010154908060020160009054906101000a900460ff169080600301549080600b0160009054906101000a900460ff16905085565b606060038054806020026020016040519081016040528092919081815260200182805480156107e857602002820191906000526020600020905b8154815260200190600101908083116107d4575b5050505050905090565b600080600260003373ffffffffffffffffffffffffffffffffffffffff1673ffffffffffffffffffffffffffffffffffffffff1681526020019081526020016000206000015414610846576001905061084b565b600090505b90565b6003818154811061085e57600080fd5b906000526020600020016000915090505481565b600080600260003373ffffffffffffffffffffffffffffffffffffffff1673ffffffffffffffffffffffffffffffffffffffff1681526020019081526020016000206000015414156108f9576040517f08c379a00000000000000000000000000000000000000000000000000000000081526004016108f0906121f8565b60405180910390fd5b60008060009054906101000a900473ffffffffffffffffffffffffffffffffffffffff1673ffffffffffffffffffffffffffffffffffffffff16636996ee66878787876040518563ffffffff1660e01b815260040161095b949392919061229c565b602060405180830381865afa158015610978573d6000803e3d6000fd5b505050506040513d601f19601f8201168201806040525081019061099c9190611f5a565b9050806109de576040517f08c379a00000000000000000000000000000000000000000000000000000000081526004016109d590611fd3565b60405180910390fd5b6000836000600481106109f4576109f3611ff3565b5b60200201519050600084600160048110610a1157610a10611ff3565b5b602002015190506000600260003373ffffffffffffffffffffffffffffffffffffffff1673ffffffffffffffffffffffffffffffffffffffff16815260200190815260200160002090508060030154601e42610a6d9190612051565b11610aad576040517f08c379a0000000000000000000000000000000000000000000000000000000008152600401610aa49061232f565b60405180910390fd5b42816003018190555082816000015414610afc576040517f08c379a0000000000000000000000000000000000000000000000000000000008152600401610af39061239b565b60405180910390fd5b81831415610b115760019450505050506111aa565b818160000181905550600060016000858152602001908152602001600020905060005b6006811015610c1757816004018160068110610b5357610b52611ff3565b5b0160009054906101000a900473ffffffffffffffffffffffffffffffffffffffff1673ffffffffffffffffffffffffffffffffffffffff163373ffffffffffffffffffffffffffffffffffffffff161415610c04576000826004018260068110610bc057610bbf611ff3565b5b0160006101000a81548173ffffffffffffffffffffffffffffffffffffffff021916908373ffffffffffffffffffffffffffffffffffffffff160217905550610c17565b8080610c0f906123bb565b915050610b34565b503373ffffffffffffffffffffffffffffffffffffffff168160000160009054906101000a900473ffffffffffffffffffffffffffffffffffffffff1673ffffffffffffffffffffffffffffffffffffffff161415610ec6578160020154826001016000828254610c889190612404565b9250508190555060008160000160006101000a81548173ffffffffffffffffffffffffffffffffffffffff021916908373ffffffffffffffffffffffffffffffffffffffff16021790555060008080600090505b6006811015610e08576000846004018260068110610cfd57610cfc611ff3565b5b0160009054906101000a900473ffffffffffffffffffffffffffffffffffffffff169050600073ffffffffffffffffffffffffffffffffffffffff168173ffffffffffffffffffffffffffffffffffffffff161415610d5c5750610df5565b8385600a0160008373ffffffffffffffffffffffffffffffffffffffff1673ffffffffffffffffffffffffffffffffffffffff168152602001908152602001600020600001541115610df35784600a0160008273ffffffffffffffffffffffffffffffffffffffff1673ffffffffffffffffffffffffffffffffffffffff1681526020019081526020016000206000015493508092505b505b8080610e00906123bb565b915050610cdc565b50808360000160006101000a81548173ffffffffffffffffffffffffffffffffffffffff021916908373ffffffffffffffffffffffffffffffffffffffff160217905550600073ffffffffffffffffffffffffffffffffffffffff168360000160009054906101000a900473ffffffffffffffffffffffffffffffffffffffff1673ffffffffffffffffffffffffffffffffffffffff161415610ec35760008360020160006101000a81548160ff0219169083151502179055505b50505b60008260020181905550600060016000858152602001908152602001600020905080600b0160009054906101000a900460ff16610f0f57610f0684611518565b81600301819055505b60405180602001604052804281525081600a0160003373ffffffffffffffffffffffffffffffffffffffff1673ffffffffffffffffffffffffffffffffffffffff1681526020019081526020016000206000820151816000015590505060008160000160009054906101000a900473ffffffffffffffffffffffffffffffffffffffff169050338260000160006101000a81548173ffffffffffffffffffffffffffffffffffffffff021916908373ffffffffffffffffffffffffffffffffffffffff16021790555060005b60068110156110ba57600073ffffffffffffffffffffffffffffffffffffffff1683600401826006811061101257611011611ff3565b5b0160009054906101000a900473ffffffffffffffffffffffffffffffffffffffff1673ffffffffffffffffffffffffffffffffffffffff1614156110a7573383600401826006811061106757611066611ff3565b5b0160006101000a81548173ffffffffffffffffffffffffffffffffffffffff021916908373ffffffffffffffffffffffffffffffffffffffff1602179055505b80806110b2906123bb565b915050610fdb565b50600260008273ffffffffffffffffffffffffffffffffffffffff1673ffffffffffffffffffffffffffffffffffffffff16815260200190815260200160002060020154600260003373ffffffffffffffffffffffffffffffffffffffff1673ffffffffffffffffffffffffffffffffffffffff168152602001908152602001600020600101600082825461114f9190612404565b925050819055506000600260008373ffffffffffffffffffffffffffffffffffffffff1673ffffffffffffffffffffffffffffffffffffffff1681526020019081526020016000206002018190555060019750505050505050505b949350505050565b600080600260003373ffffffffffffffffffffffffffffffffffffffff1673ffffffffffffffffffffffffffffffffffffffff16815260200190815260200160002060000154141561120357600080fd5b600260003373ffffffffffffffffffffffffffffffffffffffff1673ffffffffffffffffffffffffffffffffffffffff16815260200190815260200160002060000154905090565b600080600260003373ffffffffffffffffffffffffffffffffffffffff1673ffffffffffffffffffffffffffffffffffffffff1681526020019081526020016000206000015414156112d2576040517f08c379a00000000000000000000000000000000000000000000000000000000081526004016112c9906121f8565b60405180910390fd5b61131d600260003373ffffffffffffffffffffffffffffffffffffffff1673ffffffffffffffffffffffffffffffffffffffff16815260200190815260200160002060000154611518565b905090565b600080600260003373ffffffffffffffffffffffffffffffffffffffff1673ffffffffffffffffffffffffffffffffffffffff1681526020019081526020016000206000015414156113a9576040517f08c379a00000000000000000000000000000000000000000000000000000000081526004016113a0906121f8565b60405180910390fd5b6000600260003373ffffffffffffffffffffffffffffffffffffffff1673ffffffffffffffffffffffffffffffffffffffff16815260200190815260200160002090506000600160008360000154815260200190815260200160002090506000841015801561141c575080600301548411155b61145b576040517f08c379a0000000000000000000000000000000000000000000000000000000008152600401611452906124cc565b60405180910390fd5b3373ffffffffffffffffffffffffffffffffffffffff168160000160009054906101000a900473ffffffffffffffffffffffffffffffffffffffff1673ffffffffffffffffffffffffffffffffffffffff1614156114dc57838260020160008282546114c79190612404565b925050819055508160020154925050506114e3565b6000925050505b919050565b60026020528060005260406000206000915090508060000154908060010154908060020154908060030154905084565b6000600482611527919061251b565b9050919050565b6000604051905090565b600080fd5b600080fd5b6000601f19601f8301169050919050565b7f4e487b7100000000000000000000000000000000000000000000000000000000600052604160045260246000fd5b61158b82611542565b810181811067ffffffffffffffff821117156115aa576115a9611553565b5b80604052505050565b60006115bd61152e565b90506115c98282611582565b919050565b600067ffffffffffffffff8211156115e9576115e8611553565b5b602082029050919050565b600080fd5b6000819050919050565b61160c816115f9565b811461161757600080fd5b50565b60008135905061162981611603565b92915050565b600061164261163d846115ce565b6115b3565b9050806020840283018581111561165c5761165b6115f4565b5b835b818110156116855780611671888261161a565b84526020840193505060208101905061165e565b5050509392505050565b600082601f8301126116a4576116a361153d565b5b60026116b184828561162f565b91505092915050565b600067ffffffffffffffff8211156116d5576116d4611553565b5b602082029050919050565b60006116f36116ee846116ba565b6115b3565b9050806040840283018581111561170d5761170c6115f4565b5b835b818110156117365780611722888261168f565b84526020840193505060408101905061170f565b5050509392505050565b600082601f8301126117555761175461153d565b5b60026117628482856116e0565b91505092915050565b600067ffffffffffffffff82111561178657611785611553565b5b602082029050919050565b60006117a461179f8461176b565b6115b3565b905080602084028301858111156117be576117bd6115f4565b5b835b818110156117e757806117d3888261161a565b8452602084019350506020810190506117c0565b5050509392505050565b600082601f8301126118065761180561153d565b5b6003611813848285611791565b91505092915050565b600080600080610160858703121561183757611836611538565b5b60006118458782880161168f565b945050604061185687828801611740565b93505060c06118678782880161168f565b925050610100611879878288016117f1565b91505092959194509250565b60008115159050919050565b61189a81611885565b82525050565b60006020820190506118b56000830184611891565b92915050565b6000602082840312156118d1576118d0611538565b5b60006118df8482850161161a565b91505092915050565b600073ffffffffffffffffffffffffffffffffffffffff82169050919050565b6000611913826118e8565b9050919050565b61192381611908565b82525050565b611932816115f9565b82525050565b600060a08201905061194d600083018861191a565b61195a6020830187611929565b6119676040830186611891565b6119746060830185611929565b6119816080830184611891565b9695505050505050565b600081519050919050565b600082825260208201905092915050565b6000819050602082019050919050565b6119c0816115f9565b82525050565b60006119d283836119b7565b60208301905092915050565b6000602082019050919050565b60006119f68261198b565b611a008185611996565b9350611a0b836119a7565b8060005b83811015611a3c578151611a2388826119c6565b9750611a2e836119de565b925050600181019050611a0f565b5085935050505092915050565b60006020820190508181036000830152611a6381846119eb565b905092915050565b6000602082019050611a806000830184611929565b92915050565b600067ffffffffffffffff821115611aa157611aa0611553565b5b602082029050919050565b6000611abf611aba84611a86565b6115b3565b90508060208402830185811115611ad957611ad86115f4565b5b835b81811015611b025780611aee888261161a565b845260208401935050602081019050611adb565b5050509392505050565b600082601f830112611b2157611b2061153d565b5b6004611b2e848285611aac565b91505092915050565b6000806000806101808587031215611b5257611b51611538565b5b6000611b608782880161168f565b9450506040611b7187828801611740565b93505060c0611b828782880161168f565b925050610100611b9487828801611b0c565b91505092959194509250565b611ba981611908565b8114611bb457600080fd5b50565b600081359050611bc681611ba0565b92915050565b600060208284031215611be257611be1611538565b5b6000611bf084828501611bb7565b91505092915050565b6000608082019050611c0e6000830187611929565b611c1b6020830186611929565b611c286040830185611929565b611c356060830184611929565b95945050505050565b600082825260208201905092915050565b7f54686973206163636f756e7420616c726561647920686173206120706c61796560008201527f7200000000000000000000000000000000000000000000000000000000000000602082015250565b6000611cab602183611c3e565b9150611cb682611c4f565b604082019050919050565b60006020820190508181036000830152611cda81611c9e565b9050919050565b600060029050919050565b600081905092915050565b6000819050919050565b6000602082019050919050565b611d1781611ce1565b611d218184611cec565b9250611d2c82611cf7565b8060005b83811015611d5d578151611d4487826119c6565b9650611d4f83611d01565b925050600181019050611d30565b505050505050565b600060029050919050565b600081905092915050565b6000819050919050565b600081905092915050565b611d9981611ce1565b611da38184611d85565b9250611dae82611cf7565b8060005b83811015611ddf578151611dc687826119c6565b9650611dd183611d01565b925050600181019050611db2565b505050505050565b6000611df38383611d90565b60408301905092915050565b6000602082019050919050565b611e1581611d65565b611e1f8184611d70565b9250611e2a82611d7b565b8060005b83811015611e5b578151611e428782611de7565b9650611e4d83611dff565b925050600181019050611e2e565b505050505050565b600060039050919050565b600081905092915050565b6000819050919050565b6000602082019050919050565b611e9981611e63565b611ea38184611e6e565b9250611eae82611e79565b8060005b83811015611edf578151611ec687826119c6565b9650611ed183611e83565b925050600181019050611eb2565b505050505050565b600061016082019050611efd6000830187611d0e565b611f0a6040830186611e0c565b611f1760c0830185611d0e565b611f25610100830184611e90565b95945050505050565b611f3781611885565b8114611f4257600080fd5b50565b600081519050611f5481611f2e565b92915050565b600060208284031215611f7057611f6f611538565b5b6000611f7e84828501611f45565b91505092915050565b7f696e76616c69642070726f6f6600000000000000000000000000000000000000600082015250565b6000611fbd600d83611c3e565b9150611fc882611f87565b602082019050919050565b60006020820190508181036000830152611fec81611fb0565b9050919050565b7f4e487b7100000000000000000000000000000000000000000000000000000000600052603260045260246000fd5b7f4e487b7100000000000000000000000000000000000000000000000000000000600052601160045260246000fd5b600061205c826115f9565b9150612067836115f9565b92508282101561207a57612079612022565b5b828203905092915050565b7f416e6f7468657220706c617965722068617320737061776e656420686572652060008201527f726563656e746c79000000000000000000000000000000000000000000000000602082015250565b60006120e1602883611c3e565b91506120ec82612085565b604082019050919050565b60006020820190508181036000830152612110816120d4565b9050919050565b7f506c616e657420616c7265616479206f63637570696564000000000000000000600082015250565b600061214d601783611c3e565b915061215882612117565b602082019050919050565b6000602082019050818103600083015261217c81612140565b9050919050565b6000604082019050612198600083018561191a565b6121a56020830184611929565b9392505050565b7f796f75206d757374206265206120706c61796572000000000000000000000000600082015250565b60006121e2601483611c3e565b91506121ed826121ac565b602082019050919050565b60006020820190508181036000830152612211816121d5565b9050919050565b600060049050919050565b600081905092915050565b6000819050919050565b6000602082019050919050565b61224e81612218565b6122588184612223565b92506122638261222e565b8060005b8381101561229457815161227b87826119c6565b965061228683612238565b925050600181019050612267565b505050505050565b6000610180820190506122b26000830187611d0e565b6122bf6040830186611e0c565b6122cc60c0830185611d0e565b6122da610100830184612245565b95945050505050565b7f77616974203330207365636f6e6473206166746572206d6f76696e6700000000600082015250565b6000612319601c83611c3e565b9150612324826122e3565b602082019050919050565b600060208201905081810360008301526123488161230c565b9050919050565b7f696e697469616c20706f736974696f6e20646f65736e2774206d617463680000600082015250565b6000612385601e83611c3e565b91506123908261234f565b602082019050919050565b600060208201905081810360008301526123b481612378565b9050919050565b60006123c6826115f9565b91507fffffffffffffffffffffffffffffffffffffffffffffffffffffffffffffffff8214156123f9576123f8612022565b5b600182019050919050565b600061240f826115f9565b915061241a836115f9565b9250827fffffffffffffffffffffffffffffffffffffffffffffffffffffffffffffffff0382111561244f5761244e612022565b5b828201905092915050565b7f696e76616c696420616d6f756e7420746f20636f6c6c6563742c206d7573742060008201527f626520696e2072616e6765206f66205b302c522854295d000000000000000000602082015250565b60006124b6603783611c3e565b91506124c18261245a565b604082019050919050565b600060208201905081810360008301526124e5816124a9565b9050919050565b7f4e487b7100000000000000000000000000000000000000000000000000000000600052601260045260246000fd5b6000612526826115f9565b9150612531836115f9565b925082612541576125406124ec565b5b82820690509291505056fea2646970667358221220182c6fff04c7f4fd3878e077a021d6c418d7f17be1a8018e3f8f50fd6532635064736f6c634300080a0033",
  "immutableReferences": {},
  "source": "// SPDX-License-Identifier: UNLICENCED\npragma solidity >=0.4.22 <0.9.0;\n\n//import \"./MerkleTree.sol\";\n\ninterface ProofVerifier {\n    function verifyInitProof(\n        uint256[2] memory a,\n        uint256[2][2] memory b,\n        uint256[2] memory c,\n        uint256[3] memory input\n    ) external view returns (bool);\n\n    function verifyMoveProof(\n        uint256[2] memory a,\n        uint256[2][2] memory b,\n        uint256[2] memory c,\n        uint256[4] memory input\n    ) external view returns (bool);\n}\n\ncontract DarkBush {\n\n    struct Planet {\n        address owner;\n        uint256 last_spawn;\n        bool occupied;\n        uint max_collection;\n        address[6] players; // players currently on the planet\n        mapping(address => ResidentData) residents_data; //data of players currently residing on planet\n        bool init;\n    }\n\n    struct ResidentData {\n        uint arrival_time;\n    }\n\n    struct Player {\n        uint location;  \n        uint resources;\n        uint pending_resources;\n        uint lastMoved;\n    }\n\n    ProofVerifier verifier;\n    //MerkleTree tree;\n\n    //hashed position to Planet\n    mapping(uint256 => Planet) public planets;\n\n    //address to Player location, current number of resources, \n    mapping(address => Player) public players;\n    \n    \n    // stores locations where players have spawned\n    uint[] public spawnLocations;\n\n    event Spawned(address player, uint hash);\n    event Colection(uint location);\n    event Move(address player, uint initialPosition, uint finalPosition);\n\n    modifier onlyPlayer() {\n        require(players[msg.sender].location != 0, \"you must be a player\");\n        _;\n    }\n\n    constructor (address _verifier) public {\n        verifier = ProofVerifier(_verifier);   \n    }\n\n    function spawn(\n            uint[2] memory _a,\n            uint[2][2] memory _b,\n            uint[2] memory _c,\n            uint[3] memory _input\n        ) public returns (bool) {\n        require(players[msg.sender].location == 0, \"This account already has a player\");\n\n        bool valid = verifier.verifyInitProof(_a, _b, _c, _input);\n        require(valid, \"invalid proof\");\n\n        // initialize the planet/location of player\n        Planet storage planet = planets[_input[0]];\n\n        require(planet.last_spawn < block.timestamp - 5 minutes , \"Another player has spawned here recently\");\n        require(planet.occupied == false, \"Planet already occupied\");\n        \n\n        planet.last_spawn = block.timestamp;\n        planet.occupied = true;\n        planet.max_collection = R(_input[0]);\n        planet.owner = msg.sender;\n        planet.players[0] = (msg.sender);\n        planet.init = true;\n        planet.residents_data[msg.sender] = ResidentData(block.timestamp);\n\n        // map player to address.\n        Player storage player = players[msg.sender];\n        player.location = _input[0];\n\n        spawnLocations.push(_input[0]);\n        emit Spawned(msg.sender, _input[0]);\n        return true;\n    }\n\n    function R(uint hash) public returns (uint) {\n        return hash % 4;\n    }\n\n    function move(\n        uint256[2] memory _a,\n        uint256[2][2] memory _b,\n        uint256[2] memory _c,\n        uint256[4] memory _input\n    ) onlyPlayer public returns (bool) {\n        bool valid = verifier.verifyMoveProof(_a, _b, _c, _input);\n        require(valid, \"invalid proof\");\n\n        // initial and final position hashes\n        uint256 pi = _input[0];\n        uint256 pf = _input[1];\n\n        Player storage player = players[msg.sender];\n        require(block.timestamp - 30 > player.lastMoved, \"wait 30 seconds after moving\");\n        player.lastMoved = block.timestamp;\n\n        require(player.location == pi, \"initial position doesn't match\");\n        \n        // if player didn't move\n        if (pi == pf) {\n            return true;\n        }\n\n        // move player\n        player.location = pf;\n\n        // leaving mechanism\n        Planet storage fromPlanet = planets[pi];\n        // remove player from the planet record of players\n        for (uint i=0; i<fromPlanet.players.length; i++) {\n            if (msg.sender == fromPlanet.players[i]){\n                fromPlanet.players[i] = address(0);\n                break;\n            }\n        } \n\n        // if owner then collect and transfer ownership\n        if (fromPlanet.owner == msg.sender) {\n            //collecting \n            player.resources += player.pending_resources;\n\n            //transfer ownership\n            fromPlanet.owner = address(0);\n            uint most_recent = 0;\n            address recent_player;\n            for (uint i=0; i<fromPlanet.players.length; i++) {\n                address addr = fromPlanet.players[i];\n                if (addr == address(0)) {\n                    continue;\n                } else if (fromPlanet.residents_data[addr].arrival_time > most_recent) {\n                    most_recent = fromPlanet.residents_data[addr].arrival_time;\n                    recent_player = addr;\n                }\n            }\n            fromPlanet.owner = recent_player;\n            if (fromPlanet.owner == address(0)) {\n                fromPlanet.occupied = false;\n            }\n        }\n        player.pending_resources = 0;\n\n        // arrival mechanism\n        Planet storage toPlanet = planets[pf];\n\n        // if planet not initialized\n        if (! toPlanet.init) {\n            toPlanet.max_collection = R(pf);\n        }\n        toPlanet.residents_data[msg.sender] = ResidentData(block.timestamp);\n        address prevOwner = toPlanet.owner;\n        toPlanet.owner = msg.sender;\n        \n        // add player to players on the planet.\n        for (uint i =0; i < toPlanet.players.length; i++) {\n            if (toPlanet.players[i] == address(0) ){\n                toPlanet.players[i] = msg.sender;\n            }\n        }\n        // get previous owner's pending resources\n        players[msg.sender].resources += players[prevOwner].pending_resources;\n        players[prevOwner].pending_resources = 0;\n        return true;\n    }\n\n    function collect(uint _amount) onlyPlayer external returns (uint pending_resources) {\n        Player storage player = players[msg.sender];\n        Planet storage planet = planets[player.location];\n        require(_amount >= 0 && _amount <= planet.max_collection, \"invalid amount to collect, must be in range of [0,R(T)]\");\n        if (planet.owner == msg.sender) {\n            player.pending_resources += _amount;\n            return player.pending_resources;\n        } else {\n            // you weren't owner of the planet.\n            return 0;\n        }\n    }\n\n    function getLocationHash() external view returns (uint) {\n        require(players[msg.sender].location != 0);\n        return players[msg.sender].location;\n    }\n\n    function getLocationMaxResources() onlyPlayer external returns (uint) {\n        return R(players[msg.sender].location);\n    }\n\n    function playerExists() external view returns (bool) {\n        if (players[msg.sender].location != 0){\n            return true;\n        } else {\n            return false;\n        }\n    }\n\n    function getSpawnedLocations() external view returns (uint[] memory) {\n        return spawnLocations;\n    }\n }",
  "sourcePath": "/home/zekiel/DarkBush/contracts/State.sol",
  "compiler": {
    "name": "solc",
    "version": "0.8.10+commit.fc410830.Emscripten.clang"
  },
  "schemaVersion": "3.4.4",
  "updatedAt": "2022-01-13T01:05:07.692Z",
  "networkType": "ethereum",
  "devdoc": {
    "kind": "dev",
    "methods": {},
    "version": 1
  },
  "userdoc": {
    "kind": "user",
    "methods": {},
    "version": 1
  }
}