{
  "contractName": "DarkBush",
  "abi": [
    {
      "inputs": [
        {
          "internalType": "address",
          "name": "_verifier",
          "type": "address"
        }
      ],
      "stateMutability": "nonpayable",
      "type": "constructor"
    },
    {
      "inputs": [
        {
          "internalType": "uint256",
          "name": "",
          "type": "uint256"
        }
      ],
      "name": "planets",
      "outputs": [
        {
          "internalType": "address",
          "name": "owner",
          "type": "address"
        },
        {
          "internalType": "uint256",
          "name": "last_spawn",
          "type": "uint256"
        },
        {
          "internalType": "bool",
          "name": "occupied",
          "type": "bool"
        }
      ],
      "stateMutability": "view",
      "type": "function",
      "constant": true
    },
    {
      "inputs": [
        {
          "internalType": "uint256[2]",
          "name": "_a",
          "type": "uint256[2]"
        },
        {
          "internalType": "uint256[2][2]",
          "name": "_b",
          "type": "uint256[2][2]"
        },
        {
          "internalType": "uint256[2]",
          "name": "_c",
          "type": "uint256[2]"
        },
        {
          "internalType": "uint256[1]",
          "name": "_input",
          "type": "uint256[1]"
        }
      ],
      "name": "spawn",
      "outputs": [],
      "stateMutability": "nonpayable",
      "type": "function"
    }
  ],
  "bytecode": "0x608060405234801561001057600080fd5b50604051610d1c380380610d1c833981810160405281019061003291906100db565b806000806101000a81548173ffffffffffffffffffffffffffffffffffffffff021916908373ffffffffffffffffffffffffffffffffffffffff16021790555050610108565b600080fd5b600073ffffffffffffffffffffffffffffffffffffffff82169050919050565b60006100a88261007d565b9050919050565b6100b88161009d565b81146100c357600080fd5b50565b6000815190506100d5816100af565b92915050565b6000602082840312156100f1576100f0610078565b5b60006100ff848285016100c6565b91505092915050565b610c05806101176000396000f3fe608060405234801561001057600080fd5b50600436106100365760003560e01c806326c1e7501461003b578063d269a4311461006d575b600080fd5b61005560048036038101906100509190610314565b610089565b604051610064939291906103ac565b60405180910390f35b6100876004803603810190610082919061068c565b6100e0565b005b60016020528060005260406000206000915090508060000160009054906101000a900473ffffffffffffffffffffffffffffffffffffffff16908060010154908060020160009054906101000a900460ff16905083565b60008060009054906101000a900473ffffffffffffffffffffffffffffffffffffffff1673ffffffffffffffffffffffffffffffffffffffff166343753b4d868686866040518563ffffffff1660e01b81526004016101429493929190610922565b6020604051808303816000875af1158015610161573d6000803e3d6000fd5b505050506040513d601f19601f820116820180604052508101906101859190610995565b9050806101c7576040517f08c379a00000000000000000000000000000000000000000000000000000000081526004016101be90610a1f565b60405180910390fd5b600060016000846000600181106101e1576101e0610a3f565b5b60200201518152602001908152602001600020905061012c426102049190610a9d565b816001015410610249576040517f08c379a000000000000000000000000000000000000000000000000000000000815260040161024090610b43565b60405180910390fd5b600015158160020160009054906101000a900460ff161515146102a1576040517f08c379a000000000000000000000000000000000000000000000000000000000815260040161029890610baf565b60405180910390fd5b42816001018190555060018160020160006101000a81548160ff021916908315150217905550505050505050565b6000604051905090565b600080fd5b6000819050919050565b6102f1816102de565b81146102fc57600080fd5b50565b60008135905061030e816102e8565b92915050565b60006020828403121561032a576103296102d9565b5b6000610338848285016102ff565b91505092915050565b600073ffffffffffffffffffffffffffffffffffffffff82169050919050565b600061036c82610341565b9050919050565b61037c81610361565b82525050565b61038b816102de565b82525050565b60008115159050919050565b6103a681610391565b82525050565b60006060820190506103c16000830186610373565b6103ce6020830185610382565b6103db604083018461039d565b949350505050565b600080fd5b6000601f19601f8301169050919050565b7f4e487b7100000000000000000000000000000000000000000000000000000000600052604160045260246000fd5b610431826103e8565b810181811067ffffffffffffffff821117156104505761044f6103f9565b5b80604052505050565b60006104636102cf565b905061046f8282610428565b919050565b600067ffffffffffffffff82111561048f5761048e6103f9565b5b602082029050919050565b600080fd5b60006104b26104ad84610474565b610459565b905080602084028301858111156104cc576104cb61049a565b5b835b818110156104f557806104e188826102ff565b8452602084019350506020810190506104ce565b5050509392505050565b600082601f830112610514576105136103e3565b5b600261052184828561049f565b91505092915050565b600067ffffffffffffffff821115610545576105446103f9565b5b602082029050919050565b600061056361055e8461052a565b610459565b9050806040840283018581111561057d5761057c61049a565b5b835b818110156105a6578061059288826104ff565b84526020840193505060408101905061057f565b5050509392505050565b600082601f8301126105c5576105c46103e3565b5b60026105d2848285610550565b91505092915050565b600067ffffffffffffffff8211156105f6576105f56103f9565b5b602082029050919050565b600061061461060f846105db565b610459565b9050806020840283018581111561062e5761062d61049a565b5b835b81811015610657578061064388826102ff565b845260208401935050602081019050610630565b5050509392505050565b600082601f830112610676576106756103e3565b5b6001610683848285610601565b91505092915050565b60008060008061012085870312156106a7576106a66102d9565b5b60006106b5878288016104ff565b94505060406106c6878288016105b0565b93505060c06106d7878288016104ff565b9250506101006106e987828801610661565b91505092959194509250565b600060029050919050565b600081905092915050565b6000819050919050565b61071e816102de565b82525050565b60006107308383610715565b60208301905092915050565b6000602082019050919050565b610752816106f5565b61075c8184610700565b92506107678261070b565b8060005b8381101561079857815161077f8782610724565b965061078a8361073c565b92505060018101905061076b565b505050505050565b600060029050919050565b600081905092915050565b6000819050919050565b600081905092915050565b6107d4816106f5565b6107de81846107c0565b92506107e98261070b565b8060005b8381101561081a5781516108018782610724565b965061080c8361073c565b9250506001810190506107ed565b505050505050565b600061082e83836107cb565b60408301905092915050565b6000602082019050919050565b610850816107a0565b61085a81846107ab565b9250610865826107b6565b8060005b8381101561089657815161087d8782610822565b96506108888361083a565b925050600181019050610869565b505050505050565b600060019050919050565b600081905092915050565b6000819050919050565b6000602082019050919050565b6108d48161089e565b6108de81846108a9565b92506108e9826108b4565b8060005b8381101561091a5781516109018782610724565b965061090c836108be565b9250506001810190506108ed565b505050505050565b6000610120820190506109386000830187610749565b6109456040830186610847565b61095260c0830185610749565b6109606101008301846108cb565b95945050505050565b61097281610391565b811461097d57600080fd5b50565b60008151905061098f81610969565b92915050565b6000602082840312156109ab576109aa6102d9565b5b60006109b984828501610980565b91505092915050565b600082825260208201905092915050565b7f696e76616c69642070726f6f6600000000000000000000000000000000000000600082015250565b6000610a09600d836109c2565b9150610a14826109d3565b602082019050919050565b60006020820190508181036000830152610a38816109fc565b9050919050565b7f4e487b7100000000000000000000000000000000000000000000000000000000600052603260045260246000fd5b7f4e487b7100000000000000000000000000000000000000000000000000000000600052601160045260246000fd5b6000610aa8826102de565b9150610ab3836102de565b925082821015610ac657610ac5610a6e565b5b828203905092915050565b7f416e6f7468657220706c617965722068617320737061776e656420686572652060008201527f726563656e746c79000000000000000000000000000000000000000000000000602082015250565b6000610b2d6028836109c2565b9150610b3882610ad1565b604082019050919050565b60006020820190508181036000830152610b5c81610b20565b9050919050565b7f506c616e657420616c7265616479206f63637570696564000000000000000000600082015250565b6000610b996017836109c2565b9150610ba482610b63565b602082019050919050565b60006020820190508181036000830152610bc881610b8c565b905091905056fea2646970667358221220f54726a999fb9a8ad818c52dabf4199b0951461dddff898d98621cc516008f6664736f6c634300080a0033",
  "immutableReferences": {},
  "source": "// SPDX-License-Identifier: UNLICENCED\npragma solidity >=0.4.22 <0.9.0;\n\nimport \"./MerkleTree.sol\";\n\ninterface ProofVerifier {\n    function verifyProof(\n            uint[2] memory a,\n            uint[2][2] memory b,\n            uint[2] memory c,\n            uint[1] memory input\n        ) external returns (bool r);\n}\n\ncontract DarkBush {\n\n    struct Planet {\n        address owner;\n        uint256 last_spawn;\n        bool occupied;\n    }\n\n    ProofVerifier verifier;\n    //MerkleTree tree;\n\n    //hashed position to planet\n    mapping(uint256 => Planet) public planets;\n\n    constructor (address _verifier) public {\n        verifier = ProofVerifier(_verifier);   \n    }\n\n    function spawn(\n            uint[2] memory _a,\n            uint[2][2] memory _b,\n            uint[2] memory _c,\n            uint[1] memory _input\n        ) public {\n        bool valid = verifier.verifyProof(_a, _b, _c, _input);\n        require(valid, \"invalid proof\");\n\n        Planet storage planet = planets[_input[0]];\n        require(planet.last_spawn < block.timestamp - 5 minutes , \"Another player has spawned here recently\");\n        require(planet.occupied == false, \"Planet already occupied\");\n\n        planet.last_spawn = block.timestamp;\n        planet.occupied = true;\n    }\n }",
  "sourcePath": "/home/zekiel/assignment1/contracts/State.sol",
  "compiler": {
    "name": "solc",
    "version": "0.8.10+commit.fc410830.Emscripten.clang"
  },
  "schemaVersion": "3.4.4",
  "updatedAt": "2022-01-06T07:54:36.678Z",
  "networkType": "ethereum",
  "devdoc": {
    "kind": "dev",
    "methods": {},
    "version": 1
  },
  "userdoc": {
    "kind": "user",
    "methods": {},
    "version": 1
  }
}