{
  "contractName": "DarkBush",
  "abi": [
    {
      "inputs": [
        {
          "internalType": "address",
          "name": "_verifier",
          "type": "address"
        }
      ],
      "stateMutability": "nonpayable",
      "type": "constructor"
    },
    {
      "anonymous": false,
      "inputs": [
        {
          "indexed": false,
          "internalType": "uint256",
          "name": "location",
          "type": "uint256"
        }
      ],
      "name": "Colection",
      "type": "event"
    },
    {
      "anonymous": false,
      "inputs": [
        {
          "indexed": false,
          "internalType": "address",
          "name": "player",
          "type": "address"
        },
        {
          "indexed": false,
          "internalType": "uint256",
          "name": "initialPosition",
          "type": "uint256"
        },
        {
          "indexed": false,
          "internalType": "uint256",
          "name": "finalPosition",
          "type": "uint256"
        }
      ],
      "name": "Move",
      "type": "event"
    },
    {
      "anonymous": false,
      "inputs": [
        {
          "indexed": false,
          "internalType": "address",
          "name": "player",
          "type": "address"
        },
        {
          "indexed": false,
          "internalType": "uint256",
          "name": "hash",
          "type": "uint256"
        }
      ],
      "name": "Spawned",
      "type": "event"
    },
    {
      "inputs": [
        {
          "internalType": "uint256",
          "name": "",
          "type": "uint256"
        }
      ],
      "name": "planets",
      "outputs": [
        {
          "internalType": "address",
          "name": "owner",
          "type": "address"
        },
        {
          "internalType": "uint256",
          "name": "last_spawn",
          "type": "uint256"
        },
        {
          "internalType": "bool",
          "name": "occupied",
          "type": "bool"
        },
        {
          "internalType": "uint256",
          "name": "max_collection",
          "type": "uint256"
        },
        {
          "internalType": "bool",
          "name": "init",
          "type": "bool"
        }
      ],
      "stateMutability": "view",
      "type": "function",
      "constant": true
    },
    {
      "inputs": [
        {
          "internalType": "address",
          "name": "",
          "type": "address"
        }
      ],
      "name": "players",
      "outputs": [
        {
          "internalType": "uint256",
          "name": "location",
          "type": "uint256"
        },
        {
          "internalType": "uint256",
          "name": "resources",
          "type": "uint256"
        },
        {
          "internalType": "uint256",
          "name": "pending_resources",
          "type": "uint256"
        },
        {
          "internalType": "uint256",
          "name": "lastMoved",
          "type": "uint256"
        }
      ],
      "stateMutability": "view",
      "type": "function",
      "constant": true
    },
    {
      "inputs": [
        {
          "internalType": "uint256",
          "name": "",
          "type": "uint256"
        }
      ],
      "name": "spawnLocations",
      "outputs": [
        {
          "internalType": "uint256",
          "name": "",
          "type": "uint256"
        }
      ],
      "stateMutability": "view",
      "type": "function",
      "constant": true
    },
    {
      "inputs": [
        {
          "internalType": "uint256[2]",
          "name": "_a",
          "type": "uint256[2]"
        },
        {
          "internalType": "uint256[2][2]",
          "name": "_b",
          "type": "uint256[2][2]"
        },
        {
          "internalType": "uint256[2]",
          "name": "_c",
          "type": "uint256[2]"
        },
        {
          "internalType": "uint256[3]",
          "name": "_input",
          "type": "uint256[3]"
        }
      ],
      "name": "spawn",
      "outputs": [
        {
          "internalType": "bool",
          "name": "",
          "type": "bool"
        }
      ],
      "stateMutability": "nonpayable",
      "type": "function"
    },
    {
      "inputs": [
        {
          "internalType": "uint256",
          "name": "hash",
          "type": "uint256"
        }
      ],
      "name": "R",
      "outputs": [
        {
          "internalType": "uint256",
          "name": "",
          "type": "uint256"
        }
      ],
      "stateMutability": "nonpayable",
      "type": "function"
    },
    {
      "inputs": [
        {
          "internalType": "uint256[2]",
          "name": "_a",
          "type": "uint256[2]"
        },
        {
          "internalType": "uint256[2][2]",
          "name": "_b",
          "type": "uint256[2][2]"
        },
        {
          "internalType": "uint256[2]",
          "name": "_c",
          "type": "uint256[2]"
        },
        {
          "internalType": "uint256[4]",
          "name": "_input",
          "type": "uint256[4]"
        }
      ],
      "name": "move",
      "outputs": [
        {
          "internalType": "bool",
          "name": "",
          "type": "bool"
        }
      ],
      "stateMutability": "nonpayable",
      "type": "function"
    },
    {
      "inputs": [
        {
          "internalType": "uint256",
          "name": "_amount",
          "type": "uint256"
        }
      ],
      "name": "collect",
      "outputs": [
        {
          "internalType": "uint256",
          "name": "pending_resources",
          "type": "uint256"
        }
      ],
      "stateMutability": "nonpayable",
      "type": "function"
    },
    {
      "inputs": [],
      "name": "getLocationHash",
      "outputs": [
        {
          "internalType": "uint256",
          "name": "",
          "type": "uint256"
        }
      ],
      "stateMutability": "view",
      "type": "function",
      "constant": true
    },
    {
      "inputs": [],
      "name": "getLocationMaxResources",
      "outputs": [
        {
          "internalType": "uint256",
          "name": "",
          "type": "uint256"
        }
      ],
      "stateMutability": "nonpayable",
      "type": "function"
    },
    {
      "inputs": [],
      "name": "playerExists",
      "outputs": [
        {
          "internalType": "bool",
          "name": "",
          "type": "bool"
        }
      ],
      "stateMutability": "view",
      "type": "function",
      "constant": true
    },
    {
      "inputs": [],
      "name": "getSpawnedLocations",
      "outputs": [
        {
          "internalType": "uint256[]",
          "name": "",
          "type": "uint256[]"
        }
      ],
      "stateMutability": "view",
      "type": "function",
      "constant": true
    }
  ],
  "bytecode": "0x60806040523480156200001157600080fd5b50604051620026e6380380620026e68339818101604052810190620000379190620000e8565b806000806101000a81548173ffffffffffffffffffffffffffffffffffffffff021916908373ffffffffffffffffffffffffffffffffffffffff160217905550506200011a565b600080fd5b600073ffffffffffffffffffffffffffffffffffffffff82169050919050565b6000620000b08262000083565b9050919050565b620000c281620000a3565b8114620000ce57600080fd5b50565b600081519050620000e281620000b7565b92915050565b6000602082840312156200010157620001006200007e565b5b60006200011184828501620000d1565b91505092915050565b6125bc806200012a6000396000f3fe608060405234801561001057600080fd5b50600436106100a95760003560e01c80637ee11357116100715780637ee113571461017e5780639ddbeb78146101ae578063c1f14e7b146101cc578063ce3f865f146101ea578063e2eb41ff1461021a578063e5cfd8491461024d576100a9565b806317ce0f12146100ae57806326c1e750146100de57806347d024ac1461011257806354efa35114610130578063650edd5a1461014e575b600080fd5b6100c860048036038101906100c39190611856565b61027d565b6040516100d591906118da565b60405180910390f35b6100f860048036038101906100f391906118f5565b61072a565b604051610109959493929190611972565b60405180910390f35b61011a61079a565b6040516101279190611a83565b60405180910390f35b6101386107f2565b60405161014591906118da565b60405180910390f35b610168600480360381019061016391906118f5565b61084e565b6040516101759190611aa5565b60405180910390f35b61019860048036038101906101939190611b71565b610872565b6040516101a591906118da565b60405180910390f35b6101b66111ec565b6040516101c39190611aa5565b60405180910390f35b6101d4611285565b6040516101e19190611aa5565b60405180910390f35b61020460048036038101906101ff91906118f5565b61135c565b6040516102119190611aa5565b60405180910390f35b610234600480360381019061022f9190611c06565b611522565b6040516102449493929190611c33565b60405180910390f35b610267600480360381019061026291906118f5565b611552565b6040516102749190611aa5565b60405180910390f35b600080600260003373ffffffffffffffffffffffffffffffffffffffff1673ffffffffffffffffffffffffffffffffffffffff1681526020019081526020016000206000015414610303576040517f08c379a00000000000000000000000000000000000000000000000000000000081526004016102fa90611cfb565b60405180910390fd5b60008060009054906101000a900473ffffffffffffffffffffffffffffffffffffffff1673ffffffffffffffffffffffffffffffffffffffff16638eff8954878787876040518563ffffffff1660e01b81526004016103659493929190611f21565b602060405180830381865afa158015610382573d6000803e3d6000fd5b505050506040513d601f19601f820116820180604052508101906103a69190611f94565b9050806103e8576040517f08c379a00000000000000000000000000000000000000000000000000000000081526004016103df9061200d565b60405180910390fd5b600060016000856000600381106104025761040161202d565b5b60200201518152602001908152602001600020905061012c42610425919061208b565b81600101541061046a576040517f08c379a000000000000000000000000000000000000000000000000000000000815260040161046190612131565b60405180910390fd5b600015158160020160009054906101000a900460ff161515146104c2576040517f08c379a00000000000000000000000000000000000000000000000000000000081526004016104b99061219d565b60405180910390fd5b42816001018190555060018160020160006101000a81548160ff021916908315150217905550610509846000600381106104ff576104fe61202d565b5b6020020151611552565b8160030181905550338160000160006101000a81548173ffffffffffffffffffffffffffffffffffffffff021916908373ffffffffffffffffffffffffffffffffffffffff160217905550338160040160006006811061056c5761056b61202d565b5b0160006101000a81548173ffffffffffffffffffffffffffffffffffffffff021916908373ffffffffffffffffffffffffffffffffffffffff160217905550600181600b0160006101000a81548160ff02191690831515021790555060405180602001604052804281525081600a0160003373ffffffffffffffffffffffffffffffffffffffff1673ffffffffffffffffffffffffffffffffffffffff168152602001908152602001600020600082015181600001559050506000600260003373ffffffffffffffffffffffffffffffffffffffff1673ffffffffffffffffffffffffffffffffffffffff16815260200190815260200160002090508460006003811061067c5761067b61202d565b5b6020020151816000018190555060038560006003811061069f5761069e61202d565b5b602002015190806001815401808255809150506001900390600052602060002001600090919091909150557f977ae7c7aa24ad0d5170dba549fcbe1d23cc10f12f5dcd5de2eadc25f546ba783386600060038110610700576106ff61202d565b5b60200201516040516107139291906121bd565b60405180910390a160019350505050949350505050565b60016020528060005260406000206000915090508060000160009054906101000a900473ffffffffffffffffffffffffffffffffffffffff16908060010154908060020160009054906101000a900460ff169080600301549080600b0160009054906101000a900460ff16905085565b606060038054806020026020016040519081016040528092919081815260200182805480156107e857602002820191906000526020600020905b8154815260200190600101908083116107d4575b5050505050905090565b600080600260003373ffffffffffffffffffffffffffffffffffffffff1673ffffffffffffffffffffffffffffffffffffffff1681526020019081526020016000206000015414610846576001905061084b565b600090505b90565b6003818154811061085e57600080fd5b906000526020600020016000915090505481565b600080600260003373ffffffffffffffffffffffffffffffffffffffff1673ffffffffffffffffffffffffffffffffffffffff1681526020019081526020016000206000015414156108f9576040517f08c379a00000000000000000000000000000000000000000000000000000000081526004016108f090612232565b60405180910390fd5b60008060009054906101000a900473ffffffffffffffffffffffffffffffffffffffff1673ffffffffffffffffffffffffffffffffffffffff16636996ee66878787876040518563ffffffff1660e01b815260040161095b94939291906122d6565b602060405180830381865afa158015610978573d6000803e3d6000fd5b505050506040513d601f19601f8201168201806040525081019061099c9190611f94565b9050806109de576040517f08c379a00000000000000000000000000000000000000000000000000000000081526004016109d59061200d565b60405180910390fd5b6000836000600481106109f4576109f361202d565b5b60200201519050600084600160048110610a1157610a1061202d565b5b602002015190506000600260003373ffffffffffffffffffffffffffffffffffffffff1673ffffffffffffffffffffffffffffffffffffffff16815260200190815260200160002090508060030154601e42610a6d919061208b565b11610aad576040517f08c379a0000000000000000000000000000000000000000000000000000000008152600401610aa490612369565b60405180910390fd5b42816003018190555082816000015414610afc576040517f08c379a0000000000000000000000000000000000000000000000000000000008152600401610af3906123d5565b60405180910390fd5b81831415610b115760019450505050506111e4565b818160000181905550600060016000858152602001908152602001600020905060005b6006811015610c1757816004018160068110610b5357610b5261202d565b5b0160009054906101000a900473ffffffffffffffffffffffffffffffffffffffff1673ffffffffffffffffffffffffffffffffffffffff163373ffffffffffffffffffffffffffffffffffffffff161415610c04576000826004018260068110610bc057610bbf61202d565b5b0160006101000a81548173ffffffffffffffffffffffffffffffffffffffff021916908373ffffffffffffffffffffffffffffffffffffffff160217905550610c17565b8080610c0f906123f5565b915050610b34565b503373ffffffffffffffffffffffffffffffffffffffff168160000160009054906101000a900473ffffffffffffffffffffffffffffffffffffffff1673ffffffffffffffffffffffffffffffffffffffff161415610ec6578160020154826001016000828254610c88919061243e565b9250508190555060008160000160006101000a81548173ffffffffffffffffffffffffffffffffffffffff021916908373ffffffffffffffffffffffffffffffffffffffff16021790555060008080600090505b6006811015610e08576000846004018260068110610cfd57610cfc61202d565b5b0160009054906101000a900473ffffffffffffffffffffffffffffffffffffffff169050600073ffffffffffffffffffffffffffffffffffffffff168173ffffffffffffffffffffffffffffffffffffffff161415610d5c5750610df5565b8385600a0160008373ffffffffffffffffffffffffffffffffffffffff1673ffffffffffffffffffffffffffffffffffffffff168152602001908152602001600020600001541115610df35784600a0160008273ffffffffffffffffffffffffffffffffffffffff1673ffffffffffffffffffffffffffffffffffffffff1681526020019081526020016000206000015493508092505b505b8080610e00906123f5565b915050610cdc565b50808360000160006101000a81548173ffffffffffffffffffffffffffffffffffffffff021916908373ffffffffffffffffffffffffffffffffffffffff160217905550600073ffffffffffffffffffffffffffffffffffffffff168360000160009054906101000a900473ffffffffffffffffffffffffffffffffffffffff1673ffffffffffffffffffffffffffffffffffffffff161415610ec35760008360020160006101000a81548160ff0219169083151502179055505b50505b60008260020181905550600060016000858152602001908152602001600020905080600b0160009054906101000a900460ff16610f2c57610f0684611552565b8160030181905550600181600b0160006101000a81548160ff0219169083151502179055505b60405180602001604052804281525081600a0160003373ffffffffffffffffffffffffffffffffffffffff1673ffffffffffffffffffffffffffffffffffffffff1681526020019081526020016000206000820151816000015590505060008160000160009054906101000a900473ffffffffffffffffffffffffffffffffffffffff169050338260000160006101000a81548173ffffffffffffffffffffffffffffffffffffffff021916908373ffffffffffffffffffffffffffffffffffffffff16021790555060018260020160006101000a81548160ff02191690831515021790555060005b60068110156110f457600073ffffffffffffffffffffffffffffffffffffffff1683600401826006811061104c5761104b61202d565b5b0160009054906101000a900473ffffffffffffffffffffffffffffffffffffffff1673ffffffffffffffffffffffffffffffffffffffff1614156110e157338360040182600681106110a1576110a061202d565b5b0160006101000a81548173ffffffffffffffffffffffffffffffffffffffff021916908373ffffffffffffffffffffffffffffffffffffffff1602179055505b80806110ec906123f5565b915050611015565b50600260008273ffffffffffffffffffffffffffffffffffffffff1673ffffffffffffffffffffffffffffffffffffffff16815260200190815260200160002060020154600260003373ffffffffffffffffffffffffffffffffffffffff1673ffffffffffffffffffffffffffffffffffffffff1681526020019081526020016000206002016000828254611189919061243e565b925050819055506000600260008373ffffffffffffffffffffffffffffffffffffffff1673ffffffffffffffffffffffffffffffffffffffff1681526020019081526020016000206002018190555060019750505050505050505b949350505050565b600080600260003373ffffffffffffffffffffffffffffffffffffffff1673ffffffffffffffffffffffffffffffffffffffff16815260200190815260200160002060000154141561123d57600080fd5b600260003373ffffffffffffffffffffffffffffffffffffffff1673ffffffffffffffffffffffffffffffffffffffff16815260200190815260200160002060000154905090565b600080600260003373ffffffffffffffffffffffffffffffffffffffff1673ffffffffffffffffffffffffffffffffffffffff16815260200190815260200160002060000154141561130c576040517f08c379a000000000000000000000000000000000000000000000000000000000815260040161130390612232565b60405180910390fd5b611357600260003373ffffffffffffffffffffffffffffffffffffffff1673ffffffffffffffffffffffffffffffffffffffff16815260200190815260200160002060000154611552565b905090565b600080600260003373ffffffffffffffffffffffffffffffffffffffff1673ffffffffffffffffffffffffffffffffffffffff1681526020019081526020016000206000015414156113e3576040517f08c379a00000000000000000000000000000000000000000000000000000000081526004016113da90612232565b60405180910390fd5b6000600260003373ffffffffffffffffffffffffffffffffffffffff1673ffffffffffffffffffffffffffffffffffffffff168152602001908152602001600020905060006001600083600001548152602001908152602001600020905060008410158015611456575080600301548411155b611495576040517f08c379a000000000000000000000000000000000000000000000000000000000815260040161148c90612506565b60405180910390fd5b3373ffffffffffffffffffffffffffffffffffffffff168160000160009054906101000a900473ffffffffffffffffffffffffffffffffffffffff1673ffffffffffffffffffffffffffffffffffffffff1614156115165783826002016000828254611501919061243e565b9250508190555081600201549250505061151d565b6000925050505b919050565b60026020528060005260406000206000915090508060000154908060010154908060020154908060030154905084565b60006004826115619190612555565b9050919050565b6000604051905090565b600080fd5b600080fd5b6000601f19601f8301169050919050565b7f4e487b7100000000000000000000000000000000000000000000000000000000600052604160045260246000fd5b6115c58261157c565b810181811067ffffffffffffffff821117156115e4576115e361158d565b5b80604052505050565b60006115f7611568565b905061160382826115bc565b919050565b600067ffffffffffffffff8211156116235761162261158d565b5b602082029050919050565b600080fd5b6000819050919050565b61164681611633565b811461165157600080fd5b50565b6000813590506116638161163d565b92915050565b600061167c61167784611608565b6115ed565b905080602084028301858111156116965761169561162e565b5b835b818110156116bf57806116ab8882611654565b845260208401935050602081019050611698565b5050509392505050565b600082601f8301126116de576116dd611577565b5b60026116eb848285611669565b91505092915050565b600067ffffffffffffffff82111561170f5761170e61158d565b5b602082029050919050565b600061172d611728846116f4565b6115ed565b905080604084028301858111156117475761174661162e565b5b835b81811015611770578061175c88826116c9565b845260208401935050604081019050611749565b5050509392505050565b600082601f83011261178f5761178e611577565b5b600261179c84828561171a565b91505092915050565b600067ffffffffffffffff8211156117c0576117bf61158d565b5b602082029050919050565b60006117de6117d9846117a5565b6115ed565b905080602084028301858111156117f8576117f761162e565b5b835b81811015611821578061180d8882611654565b8452602084019350506020810190506117fa565b5050509392505050565b600082601f8301126118405761183f611577565b5b600361184d8482856117cb565b91505092915050565b600080600080610160858703121561187157611870611572565b5b600061187f878288016116c9565b94505060406118908782880161177a565b93505060c06118a1878288016116c9565b9250506101006118b38782880161182b565b91505092959194509250565b60008115159050919050565b6118d4816118bf565b82525050565b60006020820190506118ef60008301846118cb565b92915050565b60006020828403121561190b5761190a611572565b5b600061191984828501611654565b91505092915050565b600073ffffffffffffffffffffffffffffffffffffffff82169050919050565b600061194d82611922565b9050919050565b61195d81611942565b82525050565b61196c81611633565b82525050565b600060a0820190506119876000830188611954565b6119946020830187611963565b6119a160408301866118cb565b6119ae6060830185611963565b6119bb60808301846118cb565b9695505050505050565b600081519050919050565b600082825260208201905092915050565b6000819050602082019050919050565b6119fa81611633565b82525050565b6000611a0c83836119f1565b60208301905092915050565b6000602082019050919050565b6000611a30826119c5565b611a3a81856119d0565b9350611a45836119e1565b8060005b83811015611a76578151611a5d8882611a00565b9750611a6883611a18565b925050600181019050611a49565b5085935050505092915050565b60006020820190508181036000830152611a9d8184611a25565b905092915050565b6000602082019050611aba6000830184611963565b92915050565b600067ffffffffffffffff821115611adb57611ada61158d565b5b602082029050919050565b6000611af9611af484611ac0565b6115ed565b90508060208402830185811115611b1357611b1261162e565b5b835b81811015611b3c5780611b288882611654565b845260208401935050602081019050611b15565b5050509392505050565b600082601f830112611b5b57611b5a611577565b5b6004611b68848285611ae6565b91505092915050565b6000806000806101808587031215611b8c57611b8b611572565b5b6000611b9a878288016116c9565b9450506040611bab8782880161177a565b93505060c0611bbc878288016116c9565b925050610100611bce87828801611b46565b91505092959194509250565b611be381611942565b8114611bee57600080fd5b50565b600081359050611c0081611bda565b92915050565b600060208284031215611c1c57611c1b611572565b5b6000611c2a84828501611bf1565b91505092915050565b6000608082019050611c486000830187611963565b611c556020830186611963565b611c626040830185611963565b611c6f6060830184611963565b95945050505050565b600082825260208201905092915050565b7f54686973206163636f756e7420616c726561647920686173206120706c61796560008201527f7200000000000000000000000000000000000000000000000000000000000000602082015250565b6000611ce5602183611c78565b9150611cf082611c89565b604082019050919050565b60006020820190508181036000830152611d1481611cd8565b9050919050565b600060029050919050565b600081905092915050565b6000819050919050565b6000602082019050919050565b611d5181611d1b565b611d5b8184611d26565b9250611d6682611d31565b8060005b83811015611d97578151611d7e8782611a00565b9650611d8983611d3b565b925050600181019050611d6a565b505050505050565b600060029050919050565b600081905092915050565b6000819050919050565b600081905092915050565b611dd381611d1b565b611ddd8184611dbf565b9250611de882611d31565b8060005b83811015611e19578151611e008782611a00565b9650611e0b83611d3b565b925050600181019050611dec565b505050505050565b6000611e2d8383611dca565b60408301905092915050565b6000602082019050919050565b611e4f81611d9f565b611e598184611daa565b9250611e6482611db5565b8060005b83811015611e95578151611e7c8782611e21565b9650611e8783611e39565b925050600181019050611e68565b505050505050565b600060039050919050565b600081905092915050565b6000819050919050565b6000602082019050919050565b611ed381611e9d565b611edd8184611ea8565b9250611ee882611eb3565b8060005b83811015611f19578151611f008782611a00565b9650611f0b83611ebd565b925050600181019050611eec565b505050505050565b600061016082019050611f376000830187611d48565b611f446040830186611e46565b611f5160c0830185611d48565b611f5f610100830184611eca565b95945050505050565b611f71816118bf565b8114611f7c57600080fd5b50565b600081519050611f8e81611f68565b92915050565b600060208284031215611faa57611fa9611572565b5b6000611fb884828501611f7f565b91505092915050565b7f696e76616c69642070726f6f6600000000000000000000000000000000000000600082015250565b6000611ff7600d83611c78565b915061200282611fc1565b602082019050919050565b6000602082019050818103600083015261202681611fea565b9050919050565b7f4e487b7100000000000000000000000000000000000000000000000000000000600052603260045260246000fd5b7f4e487b7100000000000000000000000000000000000000000000000000000000600052601160045260246000fd5b600061209682611633565b91506120a183611633565b9250828210156120b4576120b361205c565b5b828203905092915050565b7f416e6f7468657220706c617965722068617320737061776e656420686572652060008201527f726563656e746c79000000000000000000000000000000000000000000000000602082015250565b600061211b602883611c78565b9150612126826120bf565b604082019050919050565b6000602082019050818103600083015261214a8161210e565b9050919050565b7f506c616e657420616c7265616479206f63637570696564000000000000000000600082015250565b6000612187601783611c78565b915061219282612151565b602082019050919050565b600060208201905081810360008301526121b68161217a565b9050919050565b60006040820190506121d26000830185611954565b6121df6020830184611963565b9392505050565b7f796f75206d757374206265206120706c61796572000000000000000000000000600082015250565b600061221c601483611c78565b9150612227826121e6565b602082019050919050565b6000602082019050818103600083015261224b8161220f565b9050919050565b600060049050919050565b600081905092915050565b6000819050919050565b6000602082019050919050565b61228881612252565b612292818461225d565b925061229d82612268565b8060005b838110156122ce5781516122b58782611a00565b96506122c083612272565b9250506001810190506122a1565b505050505050565b6000610180820190506122ec6000830187611d48565b6122f96040830186611e46565b61230660c0830185611d48565b61231461010083018461227f565b95945050505050565b7f77616974203330207365636f6e6473206166746572206d6f76696e6700000000600082015250565b6000612353601c83611c78565b915061235e8261231d565b602082019050919050565b6000602082019050818103600083015261238281612346565b9050919050565b7f696e697469616c20706f736974696f6e20646f65736e2774206d617463680000600082015250565b60006123bf601e83611c78565b91506123ca82612389565b602082019050919050565b600060208201905081810360008301526123ee816123b2565b9050919050565b600061240082611633565b91507fffffffffffffffffffffffffffffffffffffffffffffffffffffffffffffffff8214156124335761243261205c565b5b600182019050919050565b600061244982611633565b915061245483611633565b9250827fffffffffffffffffffffffffffffffffffffffffffffffffffffffffffffffff038211156124895761248861205c565b5b828201905092915050565b7f696e76616c696420616d6f756e7420746f20636f6c6c6563742c206d7573742060008201527f626520696e2072616e6765206f66205b302c522854295d000000000000000000602082015250565b60006124f0603783611c78565b91506124fb82612494565b604082019050919050565b6000602082019050818103600083015261251f816124e3565b9050919050565b7f4e487b7100000000000000000000000000000000000000000000000000000000600052601260045260246000fd5b600061256082611633565b915061256b83611633565b92508261257b5761257a612526565b5b82820690509291505056fea26469706673582212205efe792293e3cd044c1c96a04fa5beb3634101769dd9911090e0a53effd9a14664736f6c634300080a0033",
  "immutableReferences": {},
  "source": "// SPDX-License-Identifier: UNLICENCED\npragma solidity >=0.4.22 <0.9.0;\n\n//import \"./MerkleTree.sol\";\n\ninterface ProofVerifier {\n    function verifyInitProof(\n        uint256[2] memory a,\n        uint256[2][2] memory b,\n        uint256[2] memory c,\n        uint256[3] memory input\n    ) external view returns (bool);\n\n    function verifyMoveProof(\n        uint256[2] memory a,\n        uint256[2][2] memory b,\n        uint256[2] memory c,\n        uint256[4] memory input\n    ) external view returns (bool);\n}\n\ncontract DarkBush {\n\n    struct Planet {\n        address owner;\n        uint256 last_spawn;\n        bool occupied;\n        uint max_collection;\n        address[6] players; // players currently on the planet\n        mapping(address => ResidentData) residents_data; //data of players currently residing on planet\n        bool init;\n    }\n\n    struct ResidentData {\n        uint arrival_time;\n    }\n\n    struct Player {\n        uint location;  \n        uint resources;\n        uint pending_resources;\n        uint lastMoved;\n    }\n\n    ProofVerifier verifier;\n    //MerkleTree tree;\n\n    //hashed position to Planet\n    mapping(uint256 => Planet) public planets;\n\n    //address to Player location, current number of resources, \n    mapping(address => Player) public players;\n    \n    \n    // stores locations where players have spawned\n    uint[] public spawnLocations;\n\n    event Spawned(address player, uint hash);\n    event Colection(uint location);\n    event Move(address player, uint initialPosition, uint finalPosition);\n\n    modifier onlyPlayer() {\n        require(players[msg.sender].location != 0, \"you must be a player\");\n        _;\n    }\n\n    constructor (address _verifier) public {\n        verifier = ProofVerifier(_verifier);   \n    }\n\n    function spawn(\n            uint[2] memory _a,\n            uint[2][2] memory _b,\n            uint[2] memory _c,\n            uint[3] memory _input\n        ) public returns (bool) {\n        require(players[msg.sender].location == 0, \"This account already has a player\");\n\n        bool valid = verifier.verifyInitProof(_a, _b, _c, _input);\n        require(valid, \"invalid proof\");\n\n        // initialize the planet/location of player\n        Planet storage planet = planets[_input[0]];\n\n        require(planet.last_spawn < block.timestamp - 5 minutes , \"Another player has spawned here recently\");\n        require(planet.occupied == false, \"Planet already occupied\");\n        \n\n        planet.last_spawn = block.timestamp;\n        planet.occupied = true;\n        planet.max_collection = R(_input[0]);\n        planet.owner = msg.sender;\n        planet.players[0] = (msg.sender);\n        planet.init = true;\n        planet.residents_data[msg.sender] = ResidentData(block.timestamp);\n\n        // map player to address.\n        Player storage player = players[msg.sender];\n        player.location = _input[0];\n\n        spawnLocations.push(_input[0]);\n        emit Spawned(msg.sender, _input[0]);\n        return true;\n    }\n\n    function R(uint hash) public returns (uint) {\n        return hash % 4;\n    }\n\n    function move(\n        uint256[2] memory _a,\n        uint256[2][2] memory _b,\n        uint256[2] memory _c,\n        uint256[4] memory _input\n    ) onlyPlayer public returns (bool) {\n        bool valid = verifier.verifyMoveProof(_a, _b, _c, _input);\n        require(valid, \"invalid proof\");\n\n        // initial and final position hashes\n        uint256 pi = _input[0];\n        uint256 pf = _input[1];\n\n        Player storage player = players[msg.sender];\n        require(block.timestamp - 30 > player.lastMoved, \"wait 30 seconds after moving\");\n        player.lastMoved = block.timestamp;\n\n        require(player.location == pi, \"initial position doesn't match\");\n        \n        // if player didn't move\n        if (pi == pf) {\n            return true;\n        }\n\n        // move player\n        player.location = pf;\n\n        // leaving mechanism\n        Planet storage fromPlanet = planets[pi];\n        // remove player from the planet record of players\n        for (uint i=0; i<fromPlanet.players.length; i++) {\n            if (msg.sender == fromPlanet.players[i]){\n                fromPlanet.players[i] = address(0);\n                break;\n            }\n        } \n\n        // if owner then collect and transfer ownership\n        if (fromPlanet.owner == msg.sender) {\n            //collecting \n            player.resources += player.pending_resources;\n\n            //transfer ownership\n            fromPlanet.owner = address(0);\n            uint most_recent = 0;\n            address recent_player;\n            for (uint i=0; i<fromPlanet.players.length; i++) {\n                address addr = fromPlanet.players[i];\n                if (addr == address(0)) {\n                    continue;\n                } else if (fromPlanet.residents_data[addr].arrival_time > most_recent) {\n                    most_recent = fromPlanet.residents_data[addr].arrival_time;\n                    recent_player = addr;\n                }\n            }\n            fromPlanet.owner = recent_player;\n            if (fromPlanet.owner == address(0)) {\n                fromPlanet.occupied = false;\n            }\n        }\n        player.pending_resources = 0;\n\n        // arrival mechanism\n        Planet storage toPlanet = planets[pf];\n\n        // if planet not initialized\n        if (! toPlanet.init) {\n            toPlanet.max_collection = R(pf);\n            toPlanet.init = true;\n        }\n\n        toPlanet.residents_data[msg.sender] = ResidentData(block.timestamp);\n        address prevOwner = toPlanet.owner;\n        toPlanet.owner = msg.sender;\n        toPlanet.occupied = true;\n        \n        // add player to players on the planet.\n        for (uint i =0; i < toPlanet.players.length; i++) {\n            if (toPlanet.players[i] == address(0) ){\n                toPlanet.players[i] = msg.sender;\n            }\n        }\n        // get previous owner's pending resources\n        players[msg.sender].pending_resources += players[prevOwner].pending_resources;\n        players[prevOwner].pending_resources = 0;\n        return true;\n    }\n\n    function collect(uint _amount) onlyPlayer external returns (uint pending_resources) {\n        Player storage player = players[msg.sender];\n        Planet storage planet = planets[player.location];\n        require(_amount >= 0 && _amount <= planet.max_collection, \"invalid amount to collect, must be in range of [0,R(T)]\");\n        if (planet.owner == msg.sender) {\n            player.pending_resources += _amount;\n            return player.pending_resources;\n        } else {\n            // you weren't owner of the planet.\n            return 0;\n        }\n    }\n\n    function getLocationHash() external view returns (uint) {\n        require(players[msg.sender].location != 0);\n        return players[msg.sender].location;\n    }\n\n    function getLocationMaxResources() onlyPlayer external returns (uint) {\n        return R(players[msg.sender].location);\n    }\n\n    function playerExists() external view returns (bool) {\n        if (players[msg.sender].location != 0){\n            return true;\n        } else {\n            return false;\n        }\n    }\n\n    function getSpawnedLocations() external view returns (uint[] memory) {\n        return spawnLocations;\n    }\n }",
  "sourcePath": "/home/zekiel/DarkBush/contracts/State.sol",
  "compiler": {
    "name": "solc",
    "version": "0.8.10+commit.fc410830.Emscripten.clang"
  },
  "schemaVersion": "3.4.4",
  "updatedAt": "2022-01-13T02:26:59.485Z",
  "networkType": "ethereum",
  "devdoc": {
    "kind": "dev",
    "methods": {},
    "version": 1
  },
  "userdoc": {
    "kind": "user",
    "methods": {},
    "version": 1
  }
}