{
  "contractName": "MerkleTree",
  "abi": [
    {
      "inputs": [
        {
          "internalType": "uint8",
          "name": "_levels",
          "type": "uint8"
        }
      ],
      "stateMutability": "nonpayable",
      "type": "constructor"
    },
    {
      "inputs": [
        {
          "internalType": "bytes32[]",
          "name": "proof",
          "type": "bytes32[]"
        },
        {
          "internalType": "bytes32",
          "name": "root",
          "type": "bytes32"
        },
        {
          "internalType": "bytes32",
          "name": "leaf",
          "type": "bytes32"
        },
        {
          "internalType": "uint256",
          "name": "index",
          "type": "uint256"
        }
      ],
      "name": "verify",
      "outputs": [
        {
          "internalType": "bool",
          "name": "",
          "type": "bool"
        }
      ],
      "stateMutability": "pure",
      "type": "function"
    },
    {
      "inputs": [
        {
          "internalType": "bytes32",
          "name": "_x",
          "type": "bytes32"
        },
        {
          "internalType": "bytes32",
          "name": "_y",
          "type": "bytes32"
        }
      ],
      "name": "Hash",
      "outputs": [
        {
          "internalType": "bytes32",
          "name": "",
          "type": "bytes32"
        }
      ],
      "stateMutability": "pure",
      "type": "function"
    },
    {
      "inputs": [
        {
          "internalType": "bytes32",
          "name": "_leaf",
          "type": "bytes32"
        }
      ],
      "name": "insert",
      "outputs": [
        {
          "internalType": "bool",
          "name": "",
          "type": "bool"
        }
      ],
      "stateMutability": "nonpayable",
      "type": "function"
    }
  ],
  "bytecode": "0x60806040523480156200001157600080fd5b5060405162000ee538038062000ee5833981810160405281019062000037919062000321565b80600560006101000a81548160ff021916908360ff160217905550600060038190555060066040516020016200006d90620003ae565b6040516020818303038152906040528051906020012090806001815401808255809150506001900390600052602060002001600090919091909150556000600190505b600560009054906101000a900460ff1660ff168160ff161015620001d5576000620001466006600184620000e59190620003f4565b60ff1681548110620000fc57620000fb6200042f565b5b90600052602060002001546006600185620001189190620003f4565b60ff16815481106200012f576200012e6200042f565b5b9060005260206000200154620002a960201b60201c565b90506006819080600181540180825580915050600190039060005260206000200160009091909190915055600460068360ff16815481106200018d576200018c6200042f565b5b90600052602060002001549080600181540180825580915050600190039060005260206000200160009091909190915055508080620001cc906200045e565b915050620000b0565b506001600560009054906101000a900460ff16620001f49190620003f4565b6002620002029190620005eb565b6002819055506200029c60066001600560009054906101000a900460ff166200022c9190620003f4565b60ff16815481106200024357620002426200042f565b5b906000526020600020015460066001600560009054906101000a900460ff166200026e9190620003f4565b60ff16815481106200028557620002846200042f565b5b9060005260206000200154620002a960201b60201c565b600081905550506200069b565b60008282604051602001620002c09291906200066b565b60405160208183030381529060405280519060200120905092915050565b600080fd5b600060ff82169050919050565b620002fb81620002e3565b81146200030757600080fd5b50565b6000815190506200031b81620002f0565b92915050565b6000602082840312156200033a5762000339620002de565b5b60006200034a848285016200030a565b91505092915050565b600081905092915050565b7f3000000000000000000000000000000000000000000000000000000000000000600082015250565b60006200039660018362000353565b9150620003a3826200035e565b600182019050919050565b6000620003bb8262000387565b9150819050919050565b7f4e487b7100000000000000000000000000000000000000000000000000000000600052601160045260246000fd5b60006200040182620002e3565b91506200040e83620002e3565b925082821015620004245762000423620003c5565b5b828203905092915050565b7f4e487b7100000000000000000000000000000000000000000000000000000000600052603260045260246000fd5b60006200046b82620002e3565b915060ff821415620004825762000481620003c5565b5b600182019050919050565b60008160011c9050919050565b6000808291508390505b6001851115620004ec57808604811115620004c457620004c3620003c5565b5b6001851615620004d45780820291505b8081029050620004e4856200048d565b9450620004a4565b94509492505050565b600082620005075760019050620005da565b81620005175760009050620005da565b81600181146200053057600281146200053b5762000571565b6001915050620005da565b60ff84111562000550576200054f620003c5565b5b8360020a9150848211156200056a5762000569620003c5565b5b50620005da565b5060208310610133831016604e8410600b8410161715620005ab5782820a905083811115620005a557620005a4620003c5565b5b620005da565b620005ba84848460016200049a565b92509050818404811115620005d457620005d3620003c5565b5b81810290505b9392505050565b6000819050919050565b6000620005f882620005e1565b91506200060583620002e3565b9250620006347fffffffffffffffffffffffffffffffffffffffffffffffffffffffffffffffff8484620004f5565b905092915050565b6000819050919050565b6000819050919050565b620006656200065f826200063c565b62000646565b82525050565b600062000679828562000650565b6020820191506200068b828462000650565b6020820191508190509392505050565b61083a80620006ab6000396000f3fe608060405234801561001057600080fd5b50600436106100415760003560e01c80631c6c6ff41461004657806321fb335c146100765780632d287e43146100a6575b600080fd5b610060600480360381019061005b9190610369565b6100d6565b60405161006d91906103b8565b60405180910390f35b610090600480360381019061008b9190610562565b610109565b60405161009d9190610600565b60405180910390f35b6100c060048036038101906100bb919061061b565b6101dd565b6040516100cd9190610600565b60405180910390f35b600082826040516020016100eb929190610669565b60405160208183030381529060405280519060200120905092915050565b60008083905060005b86518110156101ce5760008782815181106101305761012f610695565b5b60200260200101519050600060028661014991906106f3565b141561017f578281604051602001610162929190610669565b6040516020818303038152906040528051906020012092506101ab565b8083604051602001610192929190610669565b6040516020818303038152906040528051906020012092505b6002856101b89190610753565b94505080806101c690610784565b915050610112565b50848114915050949350505050565b6000600254600354106101f3576000905061031a565b600060035490506003600081548092919061020d90610784565b9190505550600083905060008060006001905060005b600560009054906101000a900460ff1660ff168160ff16101561030857600060028761024f91906106f3565b14156102b25784935060068160ff168154811061026f5761026e610695565b5b9060005260206000200154925081156102a9578360048260ff168154811061029a57610299610695565b5b90600052602060002001819055505b600091506102da565b60048160ff16815481106102c9576102c8610695565b5b906000526020600020015493508492505b6102e484846100d6565b94506002866102f39190610753565b95508080610300906107da565b915050610223565b50836000819055506001955050505050505b919050565b6000604051905090565b600080fd5b600080fd5b6000819050919050565b61034681610333565b811461035157600080fd5b50565b6000813590506103638161033d565b92915050565b600080604083850312156103805761037f610329565b5b600061038e85828601610354565b925050602061039f85828601610354565b9150509250929050565b6103b281610333565b82525050565b60006020820190506103cd60008301846103a9565b92915050565b600080fd5b6000601f19601f8301169050919050565b7f4e487b7100000000000000000000000000000000000000000000000000000000600052604160045260246000fd5b610421826103d8565b810181811067ffffffffffffffff821117156104405761043f6103e9565b5b80604052505050565b600061045361031f565b905061045f8282610418565b919050565b600067ffffffffffffffff82111561047f5761047e6103e9565b5b602082029050602081019050919050565b600080fd5b60006104a86104a384610464565b610449565b905080838252602082019050602084028301858111156104cb576104ca610490565b5b835b818110156104f457806104e08882610354565b8452602084019350506020810190506104cd565b5050509392505050565b600082601f830112610513576105126103d3565b5b8135610523848260208601610495565b91505092915050565b6000819050919050565b61053f8161052c565b811461054a57600080fd5b50565b60008135905061055c81610536565b92915050565b6000806000806080858703121561057c5761057b610329565b5b600085013567ffffffffffffffff81111561059a5761059961032e565b5b6105a6878288016104fe565b94505060206105b787828801610354565b93505060406105c887828801610354565b92505060606105d98782880161054d565b91505092959194509250565b60008115159050919050565b6105fa816105e5565b82525050565b600060208201905061061560008301846105f1565b92915050565b60006020828403121561063157610630610329565b5b600061063f84828501610354565b91505092915050565b6000819050919050565b61066361065e82610333565b610648565b82525050565b60006106758285610652565b6020820191506106858284610652565b6020820191508190509392505050565b7f4e487b7100000000000000000000000000000000000000000000000000000000600052603260045260246000fd5b7f4e487b7100000000000000000000000000000000000000000000000000000000600052601260045260246000fd5b60006106fe8261052c565b91506107098361052c565b925082610719576107186106c4565b5b828206905092915050565b7f4e487b7100000000000000000000000000000000000000000000000000000000600052601160045260246000fd5b600061075e8261052c565b91506107698361052c565b925082610779576107786106c4565b5b828204905092915050565b600061078f8261052c565b91507fffffffffffffffffffffffffffffffffffffffffffffffffffffffffffffffff8214156107c2576107c1610724565b5b600182019050919050565b600060ff82169050919050565b60006107e5826107cd565b915060ff8214156107f9576107f8610724565b5b60018201905091905056fea2646970667358221220769267d08e6d8d19017ea600c0572a25c723c5d7ac3c6c9d60d542c0ac61a80864736f6c634300080a0033",
  "immutableReferences": {},
  "source": "// SPDX-License-Identifier: MIT\npragma solidity ^0.8.10;\n\ncontract MerkleProof {\n    function verify(\n        bytes32[] memory proof,\n        bytes32 root,\n        bytes32 leaf,\n        uint index\n    ) public pure returns (bool) {\n        bytes32 hash = leaf;\n\n        for (uint i = 0; i < proof.length; i++) {\n            bytes32 proofElement = proof[i];\n\n            if (index % 2 == 0) {\n                hash = keccak256(abi.encodePacked(hash, proofElement));\n            } else {\n                hash = keccak256(abi.encodePacked(proofElement, hash));\n            }\n\n            index = index / 2;\n        }\n\n        return hash == root;\n    }\n}\n\ncontract MerkleTree is MerkleProof {\n    bytes32 root;\n    bytes32[] leaves;\n    uint max_leaves;\n    uint next;\n    bytes32 [] next_proof;\n    \n    // number of levels including leaves\n    uint8 levels;\n\n    // index of zero_nodes corresponds to level.\n    bytes32[] zero_nodes;\n\n    constructor (uint8 _levels) {\n        levels = _levels;\n        next = 0;\n\n        zero_nodes.push(keccak256(abi.encodePacked('0')));\n\n        // fill up zero_nodes\n        for (uint8 i=1; i < levels; i++){\n            bytes32 node = Hash(zero_nodes[i-1], zero_nodes[i-1]);\n            zero_nodes.push(node);\n            next_proof.push(zero_nodes[i]);\n        }\n\n        max_leaves = 2**(levels - 1);\n        root = Hash(zero_nodes[levels - 1], zero_nodes[levels - 1]);\n    }\n\n    function Hash(bytes32 _x, bytes32 _y) public pure returns (bytes32) {\n        return keccak256(\n            abi.encodePacked(_x, _y)\n            );\n    }\n\n    function insert(bytes32 _leaf) public returns (bool) {\n        if (next >= max_leaves){\n            return false;\n        }\n        uint current = next;\n        next++;\n        bytes32 current_hash = _leaf;\n        bytes32 left;\n        bytes32 right;\n\n        bool always_right_nodes = true;\n        for (uint8 i = 0; i < levels; i++) {\n            if (current % 2 == 0) {\n\n                left = current_hash;\n                right = zero_nodes[i];     \n\n                if (always_right_nodes) {\n                    next_proof[i] = left;\n                }       \n                always_right_nodes = false;   \n            } else {\n                left = next_proof[i];\n                right = current_hash;\n            }\n            current_hash = Hash(left, right);\n            current /= 2;\n        }\n        root = current_hash;\n        return true;\n    }\n\n}",
  "sourcePath": "/home/zekiel/assignment1/contracts/MerkleTree.sol",
  "compiler": {
    "name": "solc",
    "version": "0.8.10+commit.fc410830.Emscripten.clang"
  },
  "schemaVersion": "3.4.4",
  "updatedAt": "2022-01-06T07:46:17.108Z",
  "devdoc": {
    "kind": "dev",
    "methods": {},
    "version": 1
  },
  "userdoc": {
    "kind": "user",
    "methods": {},
    "version": 1
  }
}