{
  "contractName": "MerkleProof",
  "abi": [
    {
      "inputs": [
        {
          "internalType": "bytes32[]",
          "name": "proof",
          "type": "bytes32[]"
        },
        {
          "internalType": "bytes32",
          "name": "root",
          "type": "bytes32"
        },
        {
          "internalType": "bytes32",
          "name": "leaf",
          "type": "bytes32"
        },
        {
          "internalType": "uint256",
          "name": "index",
          "type": "uint256"
        }
      ],
      "name": "verify",
      "outputs": [
        {
          "internalType": "bool",
          "name": "",
          "type": "bool"
        }
      ],
      "stateMutability": "pure",
      "type": "function"
    }
  ],
  "bytecode": "0x608060405234801561001057600080fd5b50610581806100206000396000f3fe608060405234801561001057600080fd5b506004361061002b5760003560e01c806321fb335c14610030575b600080fd5b61004a6004803603810190610045919061030d565b610060565b60405161005791906103ab565b60405180910390f35b60008083905060005b8651811015610125576000878281518110610087576100866103c6565b5b6020026020010151905060006002866100a09190610424565b14156100d65782816040516020016100b9929190610476565b604051602081830303815290604052805190602001209250610102565b80836040516020016100e9929190610476565b6040516020818303038152906040528051906020012092505b60028561010f91906104d1565b945050808061011d90610502565b915050610069565b50848114915050949350505050565b6000604051905090565b600080fd5b600080fd5b600080fd5b6000601f19601f8301169050919050565b7f4e487b7100000000000000000000000000000000000000000000000000000000600052604160045260246000fd5b6101968261014d565b810181811067ffffffffffffffff821117156101b5576101b461015e565b5b80604052505050565b60006101c8610134565b90506101d4828261018d565b919050565b600067ffffffffffffffff8211156101f4576101f361015e565b5b602082029050602081019050919050565b600080fd5b6000819050919050565b61021d8161020a565b811461022857600080fd5b50565b60008135905061023a81610214565b92915050565b600061025361024e846101d9565b6101be565b9050808382526020820190506020840283018581111561027657610275610205565b5b835b8181101561029f578061028b888261022b565b845260208401935050602081019050610278565b5050509392505050565b600082601f8301126102be576102bd610148565b5b81356102ce848260208601610240565b91505092915050565b6000819050919050565b6102ea816102d7565b81146102f557600080fd5b50565b600081359050610307816102e1565b92915050565b600080600080608085870312156103275761032661013e565b5b600085013567ffffffffffffffff81111561034557610344610143565b5b610351878288016102a9565b94505060206103628782880161022b565b93505060406103738782880161022b565b9250506060610384878288016102f8565b91505092959194509250565b60008115159050919050565b6103a581610390565b82525050565b60006020820190506103c0600083018461039c565b92915050565b7f4e487b7100000000000000000000000000000000000000000000000000000000600052603260045260246000fd5b7f4e487b7100000000000000000000000000000000000000000000000000000000600052601260045260246000fd5b600061042f826102d7565b915061043a836102d7565b92508261044a576104496103f5565b5b828206905092915050565b6000819050919050565b61047061046b8261020a565b610455565b82525050565b6000610482828561045f565b602082019150610492828461045f565b6020820191508190509392505050565b7f4e487b7100000000000000000000000000000000000000000000000000000000600052601160045260246000fd5b60006104dc826102d7565b91506104e7836102d7565b9250826104f7576104f66103f5565b5b828204905092915050565b600061050d826102d7565b91507fffffffffffffffffffffffffffffffffffffffffffffffffffffffffffffffff8214156105405761053f6104a2565b5b60018201905091905056fea2646970667358221220696d758f7d81fd04d055c8071f1f5b93f1cff6a4b1b0105c40afc48c8ffb2ee164736f6c634300080a0033",
  "immutableReferences": {},
  "source": "// SPDX-License-Identifier: MIT\npragma solidity ^0.8.10;\n\ncontract MerkleProof {\n    function verify(\n        bytes32[] memory proof,\n        bytes32 root,\n        bytes32 leaf,\n        uint index\n    ) public pure returns (bool) {\n        bytes32 hash = leaf;\n\n        for (uint i = 0; i < proof.length; i++) {\n            bytes32 proofElement = proof[i];\n\n            if (index % 2 == 0) {\n                hash = keccak256(abi.encodePacked(hash, proofElement));\n            } else {\n                hash = keccak256(abi.encodePacked(proofElement, hash));\n            }\n\n            index = index / 2;\n        }\n\n        return hash == root;\n    }\n}\n\ncontract MerkleTree is MerkleProof {\n    bytes32 root;\n    bytes32[] leaves;\n    uint max_leaves;\n    uint next;\n    bytes32 [] next_proof;\n    \n    // number of levels including leaves\n    uint8 levels;\n\n    // index of zero_nodes corresponds to level.\n    bytes32[] zero_nodes;\n\n    constructor (uint8 _levels) {\n        levels = _levels;\n        next = 0;\n\n        zero_nodes.push(keccak256(abi.encodePacked('0')));\n\n        // fill up zero_nodes\n        for (uint8 i=1; i < levels; i++){\n            bytes32 node = Hash(zero_nodes[i-1], zero_nodes[i-1]);\n            zero_nodes.push(node);\n            next_proof.push(zero_nodes[i]);\n        }\n\n        max_leaves = 2**(levels - 1);\n        root = Hash(zero_nodes[levels - 1], zero_nodes[levels - 1]);\n    }\n\n    function Hash(bytes32 _x, bytes32 _y) public pure returns (bytes32) {\n        return keccak256(\n            abi.encodePacked(_x, _y)\n            );\n    }\n\n    function insert(bytes32 _leaf) public returns (bool) {\n        if (next >= max_leaves){\n            return false;\n        }\n        uint current = next;\n        next++;\n        bytes32 current_hash = _leaf;\n        bytes32 left;\n        bytes32 right;\n\n        bool always_right_nodes = true;\n        for (uint8 i = 0; i < levels; i++) {\n            if (current % 2 == 0) {\n\n                left = current_hash;\n                right = zero_nodes[i];     \n\n                if (always_right_nodes) {\n                    next_proof[i] = left;\n                }       \n                always_right_nodes = false;   \n            } else {\n                left = next_proof[i];\n                right = current_hash;\n            }\n            current_hash = Hash(left, right);\n            current /= 2;\n        }\n        root = current_hash;\n        return true;\n    }\n\n}",
  "sourcePath": "/home/zekiel/DarkBush/contracts/MerkleTree.sol",
  "compiler": {
    "name": "solc",
    "version": "0.8.10+commit.fc410830.Emscripten.clang"
  },
  "schemaVersion": "3.4.4",
  "updatedAt": "2022-01-11T21:00:51.037Z",
  "devdoc": {
    "kind": "dev",
    "methods": {},
    "version": 1
  },
  "userdoc": {
    "kind": "user",
    "methods": {},
    "version": 1
  }
}